{
  "contractName": "MemeketPlace",
  "abi": [
    {
      "inputs": [
        {
          "internalType": "contract Meme",
          "name": "_memeContract",
          "type": "address"
        },
        {
          "internalType": "contract User",
          "name": "_userContract",
          "type": "address"
        },
        {
          "internalType": "contract PepeCoin",
          "name": "_pepeCoinContract",
          "type": "address"
        },
        {
          "internalType": "uint256",
          "name": "_likeMemeRewardValue",
          "type": "uint256"
        },
        {
          "internalType": "uint256",
          "name": "_createMemeRewardValue",
          "type": "uint256"
        },
        {
          "internalType": "uint256",
          "name": "_createUserRewardValue",
          "type": "uint256"
        }
      ],
      "payable": false,
      "stateMutability": "nonpayable",
      "type": "constructor"
    },
    {
      "constant": true,
      "inputs": [
        {
          "internalType": "uint256",
          "name": "",
          "type": "uint256"
        },
        {
          "internalType": "address",
          "name": "",
          "type": "address"
        }
      ],
      "name": "flags",
      "outputs": [
        {
          "internalType": "bool",
          "name": "",
          "type": "bool"
        }
      ],
      "payable": false,
      "stateMutability": "view",
      "type": "function"
    },
    {
      "constant": true,
      "inputs": [
        {
          "internalType": "uint256",
          "name": "",
          "type": "uint256"
        },
        {
          "internalType": "address",
          "name": "",
          "type": "address"
        }
      ],
      "name": "likes",
      "outputs": [
        {
          "internalType": "uint256",
          "name": "",
          "type": "uint256"
        }
      ],
      "payable": false,
      "stateMutability": "view",
      "type": "function"
    },
    {
      "constant": false,
      "inputs": [
        {
          "internalType": "address",
          "name": "_memeOwner",
          "type": "address"
        },
        {
          "internalType": "uint256",
          "name": "_memeDate",
          "type": "uint256"
        },
        {
          "internalType": "string",
          "name": "_memePath",
          "type": "string"
        },
        {
          "internalType": "string",
          "name": "_memeTitle",
          "type": "string"
        },
        {
          "internalType": "string",
          "name": "_memeDescription",
          "type": "string"
        },
        {
          "internalType": "uint256",
          "name": "_memeValue",
          "type": "uint256"
        }
      ],
      "name": "uploadMeme",
      "outputs": [],
      "payable": false,
      "stateMutability": "nonpayable",
      "type": "function"
    },
    {
      "constant": false,
      "inputs": [
        {
          "internalType": "uint256",
          "name": "_memeId",
          "type": "uint256"
        }
      ],
      "name": "likeMeme",
      "outputs": [],
      "payable": false,
      "stateMutability": "nonpayable",
      "type": "function"
    },
    {
      "constant": false,
      "inputs": [
        {
          "internalType": "uint256",
          "name": "_memeId",
          "type": "uint256"
        }
      ],
      "name": "dislikeMeme",
      "outputs": [],
      "payable": false,
      "stateMutability": "nonpayable",
      "type": "function"
    },
    {
      "constant": false,
      "inputs": [
        {
          "internalType": "uint256",
          "name": "_memeId",
          "type": "uint256"
        }
      ],
      "name": "flagMeme",
      "outputs": [
        {
          "internalType": "bool",
          "name": "",
          "type": "bool"
        }
      ],
      "payable": false,
      "stateMutability": "nonpayable",
      "type": "function"
    },
    {
      "constant": true,
      "inputs": [
        {
          "internalType": "uint256",
          "name": "_memeId",
          "type": "uint256"
        },
        {
          "internalType": "address",
          "name": "user",
          "type": "address"
        }
      ],
      "name": "getLikes",
      "outputs": [
        {
          "internalType": "uint256",
          "name": "",
          "type": "uint256"
        }
      ],
      "payable": false,
      "stateMutability": "view",
      "type": "function"
    },
    {
      "constant": true,
      "inputs": [
        {
          "internalType": "uint256",
          "name": "_memeId",
          "type": "uint256"
        },
        {
          "internalType": "address",
          "name": "user",
          "type": "address"
        }
      ],
      "name": "getFlags",
      "outputs": [
        {
          "internalType": "bool",
          "name": "",
          "type": "bool"
        }
      ],
      "payable": false,
      "stateMutability": "view",
      "type": "function"
    },
    {
      "constant": false,
      "inputs": [
        {
          "internalType": "address",
          "name": "_userWallet",
          "type": "address"
        },
        {
          "internalType": "string",
          "name": "_about",
          "type": "string"
        },
        {
          "internalType": "string",
          "name": "_displayPictureHash",
          "type": "string"
        },
        {
          "internalType": "string",
          "name": "_diplayName",
          "type": "string"
        },
        {
          "internalType": "string",
          "name": "_website",
          "type": "string"
        }
      ],
      "name": "createUser",
      "outputs": [],
      "payable": false,
      "stateMutability": "nonpayable",
      "type": "function"
    },
    {
      "constant": false,
      "inputs": [
        {
          "internalType": "address",
          "name": "_userWallet",
          "type": "address"
        },
        {
          "internalType": "string",
          "name": "_about",
          "type": "string"
        },
        {
          "internalType": "string",
          "name": "_displayPictureHash",
          "type": "string"
        },
        {
          "internalType": "string",
          "name": "_displayName",
          "type": "string"
        },
        {
          "internalType": "string",
          "name": "_website",
          "type": "string"
        }
      ],
      "name": "updateUserProfile",
      "outputs": [],
      "payable": false,
      "stateMutability": "nonpayable",
      "type": "function"
    },
    {
      "constant": false,
      "inputs": [
        {
          "internalType": "address",
          "name": "_userWallet",
          "type": "address"
        }
      ],
      "name": "activateUser",
      "outputs": [],
      "payable": false,
      "stateMutability": "nonpayable",
      "type": "function"
    },
    {
      "constant": false,
      "inputs": [
        {
          "internalType": "address",
          "name": "_userWallet",
          "type": "address"
        }
      ],
      "name": "deactivateUser",
      "outputs": [],
      "payable": false,
      "stateMutability": "nonpayable",
      "type": "function"
    },
    {
      "constant": false,
      "inputs": [
        {
          "internalType": "uint256",
          "name": "_memeId",
          "type": "uint256"
        },
        {
          "internalType": "uint256",
          "name": "_newDate",
          "type": "uint256"
        }
      ],
      "name": "approveMeme",
      "outputs": [],
      "payable": false,
      "stateMutability": "nonpayable",
      "type": "function"
    },
    {
      "constant": false,
      "inputs": [
        {
          "internalType": "uint256",
          "name": "_memeId",
          "type": "uint256"
        },
        {
          "internalType": "uint256",
          "name": "_newDate",
          "type": "uint256"
        }
      ],
      "name": "rejectMeme",
      "outputs": [],
      "payable": false,
      "stateMutability": "nonpayable",
      "type": "function"
    },
    {
      "constant": false,
      "inputs": [
        {
          "internalType": "uint256",
          "name": "_memeId",
          "type": "uint256"
        },
        {
          "internalType": "uint256",
          "name": "_newValue",
          "type": "uint256"
        }
      ],
      "name": "updateMemeValue",
      "outputs": [],
      "payable": false,
      "stateMutability": "nonpayable",
      "type": "function"
    }
  ],
  "bytecode": "0x6080604052600060065560016007556002600855600360095534801561002457600080fd5b50604051620041ed380380620041ed833981810160405260c081101561004957600080fd5b81019080805190602001909291908051906020019092919080519060200190929190805190602001909291908051906020019092919080519060200190929190505050856000806101000a81548173ffffffffffffffffffffffffffffffffffffffff021916908373ffffffffffffffffffffffffffffffffffffffff16021790555084600160006101000a81548173ffffffffffffffffffffffffffffffffffffffff021916908373ffffffffffffffffffffffffffffffffffffffff16021790555083600260006101000a81548173ffffffffffffffffffffffffffffffffffffffff021916908373ffffffffffffffffffffffffffffffffffffffff16021790555082600381905550816004819055508060058190555050505050505061407480620001796000396000f3fe608060405234801561001057600080fd5b50600436106100f55760003560e01c80636f6986b411610097578063aef8353711610066578063aef8353714610857578063b4acfe1c1461089d578063b7c0d88d146108e1578063fe1c435714610919576100f5565b80636f6986b41461059c57806387cf0ad2146105d45780638a42ad16146107f15780639c55a70f14610829576100f5565b806343214fcb116100d357806343214fcb1461020a578063482acfda146104aa5780635c12c0771461050c578063634a2bd81461056e576100f5565b8063053f3f40146100fa5780631a47767b14610160578063363cacab146101a4575b600080fd5b6101466004803603604081101561011057600080fd5b8101908080359060200190929190803573ffffffffffffffffffffffffffffffffffffffff169060200190929190505050610bb9565b604051808215151515815260200191505060405180910390f35b6101a26004803603602081101561017657600080fd5b81019080803573ffffffffffffffffffffffffffffffffffffffff169060200190929190505050610c21565b005b6101f0600480360360408110156101ba57600080fd5b8101908080359060200190929190803573ffffffffffffffffffffffffffffffffffffffff169060200190929190505050610e0c565b604051808215151515815260200191505060405180910390f35b6104a8600480360360a081101561022057600080fd5b81019080803573ffffffffffffffffffffffffffffffffffffffff1690602001909291908035906020019064010000000081111561025d57600080fd5b82018360208201111561026f57600080fd5b8035906020019184600183028401116401000000008311171561029157600080fd5b91908080601f016020809104026020016040519081016040528093929190818152602001838380828437600081840152601f19601f820116905080830192505050505050509192919290803590602001906401000000008111156102f457600080fd5b82018360208201111561030657600080fd5b8035906020019184600183028401116401000000008311171561032857600080fd5b91908080601f016020809104026020016040519081016040528093929190818152602001838380828437600081840152601f19601f8201169050808301925050505050505091929192908035906020019064010000000081111561038b57600080fd5b82018360208201111561039d57600080fd5b803590602001918460018302840111640100000000831117156103bf57600080fd5b91908080601f016020809104026020016040519081016040528093929190818152602001838380828437600081840152601f19601f8201169050808301925050505050505091929192908035906020019064010000000081111561042257600080fd5b82018360208201111561043457600080fd5b8035906020019184600183028401116401000000008311171561045657600080fd5b91908080601f016020809104026020016040519081016040528093929190818152602001838380828437600081840152601f19601f820116905080830192505050505050509192919290505050610e3b565b005b6104f6600480360360408110156104c057600080fd5b8101908080359060200190929190803573ffffffffffffffffffffffffffffffffffffffff1690602001909291905050506110af565b6040518082815260200191505060405180910390f35b6105586004803603604081101561052257600080fd5b8101908080359060200190929190803573ffffffffffffffffffffffffffffffffffffffff16906020019092919050505061110a565b6040518082815260200191505060405180910390f35b61059a6004803603602081101561058457600080fd5b810190808035906020019092919050505061112f565b005b6105d2600480360360408110156105b257600080fd5b810190808035906020019092919080359060200190929190505050611991565b005b6107ef600480360360c08110156105ea57600080fd5b81019080803573ffffffffffffffffffffffffffffffffffffffff169060200190929190803590602001909291908035906020019064010000000081111561063157600080fd5b82018360208201111561064357600080fd5b8035906020019184600183028401116401000000008311171561066557600080fd5b91908080601f016020809104026020016040519081016040528093929190818152602001838380828437600081840152601f19601f820116905080830192505050505050509192919290803590602001906401000000008111156106c857600080fd5b8201836020820111156106da57600080fd5b803590602001918460018302840111640100000000831117156106fc57600080fd5b91908080601f016020809104026020016040519081016040528093929190818152602001838380828437600081840152601f19601f8201169050808301925050505050505091929192908035906020019064010000000081111561075f57600080fd5b82018360208201111561077157600080fd5b8035906020019184600183028401116401000000008311171561079357600080fd5b91908080601f016020809104026020016040519081016040528093929190818152602001838380828437600081840152601f19601f82011690508083019250505050505050919291929080359060200190929190505050611a29565b005b6108276004803603604081101561080757600080fd5b810190808035906020019092919080359060200190929190505050611dfb565b005b6108556004803603602081101561083f57600080fd5b81019080803590602001909291905050506120e8565b005b6108836004803603602081101561086d57600080fd5b8101908080359060200190929190505050612cf7565b604051808215151515815260200191505060405180910390f35b6108df600480360360208110156108b357600080fd5b81019080803573ffffffffffffffffffffffffffffffffffffffff169060200190929190505050613370565b005b610917600480360360408110156108f757600080fd5b81019080803590602001909291908035906020019092919050505061371b565b005b610bb7600480360360a081101561092f57600080fd5b81019080803573ffffffffffffffffffffffffffffffffffffffff1690602001909291908035906020019064010000000081111561096c57600080fd5b82018360208201111561097e57600080fd5b803590602001918460018302840111640100000000831117156109a057600080fd5b91908080601f016020809104026020016040519081016040528093929190818152602001838380828437600081840152601f19601f82011690508083019250505050505050919291929080359060200190640100000000811115610a0357600080fd5b820183602082011115610a1557600080fd5b80359060200191846001830284011164010000000083111715610a3757600080fd5b91908080601f016020809104026020016040519081016040528093929190818152602001838380828437600081840152601f19601f82011690508083019250505050505050919291929080359060200190640100000000811115610a9a57600080fd5b820183602082011115610aac57600080fd5b80359060200191846001830284011164010000000083111715610ace57600080fd5b91908080601f016020809104026020016040519081016040528093929190818152602001838380828437600081840152601f19601f82011690508083019250505050505050919291929080359060200190640100000000811115610b3157600080fd5b820183602082011115610b4357600080fd5b80359060200191846001830284011164010000000083111715610b6557600080fd5b91908080601f016020809104026020016040519081016040528093929190818152602001838380828437600081840152601f19601f820116905080830192505050505050509192919290505050613922565b005b6000600b600084815260200190815260200160002060008373ffffffffffffffffffffffffffffffffffffffff1673ffffffffffffffffffffffffffffffffffffffff16815260200190815260200160002060009054906101000a900460ff16905092915050565b600160009054906101000a900473ffffffffffffffffffffffffffffffffffffffff1673ffffffffffffffffffffffffffffffffffffffff16639f360151336040518263ffffffff1660e01b8152600401808273ffffffffffffffffffffffffffffffffffffffff1673ffffffffffffffffffffffffffffffffffffffff16815260200191505060206040518083038186803b158015610cc057600080fd5b505afa158015610cd4573d6000803e3d6000fd5b505050506040513d6020811015610cea57600080fd5b8101908080519060200190929190505050610d50576040517f08c379a000000000000000000000000000000000000000000000000000000000815260040180806020018281038252602281526020018061401e6022913960400191505060405180910390fd5b600160009054906101000a900473ffffffffffffffffffffffffffffffffffffffff1673ffffffffffffffffffffffffffffffffffffffff1663a960ccfb826040518263ffffffff1660e01b8152600401808273ffffffffffffffffffffffffffffffffffffffff1673ffffffffffffffffffffffffffffffffffffffff168152602001915050600060405180830381600087803b158015610df157600080fd5b505af1158015610e05573d6000803e3d6000fd5b5050505050565b600b6020528160005260406000206020528060005260406000206000915091509054906101000a900460ff1681565b600160009054906101000a900473ffffffffffffffffffffffffffffffffffffffff1673ffffffffffffffffffffffffffffffffffffffff166343214fcb86868686866040518663ffffffff1660e01b8152600401808673ffffffffffffffffffffffffffffffffffffffff1673ffffffffffffffffffffffffffffffffffffffff16815260200180602001806020018060200180602001858103855289818151815260200191508051906020019080838360005b83811015610f0b578082015181840152602081019050610ef0565b50505050905090810190601f168015610f385780820380516001836020036101000a031916815260200191505b50858103845288818151815260200191508051906020019080838360005b83811015610f71578082015181840152602081019050610f56565b50505050905090810190601f168015610f9e5780820380516001836020036101000a031916815260200191505b50858103835287818151815260200191508051906020019080838360005b83811015610fd7578082015181840152602081019050610fbc565b50505050905090810190601f1680156110045780820380516001836020036101000a031916815260200191505b50858103825286818151815260200191508051906020019080838360005b8381101561103d578082015181840152602081019050611022565b50505050905090810190601f16801561106a5780820380516001836020036101000a031916815260200191505b509950505050505050505050600060405180830381600087803b15801561109057600080fd5b505af11580156110a4573d6000803e3d6000fd5b505050505050505050565b6000600a600084815260200190815260200160002060008373ffffffffffffffffffffffffffffffffffffffff1673ffffffffffffffffffffffffffffffffffffffff16815260200190815260200160002054905092915050565b600a602052816000526040600020602052806000526040600020600091509150505481565b3373ffffffffffffffffffffffffffffffffffffffff166000809054906101000a900473ffffffffffffffffffffffffffffffffffffffff1673ffffffffffffffffffffffffffffffffffffffff1663529a80fb836040518263ffffffff1660e01b81526004018082815260200191505060206040518083038186803b1580156111b857600080fd5b505afa1580156111cc573d6000803e3d6000fd5b505050506040513d60208110156111e257600080fd5b810190808051906020019092919050505073ffffffffffffffffffffffffffffffffffffffff16141561127d576040517f08c379a00000000000000000000000000000000000000000000000000000000081526004018080602001828103825260208152602001807f596f752063616e6e6f74206469736c696b6520796f7572206f776e206d656d6581525060200191505060405180910390fd5b600854600a600083815260200190815260200160002060003373ffffffffffffffffffffffffffffffffffffffff1673ffffffffffffffffffffffffffffffffffffffff168152602001908152602001600020541415611486576000809054906101000a900473ffffffffffffffffffffffffffffffffffffffff1673ffffffffffffffffffffffffffffffffffffffff1663caa07b90826113d560016000809054906101000a900473ffffffffffffffffffffffffffffffffffffffff1673ffffffffffffffffffffffffffffffffffffffff1663f331a548876040518263ffffffff1660e01b81526004018082815260200191505060206040518083038186803b15801561138c57600080fd5b505afa1580156113a0573d6000803e3d6000fd5b505050506040513d60208110156113b657600080fd5b8101908080519060200190929190505050613e4590919063ffffffff16565b6040518363ffffffff1660e01b81526004018083815260200182815260200192505050600060405180830381600087803b15801561141257600080fd5b505af1158015611426573d6000803e3d6000fd5b50505050600954600a600083815260200190815260200160002060003373ffffffffffffffffffffffffffffffffffffffff1673ffffffffffffffffffffffffffffffffffffffff1681526020019081526020016000208190555061198e565b600754600a600083815260200190815260200160002060003373ffffffffffffffffffffffffffffffffffffffff1673ffffffffffffffffffffffffffffffffffffffff1681526020019081526020016000205414156117e2576000809054906101000a900473ffffffffffffffffffffffffffffffffffffffff1673ffffffffffffffffffffffffffffffffffffffff166390e5abb4826115de60016000809054906101000a900473ffffffffffffffffffffffffffffffffffffffff1673ffffffffffffffffffffffffffffffffffffffff16637eda8c04876040518263ffffffff1660e01b81526004018082815260200191505060206040518083038186803b15801561159557600080fd5b505afa1580156115a9573d6000803e3d6000fd5b505050506040513d60208110156115bf57600080fd5b8101908080519060200190929190505050613e4590919063ffffffff16565b6040518363ffffffff1660e01b81526004018083815260200182815260200192505050600060405180830381600087803b15801561161b57600080fd5b505af115801561162f573d6000803e3d6000fd5b505050506000809054906101000a900473ffffffffffffffffffffffffffffffffffffffff1673ffffffffffffffffffffffffffffffffffffffff1663caa07b908261173160016000809054906101000a900473ffffffffffffffffffffffffffffffffffffffff1673ffffffffffffffffffffffffffffffffffffffff1663f331a548876040518263ffffffff1660e01b81526004018082815260200191505060206040518083038186803b1580156116e857600080fd5b505afa1580156116fc573d6000803e3d6000fd5b505050506040513d602081101561171257600080fd5b8101908080519060200190929190505050613e8f90919063ffffffff16565b6040518363ffffffff1660e01b81526004018083815260200182815260200192505050600060405180830381600087803b15801561176e57600080fd5b505af1158015611782573d6000803e3d6000fd5b50505050600854600a600083815260200190815260200160002060003373ffffffffffffffffffffffffffffffffffffffff1673ffffffffffffffffffffffffffffffffffffffff1681526020019081526020016000208190555061198d565b6000809054906101000a900473ffffffffffffffffffffffffffffffffffffffff1673ffffffffffffffffffffffffffffffffffffffff1663caa07b90826118e060016000809054906101000a900473ffffffffffffffffffffffffffffffffffffffff1673ffffffffffffffffffffffffffffffffffffffff1663f331a548876040518263ffffffff1660e01b81526004018082815260200191505060206040518083038186803b15801561189757600080fd5b505afa1580156118ab573d6000803e3d6000fd5b505050506040513d60208110156118c157600080fd5b8101908080519060200190929190505050613e8f90919063ffffffff16565b6040518363ffffffff1660e01b81526004018083815260200182815260200192505050600060405180830381600087803b15801561191d57600080fd5b505af1158015611931573d6000803e3d6000fd5b50505050600854600a600083815260200190815260200160002060003373ffffffffffffffffffffffffffffffffffffffff1673ffffffffffffffffffffffffffffffffffffffff168152602001908152602001600020819055505b5b50565b6000809054906101000a900473ffffffffffffffffffffffffffffffffffffffff1673ffffffffffffffffffffffffffffffffffffffff16636f6986b483836040518363ffffffff1660e01b81526004018083815260200182815260200192505050600060405180830381600087803b158015611a0d57600080fd5b505af1158015611a21573d6000803e3d6000fd5b505050505050565b6000809054906101000a900473ffffffffffffffffffffffffffffffffffffffff1673ffffffffffffffffffffffffffffffffffffffff166314f7ab118787878787876040518763ffffffff1660e01b8152600401808773ffffffffffffffffffffffffffffffffffffffff1673ffffffffffffffffffffffffffffffffffffffff168152602001868152602001806020018060200180602001858152602001848103845288818151815260200191508051906020019080838360005b83811015611b01578082015181840152602081019050611ae6565b50505050905090810190601f168015611b2e5780820380516001836020036101000a031916815260200191505b50848103835287818151815260200191508051906020019080838360005b83811015611b67578082015181840152602081019050611b4c565b50505050905090810190601f168015611b945780820380516001836020036101000a031916815260200191505b50848103825286818151815260200191508051906020019080838360005b83811015611bcd578082015181840152602081019050611bb2565b50505050905090810190601f168015611bfa5780820380516001836020036101000a031916815260200191505b509950505050505050505050602060405180830381600087803b158015611c2057600080fd5b505af1158015611c34573d6000803e3d6000fd5b505050506040513d6020811015611c4a57600080fd5b810190808051906020019092919050505050600260009054906101000a900473ffffffffffffffffffffffffffffffffffffffff1673ffffffffffffffffffffffffffffffffffffffff1663e660a39433600260009054906101000a900473ffffffffffffffffffffffffffffffffffffffff1673ffffffffffffffffffffffffffffffffffffffff1663442890d56040518163ffffffff1660e01b815260040160206040518083038186803b158015611d0357600080fd5b505afa158015611d17573d6000803e3d6000fd5b505050506040513d6020811015611d2d57600080fd5b8101908080519060200190929190505050846040518463ffffffff1660e01b8152600401808473ffffffffffffffffffffffffffffffffffffffff1673ffffffffffffffffffffffffffffffffffffffff1681526020018373ffffffffffffffffffffffffffffffffffffffff1673ffffffffffffffffffffffffffffffffffffffff1681526020018281526020019350505050600060405180830381600087803b158015611ddb57600080fd5b505af1158015611def573d6000803e3d6000fd5b50505050505050505050565b6000809054906101000a900473ffffffffffffffffffffffffffffffffffffffff1673ffffffffffffffffffffffffffffffffffffffff1663db3106b183611ef8846000809054906101000a900473ffffffffffffffffffffffffffffffffffffffff1673ffffffffffffffffffffffffffffffffffffffff1663f251dcb5886040518263ffffffff1660e01b81526004018082815260200191505060206040518083038186803b158015611eaf57600080fd5b505afa158015611ec3573d6000803e3d6000fd5b505050506040513d6020811015611ed957600080fd5b8101908080519060200190929190505050613e8f90919063ffffffff16565b6040518363ffffffff1660e01b81526004018083815260200182815260200192505050600060405180830381600087803b158015611f3557600080fd5b505af1158015611f49573d6000803e3d6000fd5b50505050600260009054906101000a900473ffffffffffffffffffffffffffffffffffffffff1673ffffffffffffffffffffffffffffffffffffffff1663e660a39433600260009054906101000a900473ffffffffffffffffffffffffffffffffffffffff1673ffffffffffffffffffffffffffffffffffffffff1663442890d56040518163ffffffff1660e01b815260040160206040518083038186803b158015611ff457600080fd5b505afa158015612008573d6000803e3d6000fd5b505050506040513d602081101561201e57600080fd5b8101908080519060200190929190505050846040518463ffffffff1660e01b8152600401808473ffffffffffffffffffffffffffffffffffffffff1673ffffffffffffffffffffffffffffffffffffffff1681526020018373ffffffffffffffffffffffffffffffffffffffff1673ffffffffffffffffffffffffffffffffffffffff1681526020018281526020019350505050600060405180830381600087803b1580156120cc57600080fd5b505af11580156120e0573d6000803e3d6000fd5b505050505050565b3373ffffffffffffffffffffffffffffffffffffffff166000809054906101000a900473ffffffffffffffffffffffffffffffffffffffff1673ffffffffffffffffffffffffffffffffffffffff1663529a80fb836040518263ffffffff1660e01b81526004018082815260200191505060206040518083038186803b15801561217157600080fd5b505afa158015612185573d6000803e3d6000fd5b505050506040513d602081101561219b57600080fd5b810190808051906020019092919050505073ffffffffffffffffffffffffffffffffffffffff161415612236576040517f08c379a000000000000000000000000000000000000000000000000000000000815260040180806020018281038252601d8152602001807f596f752063616e6e6f74206c696b6520796f7572206f776e206d656d6500000081525060200191505060405180910390fd5b600754600a600083815260200190815260200160002060003373ffffffffffffffffffffffffffffffffffffffff1673ffffffffffffffffffffffffffffffffffffffff16815260200190815260200160002054141561243f576000809054906101000a900473ffffffffffffffffffffffffffffffffffffffff1673ffffffffffffffffffffffffffffffffffffffff166390e5abb48261238e60016000809054906101000a900473ffffffffffffffffffffffffffffffffffffffff1673ffffffffffffffffffffffffffffffffffffffff16637eda8c04876040518263ffffffff1660e01b81526004018082815260200191505060206040518083038186803b15801561234557600080fd5b505afa158015612359573d6000803e3d6000fd5b505050506040513d602081101561236f57600080fd5b8101908080519060200190929190505050613e4590919063ffffffff16565b6040518363ffffffff1660e01b81526004018083815260200182815260200192505050600060405180830381600087803b1580156123cb57600080fd5b505af11580156123df573d6000803e3d6000fd5b50505050600954600a600083815260200190815260200160002060003373ffffffffffffffffffffffffffffffffffffffff1673ffffffffffffffffffffffffffffffffffffffff16815260200190815260200160002081905550612cf4565b600854600a600083815260200190815260200160002060003373ffffffffffffffffffffffffffffffffffffffff1673ffffffffffffffffffffffffffffffffffffffff16815260200190815260200160002054141561279b576000809054906101000a900473ffffffffffffffffffffffffffffffffffffffff1673ffffffffffffffffffffffffffffffffffffffff1663caa07b908261259760016000809054906101000a900473ffffffffffffffffffffffffffffffffffffffff1673ffffffffffffffffffffffffffffffffffffffff1663f331a548876040518263ffffffff1660e01b81526004018082815260200191505060206040518083038186803b15801561254e57600080fd5b505afa158015612562573d6000803e3d6000fd5b505050506040513d602081101561257857600080fd5b8101908080519060200190929190505050613e4590919063ffffffff16565b6040518363ffffffff1660e01b81526004018083815260200182815260200192505050600060405180830381600087803b1580156125d457600080fd5b505af11580156125e8573d6000803e3d6000fd5b505050506000809054906101000a900473ffffffffffffffffffffffffffffffffffffffff1673ffffffffffffffffffffffffffffffffffffffff166390e5abb4826126ea60016000809054906101000a900473ffffffffffffffffffffffffffffffffffffffff1673ffffffffffffffffffffffffffffffffffffffff16637eda8c04876040518263ffffffff1660e01b81526004018082815260200191505060206040518083038186803b1580156126a157600080fd5b505afa1580156126b5573d6000803e3d6000fd5b505050506040513d60208110156126cb57600080fd5b8101908080519060200190929190505050613e8f90919063ffffffff16565b6040518363ffffffff1660e01b81526004018083815260200182815260200192505050600060405180830381600087803b15801561272757600080fd5b505af115801561273b573d6000803e3d6000fd5b50505050600754600a600083815260200190815260200160002060003373ffffffffffffffffffffffffffffffffffffffff1673ffffffffffffffffffffffffffffffffffffffff16815260200190815260200160002081905550612cf3565b600954600a600083815260200190815260200160002060003373ffffffffffffffffffffffffffffffffffffffff1673ffffffffffffffffffffffffffffffffffffffff1681526020019081526020016000205414156129a4576000809054906101000a900473ffffffffffffffffffffffffffffffffffffffff1673ffffffffffffffffffffffffffffffffffffffff166390e5abb4826128f360016000809054906101000a900473ffffffffffffffffffffffffffffffffffffffff1673ffffffffffffffffffffffffffffffffffffffff16637eda8c04876040518263ffffffff1660e01b81526004018082815260200191505060206040518083038186803b1580156128aa57600080fd5b505afa1580156128be573d6000803e3d6000fd5b505050506040513d60208110156128d457600080fd5b8101908080519060200190929190505050613e8f90919063ffffffff16565b6040518363ffffffff1660e01b81526004018083815260200182815260200192505050600060405180830381600087803b15801561293057600080fd5b505af1158015612944573d6000803e3d6000fd5b50505050600754600a600083815260200190815260200160002060003373ffffffffffffffffffffffffffffffffffffffff1673ffffffffffffffffffffffffffffffffffffffff16815260200190815260200160002081905550612cf2565b6000809054906101000a900473ffffffffffffffffffffffffffffffffffffffff1673ffffffffffffffffffffffffffffffffffffffff166390e5abb482612aa260016000809054906101000a900473ffffffffffffffffffffffffffffffffffffffff1673ffffffffffffffffffffffffffffffffffffffff16637eda8c04876040518263ffffffff1660e01b81526004018082815260200191505060206040518083038186803b158015612a5957600080fd5b505afa158015612a6d573d6000803e3d6000fd5b505050506040513d6020811015612a8357600080fd5b8101908080519060200190929190505050613e8f90919063ffffffff16565b6040518363ffffffff1660e01b81526004018083815260200182815260200192505050600060405180830381600087803b158015612adf57600080fd5b505af1158015612af3573d6000803e3d6000fd5b50505050600754600a600083815260200190815260200160002060003373ffffffffffffffffffffffffffffffffffffffff1673ffffffffffffffffffffffffffffffffffffffff16815260200190815260200160002081905550600260009054906101000a900473ffffffffffffffffffffffffffffffffffffffff1673ffffffffffffffffffffffffffffffffffffffff1663e660a394336000809054906101000a900473ffffffffffffffffffffffffffffffffffffffff1673ffffffffffffffffffffffffffffffffffffffff1663529a80fb856040518263ffffffff1660e01b81526004018082815260200191505060206040518083038186803b158015612bff57600080fd5b505afa158015612c13573d6000803e3d6000fd5b505050506040513d6020811015612c2957600080fd5b81019080805190602001909291905050506003546040518463ffffffff1660e01b8152600401808473ffffffffffffffffffffffffffffffffffffffff1673ffffffffffffffffffffffffffffffffffffffff1681526020018373ffffffffffffffffffffffffffffffffffffffff1673ffffffffffffffffffffffffffffffffffffffff1681526020018281526020019350505050600060405180830381600087803b158015612cd957600080fd5b505af1158015612ced573d6000803e3d6000fd5b505050505b5b5b50565b60003373ffffffffffffffffffffffffffffffffffffffff166000809054906101000a900473ffffffffffffffffffffffffffffffffffffffff1673ffffffffffffffffffffffffffffffffffffffff1663529a80fb846040518263ffffffff1660e01b81526004018082815260200191505060206040518083038186803b158015612d8257600080fd5b505afa158015612d96573d6000803e3d6000fd5b505050506040513d6020811015612dac57600080fd5b810190808051906020019092919050505073ffffffffffffffffffffffffffffffffffffffff161415612e47576040517f08c379a000000000000000000000000000000000000000000000000000000000815260040180806020018281038252601d8152602001807f596f752063616e6e6f7420666c616720796f7572206f776e206d656d6500000081525060200191505060405180910390fd5b60001515600b600084815260200190815260200160002060003373ffffffffffffffffffffffffffffffffffffffff1673ffffffffffffffffffffffffffffffffffffffff16815260200190815260200160002060009054906101000a900460ff16151514612f01576040517f08c379a0000000000000000000000000000000000000000000000000000000008152600401808060200182810382526022815260200180613fd86022913960400191505060405180910390fd5b6001600b600084815260200190815260200160002060003373ffffffffffffffffffffffffffffffffffffffff1673ffffffffffffffffffffffffffffffffffffffff16815260200190815260200160002060006101000a81548160ff0219169083151502179055506000809054906101000a900473ffffffffffffffffffffffffffffffffffffffff1673ffffffffffffffffffffffffffffffffffffffff1663e1b64e798361306860016000809054906101000a900473ffffffffffffffffffffffffffffffffffffffff1673ffffffffffffffffffffffffffffffffffffffff1663b39a6e8c886040518263ffffffff1660e01b81526004018082815260200191505060206040518083038186803b15801561301f57600080fd5b505afa158015613033573d6000803e3d6000fd5b505050506040513d602081101561304957600080fd5b8101908080519060200190929190505050613e8f90919063ffffffff16565b6040518363ffffffff1660e01b81526004018083815260200182815260200192505050600060405180830381600087803b1580156130a557600080fd5b505af11580156130b9573d6000803e3d6000fd5b505050506002600160009054906101000a900473ffffffffffffffffffffffffffffffffffffffff1673ffffffffffffffffffffffffffffffffffffffff1663fbd0d6926040518163ffffffff1660e01b815260040160206040518083038186803b15801561312757600080fd5b505afa15801561313b573d6000803e3d6000fd5b505050506040513d602081101561315157600080fd5b81019080805190602001909291905050508161316957fe5b046000809054906101000a900473ffffffffffffffffffffffffffffffffffffffff1673ffffffffffffffffffffffffffffffffffffffff1663b39a6e8c846040518263ffffffff1660e01b81526004018082815260200191505060206040518083038186803b1580156131dc57600080fd5b505afa1580156131f0573d6000803e3d6000fd5b505050506040513d602081101561320657600080fd5b81019080805190602001909291905050501115613366576000809054906101000a900473ffffffffffffffffffffffffffffffffffffffff1673ffffffffffffffffffffffffffffffffffffffff16636f6986b4836000809054906101000a900473ffffffffffffffffffffffffffffffffffffffff1673ffffffffffffffffffffffffffffffffffffffff166329f54c15866040518263ffffffff1660e01b81526004018082815260200191505060206040518083038186803b1580156132cd57600080fd5b505afa1580156132e1573d6000803e3d6000fd5b505050506040513d60208110156132f757600080fd5b81019080805190602001909291905050506040518363ffffffff1660e01b81526004018083815260200182815260200192505050600060405180830381600087803b15801561334557600080fd5b505af1158015613359573d6000803e3d6000fd5b505050506001905061336b565b600090505b919050565b600160009054906101000a900473ffffffffffffffffffffffffffffffffffffffff1673ffffffffffffffffffffffffffffffffffffffff16639f360151336040518263ffffffff1660e01b8152600401808273ffffffffffffffffffffffffffffffffffffffff1673ffffffffffffffffffffffffffffffffffffffff16815260200191505060206040518083038186803b15801561340f57600080fd5b505afa158015613423573d6000803e3d6000fd5b505050506040513d602081101561343957600080fd5b81019080805190602001909291905050506134bc576040517f08c379a00000000000000000000000000000000000000000000000000000000081526004018080602001828103825260208152602001807f4f6e6c7920616e2061646d696e2063616e20616374697661746520757365727381525060200191505060405180910390fd5b600160009054906101000a900473ffffffffffffffffffffffffffffffffffffffff1673ffffffffffffffffffffffffffffffffffffffff1663f716b14c826040518263ffffffff1660e01b8152600401808273ffffffffffffffffffffffffffffffffffffffff1673ffffffffffffffffffffffffffffffffffffffff16815260200191505060206040518083038186803b15801561355b57600080fd5b505afa15801561356f573d6000803e3d6000fd5b505050506040513d602081101561358557600080fd5b81019080805190602001909291905050501561365f57600260009054906101000a900473ffffffffffffffffffffffffffffffffffffffff1673ffffffffffffffffffffffffffffffffffffffff1663012996f8826005546040518363ffffffff1660e01b8152600401808373ffffffffffffffffffffffffffffffffffffffff1673ffffffffffffffffffffffffffffffffffffffff16815260200182815260200192505050600060405180830381600087803b15801561364657600080fd5b505af115801561365a573d6000803e3d6000fd5b505050505b600160009054906101000a900473ffffffffffffffffffffffffffffffffffffffff1673ffffffffffffffffffffffffffffffffffffffff1663c63939a8826040518263ffffffff1660e01b8152600401808273ffffffffffffffffffffffffffffffffffffffff1673ffffffffffffffffffffffffffffffffffffffff168152602001915050600060405180830381600087803b15801561370057600080fd5b505af1158015613714573d6000803e3d6000fd5b5050505050565b6000809054906101000a900473ffffffffffffffffffffffffffffffffffffffff1673ffffffffffffffffffffffffffffffffffffffff1663b7c0d88d83836040518363ffffffff1660e01b81526004018083815260200182815260200192505050600060405180830381600087803b15801561379757600080fd5b505af11580156137ab573d6000803e3d6000fd5b50505050600260009054906101000a900473ffffffffffffffffffffffffffffffffffffffff1673ffffffffffffffffffffffffffffffffffffffff1663012996f86000809054906101000a900473ffffffffffffffffffffffffffffffffffffffff1673ffffffffffffffffffffffffffffffffffffffff1663529a80fb856040518263ffffffff1660e01b81526004018082815260200191505060206040518083038186803b15801561385f57600080fd5b505afa158015613873573d6000803e3d6000fd5b505050506040513d602081101561388957600080fd5b81019080805190602001909291905050506004546040518363ffffffff1660e01b8152600401808373ffffffffffffffffffffffffffffffffffffffff1673ffffffffffffffffffffffffffffffffffffffff16815260200182815260200192505050600060405180830381600087803b15801561390657600080fd5b505af115801561391a573d6000803e3d6000fd5b505050505050565b8473ffffffffffffffffffffffffffffffffffffffff163373ffffffffffffffffffffffffffffffffffffffff16146139a6576040517f08c379a0000000000000000000000000000000000000000000000000000000008152600401808060200182810382526024815260200180613ffa6024913960400191505060405180910390fd5b600160009054906101000a900473ffffffffffffffffffffffffffffffffffffffff1673ffffffffffffffffffffffffffffffffffffffff1663fbfe5d6586866040518363ffffffff1660e01b8152600401808373ffffffffffffffffffffffffffffffffffffffff1673ffffffffffffffffffffffffffffffffffffffff16815260200180602001828103825283818151815260200191508051906020019080838360005b83811015613a67578082015181840152602081019050613a4c565b50505050905090810190601f168015613a945780820380516001836020036101000a031916815260200191505b509350505050600060405180830381600087803b158015613ab457600080fd5b505af1158015613ac8573d6000803e3d6000fd5b50505050600160009054906101000a900473ffffffffffffffffffffffffffffffffffffffff1673ffffffffffffffffffffffffffffffffffffffff1663c2ffe5fc86856040518363ffffffff1660e01b8152600401808373ffffffffffffffffffffffffffffffffffffffff1673ffffffffffffffffffffffffffffffffffffffff16815260200180602001828103825283818151815260200191508051906020019080838360005b83811015613b8d578082015181840152602081019050613b72565b50505050905090810190601f168015613bba5780820380516001836020036101000a031916815260200191505b509350505050600060405180830381600087803b158015613bda57600080fd5b505af1158015613bee573d6000803e3d6000fd5b50505050600160009054906101000a900473ffffffffffffffffffffffffffffffffffffffff1673ffffffffffffffffffffffffffffffffffffffff16639619c5fe86846040518363ffffffff1660e01b8152600401808373ffffffffffffffffffffffffffffffffffffffff1673ffffffffffffffffffffffffffffffffffffffff16815260200180602001828103825283818151815260200191508051906020019080838360005b83811015613cb3578082015181840152602081019050613c98565b50505050905090810190601f168015613ce05780820380516001836020036101000a031916815260200191505b509350505050600060405180830381600087803b158015613d0057600080fd5b505af1158015613d14573d6000803e3d6000fd5b50505050600160009054906101000a900473ffffffffffffffffffffffffffffffffffffffff1673ffffffffffffffffffffffffffffffffffffffff1663a04a296c86836040518363ffffffff1660e01b8152600401808373ffffffffffffffffffffffffffffffffffffffff1673ffffffffffffffffffffffffffffffffffffffff16815260200180602001828103825283818151815260200191508051906020019080838360005b83811015613dd9578082015181840152602081019050613dbe565b50505050905090810190601f168015613e065780820380516001836020036101000a031916815260200191505b509350505050600060405180830381600087803b158015613e2657600080fd5b505af1158015613e3a573d6000803e3d6000fd5b505050505050505050565b6000613e8783836040518060400160405280601e81526020017f536166654d6174683a207375627472616374696f6e206f766572666c6f770000815250613f17565b905092915050565b600080828401905083811015613f0d576040517f08c379a000000000000000000000000000000000000000000000000000000000815260040180806020018281038252601b8152602001807f536166654d6174683a206164646974696f6e206f766572666c6f77000000000081525060200191505060405180910390fd5b8091505092915050565b6000838311158290613fc4576040517f08c379a00000000000000000000000000000000000000000000000000000000081526004018080602001828103825283818151815260200191508051906020019080838360005b83811015613f89578082015181840152602081019050613f6e565b50505050905090810190601f168015613fb65780820380516001836020036101000a031916815260200191505b509250505060405180910390fd5b506000838503905080915050939250505056fe596f75206861766520616c726561647920666c61676765642074686973206d656d65596f752063616e206f6e6c792075706461746520796f7572206f776e2070726f66696c654f6e6c7920616e2061646d696e2063616e2064656163746976617465207573657273a265627a7a7231582025613c26abf5436398ac4b828bd3e87f335baabb5cd95d1f82b31538f03522da64736f6c63430005100032",
  "source": "pragma solidity ^0.5.0;\r\nimport \"./Meme.sol\";\r\nimport \"./User.sol\";\r\nimport \"./PepeCoin.sol\";\r\nimport \"../node_modules/@openzeppelin/contracts/math/SafeMath.sol\";\r\n\r\n\r\ncontract MemeketPlace {\r\n    using SafeMath for uint256;\r\n\r\n    Meme memeContract;\r\n    User userContract;\r\n    PepeCoin pepeCoinContract;\r\n\r\n    uint256 likeMemeRewardValue;\r\n    uint256 createMemeRewardValue;\r\n    uint256 createUserRewardValue;\r\n\r\n    // Uint value representations of default/like/dislike\r\n    uint256 private defaultVal = 0;\r\n    uint256 private likeVal = 1;\r\n    uint256 private dislikeVal = 2;\r\n    uint256 private likeOrDislikeVal = 3;\r\n\r\n    mapping(uint256 => mapping(address => uint256)) public likes; // 0 means no like or dislike, 1 means like, 2 means dislike\r\n    mapping(uint256 => mapping(address => bool)) public flags;\r\n\r\n    constructor(\r\n        Meme _memeContract,\r\n        User _userContract,\r\n        PepeCoin _pepeCoinContract,\r\n        uint256 _likeMemeRewardValue,\r\n        uint256 _createMemeRewardValue,\r\n        uint256 _createUserRewardValue\r\n    ) public {\r\n        memeContract = _memeContract;\r\n        userContract = _userContract;\r\n        pepeCoinContract = _pepeCoinContract;\r\n        likeMemeRewardValue = _likeMemeRewardValue;\r\n        createMemeRewardValue = _createMemeRewardValue;\r\n        createUserRewardValue = _createUserRewardValue;\r\n    }\r\n\r\n    function uploadMeme(\r\n        address _memeOwner,\r\n        uint256 _memeDate,\r\n        string memory _memePath,\r\n        string memory _memeTitle,\r\n        string memory _memeDescription,\r\n        uint256 _memeValue\r\n    ) public {\r\n        memeContract.createMeme(\r\n            _memeOwner,\r\n            _memeDate,\r\n            _memePath,\r\n            _memeTitle,\r\n            _memeDescription,\r\n            _memeValue\r\n        );\r\n        pepeCoinContract.transferPepeCoins(\r\n            msg.sender,\r\n            pepeCoinContract.getContractOwner(),\r\n            _memeValue\r\n        );\r\n    }\r\n\r\n    function likeMeme(uint256 _memeId) public {\r\n        require(\r\n            memeContract.getMemeOwner(_memeId) != msg.sender,\r\n            \"You cannot like your own meme\"\r\n        );\r\n        if (likes[_memeId][msg.sender] == likeVal) {\r\n            //This meme has already been liked before, so when they like again, it will unlike.\r\n            memeContract.setMemeLikes(\r\n                _memeId,\r\n                memeContract.getMemeLikes(_memeId).sub(1)\r\n            );\r\n            likes[_memeId][msg.sender] = likeOrDislikeVal;\r\n        } else if (likes[_memeId][msg.sender] == dislikeVal) {\r\n            //This meme was intially dislike, so when they like, dislike should subtract\r\n            memeContract.setMemeDislikes(\r\n                _memeId,\r\n                memeContract.getMemeDislikes(_memeId).sub(1)\r\n            );\r\n            memeContract.setMemeLikes(\r\n                _memeId,\r\n                memeContract.getMemeLikes(_memeId).add(1)\r\n            );\r\n            likes[_memeId][msg.sender] = likeVal;\r\n        } else if (likes[_memeId][msg.sender] == likeOrDislikeVal) {\r\n            //This meme was already liked or disliked before\r\n            memeContract.setMemeLikes(\r\n                _memeId,\r\n                memeContract.getMemeLikes(_memeId).add(1)\r\n            );\r\n            likes[_memeId][msg.sender] = likeVal;\r\n        } else {\r\n            //uint by default is 0, will mint pepecoins for first like\r\n            memeContract.setMemeLikes(\r\n                _memeId,\r\n                memeContract.getMemeLikes(_memeId).add(1)\r\n            );\r\n            likes[_memeId][msg.sender] = likeVal;\r\n            pepeCoinContract.transferPepeCoins(\r\n                msg.sender,\r\n                memeContract.getMemeOwner(_memeId),\r\n                likeMemeRewardValue\r\n            );\r\n        }\r\n    }\r\n\r\n    function dislikeMeme(uint256 _memeId) public {\r\n        require(\r\n            memeContract.getMemeOwner(_memeId) != msg.sender,\r\n            \"You cannot dislike your own meme\"\r\n        );\r\n        if (likes[_memeId][msg.sender] == dislikeVal) {\r\n            //This meme has already been disliked before, so when they like again, it will undislike.\r\n            memeContract.setMemeDislikes(\r\n                _memeId,\r\n                memeContract.getMemeDislikes(_memeId).sub(1)\r\n            );\r\n            likes[_memeId][msg.sender] = likeOrDislikeVal;\r\n        } else if (likes[_memeId][msg.sender] == likeVal) {\r\n            //This meme was intially liked, so when they dislike, like should subtract\r\n            memeContract.setMemeLikes(\r\n                _memeId,\r\n                memeContract.getMemeLikes(_memeId).sub(1)\r\n            );\r\n            memeContract.setMemeDislikes(\r\n                _memeId,\r\n                memeContract.getMemeDislikes(_memeId).add(1)\r\n            );\r\n            likes[_memeId][msg.sender] = dislikeVal;\r\n        } else {\r\n            //uint by default is 0\r\n            memeContract.setMemeDislikes(\r\n                _memeId,\r\n                memeContract.getMemeDislikes(_memeId).add(1)\r\n            );\r\n            likes[_memeId][msg.sender] = dislikeVal;\r\n        }\r\n    }\r\n\r\n    function flagMeme(uint256 _memeId) public returns (bool) {\r\n        require(\r\n            memeContract.getMemeOwner(_memeId) != msg.sender,\r\n            \"You cannot flag your own meme\"\r\n        );\r\n        require(\r\n            flags[_memeId][msg.sender] == false,\r\n            \"You have already flagged this meme\"\r\n        );\r\n        flags[_memeId][msg.sender] = true;\r\n        memeContract.setMemeFlags(\r\n            _memeId,\r\n            memeContract.getMemeFlags(_memeId).add(1)\r\n        );\r\n        //If number of meme flags > 50% of the user population, reject meme\r\n        if (\r\n            memeContract.getMemeFlags(_memeId) >\r\n            userContract.getNumberUsers() / 2\r\n        ) {\r\n            memeContract.rejectMeme(_memeId, memeContract.getMemeDate(_memeId));\r\n            return true;\r\n        }\r\n        return false;\r\n    }\r\n\r\n    function getLikes(uint256 _memeId, address user)\r\n        public\r\n        view\r\n        returns (uint256)\r\n    {\r\n        return likes[_memeId][user];\r\n    }\r\n\r\n    function getFlags(uint256 _memeId, address user)\r\n        public\r\n        view\r\n        returns (bool)\r\n    {\r\n        return flags[_memeId][user];\r\n    }\r\n\r\n    function createUser(\r\n        address _userWallet,\r\n        string memory _about,\r\n        string memory _displayPictureHash,\r\n        string memory _diplayName,\r\n        string memory _website\r\n    ) public {\r\n        userContract.createUser(\r\n            _userWallet,\r\n            _about,\r\n            _displayPictureHash,\r\n            _diplayName,\r\n            _website\r\n        );\r\n    }\r\n\r\n    function updateUserProfile(\r\n        address _userWallet,\r\n        string memory _about,\r\n        string memory _displayPictureHash,\r\n        string memory _displayName,\r\n        string memory _website\r\n    ) public {\r\n        require(\r\n            msg.sender == _userWallet,\r\n            \"You can only update your own profile\"\r\n        );\r\n        userContract.setUserAbout(_userWallet, _about);\r\n        userContract.setUserDisplayPicture(_userWallet, _displayPictureHash);\r\n        userContract.setUserDisplayName(_userWallet, _displayName);\r\n        userContract.setUserWebsite(_userWallet, _website);\r\n    }\r\n\r\n    function activateUser(address _userWallet) public {\r\n        require(\r\n            userContract.checkUserIsAdmin(msg.sender),\r\n            \"Only an admin can activate users\"\r\n        );\r\n        if (userContract.checkUserIsPending(_userWallet)) {\r\n            pepeCoinContract.mintPepeCoins(_userWallet, createUserRewardValue);\r\n        }\r\n        userContract.setUserAsActive(_userWallet);\r\n    }\r\n\r\n    function deactivateUser(address _userWallet) public {\r\n        require(\r\n            userContract.checkUserIsAdmin(msg.sender),\r\n            \"Only an admin can deactivate users\"\r\n        );\r\n        userContract.setUserAsDeactivated(_userWallet);\r\n    }\r\n\r\n    function approveMeme(uint256 _memeId, uint256 _newDate) public {\r\n        memeContract.approveMeme(_memeId, _newDate);\r\n        pepeCoinContract.mintPepeCoins(\r\n            memeContract.getMemeOwner(_memeId),\r\n            createMemeRewardValue\r\n        );\r\n    }\r\n\r\n    function rejectMeme(uint256 _memeId, uint256 _newDate) public {\r\n        memeContract.rejectMeme(_memeId, _newDate);\r\n    }\r\n\r\n    function updateMemeValue(uint256 _memeId, uint256 _newValue) public {\r\n        memeContract.setMemeValue(\r\n            _memeId,\r\n            memeContract.getMemeValue(_memeId).add(_newValue)\r\n        );\r\n        pepeCoinContract.transferPepeCoins(\r\n            msg.sender,\r\n            pepeCoinContract.getContractOwner(),\r\n            _newValue\r\n        );\r\n    }\r\n}\r\n",
  "sourcePath": "C:\\Users\\quentinkhoo\\Documents\\Year 4\\Sem 2\\IS4302\\cryptomeme\\contracts\\Memeketplace.sol",
  "compiler": {
    "name": "solc",
    "version": "0.5.16+commit.9c3226ce.Emscripten.clang"
  },
  "schemaVersion": "3.0.23",
  "updatedAt": "2020-04-11T21:24:27.845Z",
  "networkType": "ethereum",
  "devdoc": {
    "methods": {}
  },
  "userdoc": {
    "methods": {}
  }
}