{
  "contractName": "Meme",
  "abi": [
    {
      "inputs": [
        {
          "internalType": "contract User",
          "name": "_userContract",
          "type": "address"
        }
      ],
      "payable": false,
      "stateMutability": "nonpayable",
      "type": "constructor"
    },
    {
      "anonymous": false,
      "inputs": [
        {
          "indexed": true,
          "internalType": "address",
          "name": "owner",
          "type": "address"
        },
        {
          "indexed": true,
          "internalType": "address",
          "name": "approved",
          "type": "address"
        },
        {
          "indexed": true,
          "internalType": "uint256",
          "name": "tokenId",
          "type": "uint256"
        }
      ],
      "name": "Approval",
      "type": "event"
    },
    {
      "anonymous": false,
      "inputs": [
        {
          "indexed": true,
          "internalType": "address",
          "name": "owner",
          "type": "address"
        },
        {
          "indexed": true,
          "internalType": "address",
          "name": "operator",
          "type": "address"
        },
        {
          "indexed": false,
          "internalType": "bool",
          "name": "approved",
          "type": "bool"
        }
      ],
      "name": "ApprovalForAll",
      "type": "event"
    },
    {
      "anonymous": false,
      "inputs": [
        {
          "indexed": false,
          "internalType": "uint256",
          "name": "memeId",
          "type": "uint256"
        },
        {
          "indexed": false,
          "internalType": "uint256",
          "name": "memeDate",
          "type": "uint256"
        }
      ],
      "name": "MemeApproved",
      "type": "event"
    },
    {
      "anonymous": false,
      "inputs": [
        {
          "indexed": false,
          "internalType": "uint256",
          "name": "memeId",
          "type": "uint256"
        },
        {
          "indexed": false,
          "internalType": "uint256",
          "name": "memeDate",
          "type": "uint256"
        },
        {
          "indexed": false,
          "internalType": "string",
          "name": "memePath",
          "type": "string"
        },
        {
          "indexed": false,
          "internalType": "string",
          "name": "memeTitle",
          "type": "string"
        },
        {
          "indexed": false,
          "internalType": "string",
          "name": "memeDescription",
          "type": "string"
        }
      ],
      "name": "MemeCreated",
      "type": "event"
    },
    {
      "anonymous": false,
      "inputs": [
        {
          "indexed": false,
          "internalType": "uint256",
          "name": "memeId",
          "type": "uint256"
        },
        {
          "indexed": false,
          "internalType": "uint256",
          "name": "memeDate",
          "type": "uint256"
        }
      ],
      "name": "MemeDateChanged",
      "type": "event"
    },
    {
      "anonymous": false,
      "inputs": [
        {
          "indexed": false,
          "internalType": "uint256",
          "name": "memeId",
          "type": "uint256"
        },
        {
          "indexed": false,
          "internalType": "string",
          "name": "memeDescription",
          "type": "string"
        }
      ],
      "name": "MemeDescriptionChanged",
      "type": "event"
    },
    {
      "anonymous": false,
      "inputs": [
        {
          "indexed": false,
          "internalType": "uint256",
          "name": "memeId",
          "type": "uint256"
        },
        {
          "indexed": false,
          "internalType": "uint256",
          "name": "memeDislikes",
          "type": "uint256"
        }
      ],
      "name": "MemeDisliked",
      "type": "event"
    },
    {
      "anonymous": false,
      "inputs": [
        {
          "indexed": false,
          "internalType": "uint256",
          "name": "memeId",
          "type": "uint256"
        },
        {
          "indexed": false,
          "internalType": "uint256",
          "name": "memeFlags",
          "type": "uint256"
        }
      ],
      "name": "MemeFlagged",
      "type": "event"
    },
    {
      "anonymous": false,
      "inputs": [
        {
          "indexed": false,
          "internalType": "uint256",
          "name": "memeId",
          "type": "uint256"
        },
        {
          "indexed": false,
          "internalType": "uint256",
          "name": "memeLikes",
          "type": "uint256"
        }
      ],
      "name": "MemeLiked",
      "type": "event"
    },
    {
      "anonymous": false,
      "inputs": [
        {
          "indexed": false,
          "internalType": "uint256",
          "name": "memeId",
          "type": "uint256"
        },
        {
          "indexed": false,
          "internalType": "string",
          "name": "memePath",
          "type": "string"
        }
      ],
      "name": "MemePathChanged",
      "type": "event"
    },
    {
      "anonymous": false,
      "inputs": [
        {
          "indexed": false,
          "internalType": "uint256",
          "name": "memeId",
          "type": "uint256"
        },
        {
          "indexed": false,
          "internalType": "uint256",
          "name": "memeDate",
          "type": "uint256"
        }
      ],
      "name": "MemeRejected",
      "type": "event"
    },
    {
      "anonymous": false,
      "inputs": [
        {
          "indexed": false,
          "internalType": "uint256",
          "name": "memeId",
          "type": "uint256"
        },
        {
          "indexed": false,
          "internalType": "string",
          "name": "memeTitle",
          "type": "string"
        }
      ],
      "name": "MemeTitleChanged",
      "type": "event"
    },
    {
      "anonymous": false,
      "inputs": [
        {
          "indexed": false,
          "internalType": "uint256",
          "name": "memeId",
          "type": "uint256"
        },
        {
          "indexed": false,
          "internalType": "uint256",
          "name": "memeValue",
          "type": "uint256"
        }
      ],
      "name": "MemeValueChanged",
      "type": "event"
    },
    {
      "anonymous": false,
      "inputs": [
        {
          "indexed": true,
          "internalType": "address",
          "name": "from",
          "type": "address"
        },
        {
          "indexed": true,
          "internalType": "address",
          "name": "to",
          "type": "address"
        },
        {
          "indexed": true,
          "internalType": "uint256",
          "name": "tokenId",
          "type": "uint256"
        }
      ],
      "name": "Transfer",
      "type": "event"
    },
    {
      "constant": false,
      "inputs": [
        {
          "internalType": "address",
          "name": "to",
          "type": "address"
        },
        {
          "internalType": "uint256",
          "name": "tokenId",
          "type": "uint256"
        }
      ],
      "name": "approve",
      "outputs": [],
      "payable": false,
      "stateMutability": "nonpayable",
      "type": "function"
    },
    {
      "constant": true,
      "inputs": [
        {
          "internalType": "address",
          "name": "owner",
          "type": "address"
        }
      ],
      "name": "balanceOf",
      "outputs": [
        {
          "internalType": "uint256",
          "name": "",
          "type": "uint256"
        }
      ],
      "payable": false,
      "stateMutability": "view",
      "type": "function"
    },
    {
      "constant": true,
      "inputs": [
        {
          "internalType": "uint256",
          "name": "tokenId",
          "type": "uint256"
        }
      ],
      "name": "getApproved",
      "outputs": [
        {
          "internalType": "address",
          "name": "",
          "type": "address"
        }
      ],
      "payable": false,
      "stateMutability": "view",
      "type": "function"
    },
    {
      "constant": true,
      "inputs": [
        {
          "internalType": "address",
          "name": "owner",
          "type": "address"
        },
        {
          "internalType": "address",
          "name": "operator",
          "type": "address"
        }
      ],
      "name": "isApprovedForAll",
      "outputs": [
        {
          "internalType": "bool",
          "name": "",
          "type": "bool"
        }
      ],
      "payable": false,
      "stateMutability": "view",
      "type": "function"
    },
    {
      "constant": true,
      "inputs": [
        {
          "internalType": "uint256",
          "name": "",
          "type": "uint256"
        }
      ],
      "name": "memes",
      "outputs": [
        {
          "internalType": "address",
          "name": "memeOwner",
          "type": "address"
        },
        {
          "internalType": "uint256",
          "name": "memeId",
          "type": "uint256"
        },
        {
          "internalType": "uint256",
          "name": "memeLikes",
          "type": "uint256"
        },
        {
          "internalType": "uint256",
          "name": "memeDislikes",
          "type": "uint256"
        },
        {
          "internalType": "uint256",
          "name": "memeFlags",
          "type": "uint256"
        },
        {
          "internalType": "uint256",
          "name": "memeValue",
          "type": "uint256"
        },
        {
          "internalType": "uint256",
          "name": "memeDate",
          "type": "uint256"
        },
        {
          "internalType": "string",
          "name": "memePath",
          "type": "string"
        },
        {
          "internalType": "string",
          "name": "memeTitle",
          "type": "string"
        },
        {
          "internalType": "string",
          "name": "memeDescription",
          "type": "string"
        },
        {
          "internalType": "enum Meme.memeStates",
          "name": "memeState",
          "type": "uint8"
        }
      ],
      "payable": false,
      "stateMutability": "view",
      "type": "function"
    },
    {
      "constant": true,
      "inputs": [],
      "name": "numberOfMemes",
      "outputs": [
        {
          "internalType": "uint256",
          "name": "",
          "type": "uint256"
        }
      ],
      "payable": false,
      "stateMutability": "view",
      "type": "function"
    },
    {
      "constant": true,
      "inputs": [
        {
          "internalType": "uint256",
          "name": "tokenId",
          "type": "uint256"
        }
      ],
      "name": "ownerOf",
      "outputs": [
        {
          "internalType": "address",
          "name": "",
          "type": "address"
        }
      ],
      "payable": false,
      "stateMutability": "view",
      "type": "function"
    },
    {
      "constant": false,
      "inputs": [
        {
          "internalType": "address",
          "name": "from",
          "type": "address"
        },
        {
          "internalType": "address",
          "name": "to",
          "type": "address"
        },
        {
          "internalType": "uint256",
          "name": "tokenId",
          "type": "uint256"
        }
      ],
      "name": "safeTransferFrom",
      "outputs": [],
      "payable": false,
      "stateMutability": "nonpayable",
      "type": "function"
    },
    {
      "constant": false,
      "inputs": [
        {
          "internalType": "address",
          "name": "from",
          "type": "address"
        },
        {
          "internalType": "address",
          "name": "to",
          "type": "address"
        },
        {
          "internalType": "uint256",
          "name": "tokenId",
          "type": "uint256"
        },
        {
          "internalType": "bytes",
          "name": "_data",
          "type": "bytes"
        }
      ],
      "name": "safeTransferFrom",
      "outputs": [],
      "payable": false,
      "stateMutability": "nonpayable",
      "type": "function"
    },
    {
      "constant": false,
      "inputs": [
        {
          "internalType": "address",
          "name": "to",
          "type": "address"
        },
        {
          "internalType": "bool",
          "name": "approved",
          "type": "bool"
        }
      ],
      "name": "setApprovalForAll",
      "outputs": [],
      "payable": false,
      "stateMutability": "nonpayable",
      "type": "function"
    },
    {
      "constant": true,
      "inputs": [
        {
          "internalType": "bytes4",
          "name": "interfaceId",
          "type": "bytes4"
        }
      ],
      "name": "supportsInterface",
      "outputs": [
        {
          "internalType": "bool",
          "name": "",
          "type": "bool"
        }
      ],
      "payable": false,
      "stateMutability": "view",
      "type": "function"
    },
    {
      "constant": false,
      "inputs": [
        {
          "internalType": "address",
          "name": "from",
          "type": "address"
        },
        {
          "internalType": "address",
          "name": "to",
          "type": "address"
        },
        {
          "internalType": "uint256",
          "name": "tokenId",
          "type": "uint256"
        }
      ],
      "name": "transferFrom",
      "outputs": [],
      "payable": false,
      "stateMutability": "nonpayable",
      "type": "function"
    },
    {
      "constant": false,
      "inputs": [
        {
          "internalType": "address",
          "name": "_memeOwner",
          "type": "address"
        },
        {
          "internalType": "uint256",
          "name": "_memeDate",
          "type": "uint256"
        },
        {
          "internalType": "string",
          "name": "_memePath",
          "type": "string"
        },
        {
          "internalType": "string",
          "name": "_memeTitle",
          "type": "string"
        },
        {
          "internalType": "string",
          "name": "_memeDescription",
          "type": "string"
        },
        {
          "internalType": "uint256",
          "name": "_memeValue",
          "type": "uint256"
        }
      ],
      "name": "createMeme",
      "outputs": [
        {
          "internalType": "uint256",
          "name": "",
          "type": "uint256"
        }
      ],
      "payable": false,
      "stateMutability": "nonpayable",
      "type": "function"
    },
    {
      "constant": true,
      "inputs": [],
      "name": "getNumberMemes",
      "outputs": [
        {
          "internalType": "uint256",
          "name": "",
          "type": "uint256"
        }
      ],
      "payable": false,
      "stateMutability": "view",
      "type": "function"
    },
    {
      "constant": true,
      "inputs": [
        {
          "internalType": "uint256",
          "name": "_memeId",
          "type": "uint256"
        }
      ],
      "name": "getMemeOwner",
      "outputs": [
        {
          "internalType": "address",
          "name": "",
          "type": "address"
        }
      ],
      "payable": false,
      "stateMutability": "view",
      "type": "function"
    },
    {
      "constant": true,
      "inputs": [
        {
          "internalType": "uint256",
          "name": "_memeId",
          "type": "uint256"
        }
      ],
      "name": "getMemeLikes",
      "outputs": [
        {
          "internalType": "uint256",
          "name": "",
          "type": "uint256"
        }
      ],
      "payable": false,
      "stateMutability": "view",
      "type": "function"
    },
    {
      "constant": true,
      "inputs": [
        {
          "internalType": "uint256",
          "name": "_memeId",
          "type": "uint256"
        }
      ],
      "name": "getMemeDislikes",
      "outputs": [
        {
          "internalType": "uint256",
          "name": "",
          "type": "uint256"
        }
      ],
      "payable": false,
      "stateMutability": "view",
      "type": "function"
    },
    {
      "constant": true,
      "inputs": [
        {
          "internalType": "uint256",
          "name": "_memeId",
          "type": "uint256"
        }
      ],
      "name": "getMemeFlags",
      "outputs": [
        {
          "internalType": "uint256",
          "name": "",
          "type": "uint256"
        }
      ],
      "payable": false,
      "stateMutability": "view",
      "type": "function"
    },
    {
      "constant": true,
      "inputs": [
        {
          "internalType": "uint256",
          "name": "_memeId",
          "type": "uint256"
        }
      ],
      "name": "getMemeValue",
      "outputs": [
        {
          "internalType": "uint256",
          "name": "",
          "type": "uint256"
        }
      ],
      "payable": false,
      "stateMutability": "view",
      "type": "function"
    },
    {
      "constant": true,
      "inputs": [
        {
          "internalType": "uint256",
          "name": "_memeId",
          "type": "uint256"
        }
      ],
      "name": "getMemeState",
      "outputs": [
        {
          "internalType": "enum Meme.memeStates",
          "name": "",
          "type": "uint8"
        }
      ],
      "payable": false,
      "stateMutability": "view",
      "type": "function"
    },
    {
      "constant": true,
      "inputs": [
        {
          "internalType": "uint256",
          "name": "_memeId",
          "type": "uint256"
        }
      ],
      "name": "getMemeDate",
      "outputs": [
        {
          "internalType": "uint256",
          "name": "",
          "type": "uint256"
        }
      ],
      "payable": false,
      "stateMutability": "view",
      "type": "function"
    },
    {
      "constant": true,
      "inputs": [
        {
          "internalType": "uint256",
          "name": "_memeId",
          "type": "uint256"
        }
      ],
      "name": "getMemePath",
      "outputs": [
        {
          "internalType": "string",
          "name": "",
          "type": "string"
        }
      ],
      "payable": false,
      "stateMutability": "view",
      "type": "function"
    },
    {
      "constant": true,
      "inputs": [
        {
          "internalType": "uint256",
          "name": "_memeId",
          "type": "uint256"
        }
      ],
      "name": "getMemeTitle",
      "outputs": [
        {
          "internalType": "string",
          "name": "",
          "type": "string"
        }
      ],
      "payable": false,
      "stateMutability": "view",
      "type": "function"
    },
    {
      "constant": true,
      "inputs": [
        {
          "internalType": "uint256",
          "name": "_memeId",
          "type": "uint256"
        }
      ],
      "name": "getMemeDescription",
      "outputs": [
        {
          "internalType": "string",
          "name": "",
          "type": "string"
        }
      ],
      "payable": false,
      "stateMutability": "view",
      "type": "function"
    },
    {
      "constant": false,
      "inputs": [
        {
          "internalType": "uint256",
          "name": "_memeId",
          "type": "uint256"
        },
        {
          "internalType": "uint256",
          "name": "_memeLikes",
          "type": "uint256"
        }
      ],
      "name": "setMemeLikes",
      "outputs": [],
      "payable": false,
      "stateMutability": "nonpayable",
      "type": "function"
    },
    {
      "constant": false,
      "inputs": [
        {
          "internalType": "uint256",
          "name": "_memeId",
          "type": "uint256"
        },
        {
          "internalType": "uint256",
          "name": "_memeDislikes",
          "type": "uint256"
        }
      ],
      "name": "setMemeDislikes",
      "outputs": [],
      "payable": false,
      "stateMutability": "nonpayable",
      "type": "function"
    },
    {
      "constant": false,
      "inputs": [
        {
          "internalType": "uint256",
          "name": "_memeId",
          "type": "uint256"
        },
        {
          "internalType": "uint256",
          "name": "_memeFlags",
          "type": "uint256"
        }
      ],
      "name": "setMemeFlags",
      "outputs": [],
      "payable": false,
      "stateMutability": "nonpayable",
      "type": "function"
    },
    {
      "constant": false,
      "inputs": [
        {
          "internalType": "uint256",
          "name": "_memeId",
          "type": "uint256"
        },
        {
          "internalType": "uint256",
          "name": "_memeValue",
          "type": "uint256"
        }
      ],
      "name": "setMemeValue",
      "outputs": [],
      "payable": false,
      "stateMutability": "nonpayable",
      "type": "function"
    },
    {
      "constant": false,
      "inputs": [
        {
          "internalType": "uint256",
          "name": "_memeId",
          "type": "uint256"
        },
        {
          "internalType": "uint256",
          "name": "_newDate",
          "type": "uint256"
        }
      ],
      "name": "approveMeme",
      "outputs": [],
      "payable": false,
      "stateMutability": "nonpayable",
      "type": "function"
    },
    {
      "constant": false,
      "inputs": [
        {
          "internalType": "uint256",
          "name": "_memeId",
          "type": "uint256"
        },
        {
          "internalType": "uint256",
          "name": "_newDate",
          "type": "uint256"
        }
      ],
      "name": "rejectMeme",
      "outputs": [],
      "payable": false,
      "stateMutability": "nonpayable",
      "type": "function"
    },
    {
      "constant": false,
      "inputs": [
        {
          "internalType": "uint256",
          "name": "_memeId",
          "type": "uint256"
        },
        {
          "internalType": "uint256",
          "name": "_memeDate",
          "type": "uint256"
        }
      ],
      "name": "setMemeDate",
      "outputs": [],
      "payable": false,
      "stateMutability": "nonpayable",
      "type": "function"
    },
    {
      "constant": false,
      "inputs": [
        {
          "internalType": "uint256",
          "name": "_memeId",
          "type": "uint256"
        },
        {
          "internalType": "string",
          "name": "_memePath",
          "type": "string"
        }
      ],
      "name": "setMemePath",
      "outputs": [],
      "payable": false,
      "stateMutability": "nonpayable",
      "type": "function"
    },
    {
      "constant": false,
      "inputs": [
        {
          "internalType": "uint256",
          "name": "_memeId",
          "type": "uint256"
        },
        {
          "internalType": "string",
          "name": "_memeTitle",
          "type": "string"
        }
      ],
      "name": "setMemeTitle",
      "outputs": [],
      "payable": false,
      "stateMutability": "nonpayable",
      "type": "function"
    },
    {
      "constant": false,
      "inputs": [
        {
          "internalType": "uint256",
          "name": "_memeId",
          "type": "uint256"
        },
        {
          "internalType": "string",
          "name": "_memeDescription",
          "type": "string"
        }
      ],
      "name": "setMemeDescription",
      "outputs": [],
      "payable": false,
      "stateMutability": "nonpayable",
      "type": "function"
    }
  ],
  "bytecode": "0x608060405233600560006101000a81548173ffffffffffffffffffffffffffffffffffffffff021916908373ffffffffffffffffffffffffffffffffffffffff16021790555060006007553480156200005757600080fd5b5060405162004a0838038062004a08833981810160405260208110156200007d57600080fd5b8101908080519060200190929190505050620000a66301ffc9a760e01b6200010660201b60201c565b620000be6380ac58cd60e01b6200010660201b60201c565b80600660006101000a81548173ffffffffffffffffffffffffffffffffffffffff021916908373ffffffffffffffffffffffffffffffffffffffff160217905550506200020f565b63ffffffff60e01b817bffffffffffffffffffffffffffffffffffffffffffffffffffffffff19161415620001a3576040517f08c379a000000000000000000000000000000000000000000000000000000000815260040180806020018281038252601c8152602001807f4552433136353a20696e76616c696420696e746572666163652069640000000081525060200191505060405180910390fd5b6001600080837bffffffffffffffffffffffffffffffffffffffffffffffffffffffff19167bffffffffffffffffffffffffffffffffffffffffffffffffffffffff1916815260200190815260200160002060006101000a81548160ff02191690831515021790555050565b6147e9806200021f6000396000f3fe608060405234801561001057600080fd5b50600436106102065760003560e01c80637eda8c041161011a578063b88d4fde116100ad578063e3132ee21161007c578063e3132ee21461110c578063e985e9c5146111b3578063ecf57b9a1461122f578063f251dcb51461124d578063f331a5481461128f57610206565b8063b88d4fde14610f5f578063caa07b9014611064578063db3106b11461109c578063e1b64e79146110d457610206565b8063a22cb465116100e9578063a22cb46514610e45578063a5b503d114610e95578063b39a6e8c14610ee5578063b7c0d88d14610f2757610206565b80637eda8c0414610c415780637f4cb8a914610c835780638256cdd014610d4857806390e5abb414610e0d57610206565b806329f54c151161019d5780634a9c9b641161016c5780634a9c9b6414610ab7578063529a80fb14610ad55780636352211e14610b435780636f6986b414610bb157806370a0823114610be957610206565b806329f54c15146107515780632f6ee4ea14610793578063388f60641461085857806342842e0e14610a4957610206565b806319254ad3116101d957806319254ad31461055d5780631eea7b5f1461059557806323b872dd1461063c57806324df82b3146106aa57610206565b806301ffc9a71461020b578063081812fc14610270578063095ea7b3146102de57806314f7ab111461032c575b600080fd5b6102566004803603602081101561022157600080fd5b8101908080357bffffffffffffffffffffffffffffffffffffffffffffffffffffffff191690602001909291905050506112d1565b604051808215151515815260200191505060405180910390f35b61029c6004803603602081101561028657600080fd5b8101908080359060200190929190505050611338565b604051808273ffffffffffffffffffffffffffffffffffffffff1673ffffffffffffffffffffffffffffffffffffffff16815260200191505060405180910390f35b61032a600480360360408110156102f457600080fd5b81019080803573ffffffffffffffffffffffffffffffffffffffff169060200190929190803590602001909291905050506113d3565b005b610547600480360360c081101561034257600080fd5b81019080803573ffffffffffffffffffffffffffffffffffffffff169060200190929190803590602001909291908035906020019064010000000081111561038957600080fd5b82018360208201111561039b57600080fd5b803590602001918460018302840111640100000000831117156103bd57600080fd5b91908080601f016020809104026020016040519081016040528093929190818152602001838380828437600081840152601f19601f8201169050808301925050505050505091929192908035906020019064010000000081111561042057600080fd5b82018360208201111561043257600080fd5b8035906020019184600183028401116401000000008311171561045457600080fd5b91908080601f016020809104026020016040519081016040528093929190818152602001838380828437600081840152601f19601f820116905080830192505050505050509192919290803590602001906401000000008111156104b757600080fd5b8201836020820111156104c957600080fd5b803590602001918460018302840111640100000000831117156104eb57600080fd5b91908080601f016020809104026020016040519081016040528093929190818152602001838380828437600081840152601f19601f820116905080830192505050505050509192919290803590602001909291905050506115ba565b6040518082815260200191505060405180910390f35b6105936004803603604081101561057357600080fd5b810190808035906020019092919080359060200190929190505050611940565b005b6105c1600480360360208110156105ab57600080fd5b8101908080359060200190929190505050611b13565b6040518080602001828103825283818151815260200191508051906020019080838360005b838110156106015780820151818401526020810190506105e6565b50505050905090810190601f16801561062e5780820380516001836020036101000a031916815260200191505b509250505060405180910390f35b6106a86004803603606081101561065257600080fd5b81019080803573ffffffffffffffffffffffffffffffffffffffff169060200190929190803573ffffffffffffffffffffffffffffffffffffffff16906020019092919080359060200190929190505050611bd3565b005b6106d6600480360360208110156106c057600080fd5b8101908080359060200190929190505050611c49565b6040518080602001828103825283818151815260200191508051906020019080838360005b838110156107165780820151818401526020810190506106fb565b50505050905090810190601f1680156107435780820380516001836020036101000a031916815260200191505b509250505060405180910390f35b61077d6004803603602081101561076757600080fd5b8101908080359060200190929190505050611d09565b6040518082815260200191505060405180910390f35b610856600480360360408110156107a957600080fd5b8101908080359060200190929190803590602001906401000000008111156107d057600080fd5b8201836020820111156107e257600080fd5b8035906020019184600183028401116401000000008311171561080457600080fd5b91908080601f016020809104026020016040519081016040528093929190818152602001838380828437600081840152601f19601f820116905080830192505050505050509192919290505050611d31565b005b6108846004803603602081101561086e57600080fd5b8101908080359060200190929190505050611e9a565b604051808c73ffffffffffffffffffffffffffffffffffffffff1673ffffffffffffffffffffffffffffffffffffffff1681526020018b81526020018a81526020018981526020018881526020018781526020018681526020018060200180602001806020018560028111156108f657fe5b60ff168152602001848103845288818151815260200191508051906020019080838360005b8381101561093657808201518184015260208101905061091b565b50505050905090810190601f1680156109635780820380516001836020036101000a031916815260200191505b50848103835287818151815260200191508051906020019080838360005b8381101561099c578082015181840152602081019050610981565b50505050905090810190601f1680156109c95780820380516001836020036101000a031916815260200191505b50848103825286818151815260200191508051906020019080838360005b83811015610a025780820151818401526020810190506109e7565b50505050905090810190601f168015610a2f5780820380516001836020036101000a031916815260200191505b509e50505050505050505050505050505060405180910390f35b610ab560048036036060811015610a5f57600080fd5b81019080803573ffffffffffffffffffffffffffffffffffffffff169060200190929190803573ffffffffffffffffffffffffffffffffffffffff169060200190929190803590602001909291905050506120f6565b005b610abf612116565b6040518082815260200191505060405180910390f35b610b0160048036036020811015610aeb57600080fd5b8101908080359060200190929190505050612120565b604051808273ffffffffffffffffffffffffffffffffffffffff1673ffffffffffffffffffffffffffffffffffffffff16815260200191505060405180910390f35b610b6f60048036036020811015610b5957600080fd5b8101908080359060200190929190505050612168565b604051808273ffffffffffffffffffffffffffffffffffffffff1673ffffffffffffffffffffffffffffffffffffffff16815260200191505060405180910390f35b610be760048036036040811015610bc757600080fd5b810190808035906020019092919080359060200190929190505050612230565b005b610c2b60048036036020811015610bff57600080fd5b81019080803573ffffffffffffffffffffffffffffffffffffffff169060200190929190505050612503565b6040518082815260200191505060405180910390f35b610c6d60048036036020811015610c5757600080fd5b81019080803590602001909291905050506125d8565b6040518082815260200191505060405180910390f35b610d4660048036036040811015610c9957600080fd5b810190808035906020019092919080359060200190640100000000811115610cc057600080fd5b820183602082011115610cd257600080fd5b80359060200191846001830284011164010000000083111715610cf457600080fd5b91908080601f016020809104026020016040519081016040528093929190818152602001838380828437600081840152601f19601f820116905080830192505050505050509192919290505050612600565b005b610e0b60048036036040811015610d5e57600080fd5b810190808035906020019092919080359060200190640100000000811115610d8557600080fd5b820183602082011115610d9757600080fd5b80359060200191846001830284011164010000000083111715610db957600080fd5b91908080601f016020809104026020016040519081016040528093929190818152602001838380828437600081840152601f19601f820116905080830192505050505050509192919290505050612769565b005b610e4360048036036040811015610e2357600080fd5b8101908080359060200190929190803590602001909291905050506128d2565b005b610e9360048036036040811015610e5b57600080fd5b81019080803573ffffffffffffffffffffffffffffffffffffffff169060200190929190803515159060200190929190505050612b65565b005b610ec160048036036020811015610eab57600080fd5b8101908080359060200190929190505050612d1d565b60405180826002811115610ed157fe5b60ff16815260200191505060405180910390f35b610f1160048036036020811015610efb57600080fd5b8101908080359060200190929190505050612d52565b6040518082815260200191505060405180910390f35b610f5d60048036036040811015610f3d57600080fd5b810190808035906020019092919080359060200190929190505050612d7a565b005b61106260048036036080811015610f7557600080fd5b81019080803573ffffffffffffffffffffffffffffffffffffffff169060200190929190803573ffffffffffffffffffffffffffffffffffffffff1690602001909291908035906020019092919080359060200190640100000000811115610fdc57600080fd5b820183602082011115610fee57600080fd5b8035906020019184600183028401116401000000008311171561101057600080fd5b91908080601f016020809104026020016040519081016040528093929190818152602001838380828437600081840152601f19601f820116905080830192505050505050509192919290505050612f6c565b005b61109a6004803603604081101561107a57600080fd5b810190808035906020019092919080359060200190929190505050612fe4565b005b6110d2600480360360408110156110b257600080fd5b810190808035906020019092919080359060200190929190505050613277565b005b61110a600480360360408110156110ea57600080fd5b81019080803590602001909291908035906020019092919050505061336b565b005b6111386004803603602081101561112257600080fd5b81019080803590602001909291905050506135fe565b6040518080602001828103825283818151815260200191508051906020019080838360005b8381101561117857808201518184015260208101905061115d565b50505050905090810190601f1680156111a55780820380516001836020036101000a031916815260200191505b509250505060405180910390f35b611215600480360360408110156111c957600080fd5b81019080803573ffffffffffffffffffffffffffffffffffffffff169060200190929190803573ffffffffffffffffffffffffffffffffffffffff1690602001909291905050506136be565b604051808215151515815260200191505060405180910390f35b611237613752565b6040518082815260200191505060405180910390f35b6112796004803603602081101561126357600080fd5b8101908080359060200190929190505050613758565b6040518082815260200191505060405180910390f35b6112bb600480360360208110156112a557600080fd5b8101908080359060200190929190505050613780565b6040518082815260200191505060405180910390f35b6000806000837bffffffffffffffffffffffffffffffffffffffffffffffffffffffff19167bffffffffffffffffffffffffffffffffffffffffffffffffffffffff1916815260200190815260200160002060009054906101000a900460ff169050919050565b6000611343826137a8565b611398576040517f08c379a000000000000000000000000000000000000000000000000000000000815260040180806020018281038252602c8152602001806146ed602c913960400191505060405180910390fd5b6002600083815260200190815260200160002060009054906101000a900473ffffffffffffffffffffffffffffffffffffffff169050919050565b60006113de82612168565b90508073ffffffffffffffffffffffffffffffffffffffff168373ffffffffffffffffffffffffffffffffffffffff161415611465576040517f08c379a00000000000000000000000000000000000000000000000000000000081526004018080602001828103825260218152602001806147636021913960400191505060405180910390fd5b8073ffffffffffffffffffffffffffffffffffffffff1661148461381a565b73ffffffffffffffffffffffffffffffffffffffff1614806114b357506114b2816114ad61381a565b6136be565b5b611508576040517f08c379a000000000000000000000000000000000000000000000000000000000815260040180806020018281038252603881526020018061463c6038913960400191505060405180910390fd5b826002600084815260200190815260200160002060006101000a81548173ffffffffffffffffffffffffffffffffffffffff021916908373ffffffffffffffffffffffffffffffffffffffff160217905550818373ffffffffffffffffffffffffffffffffffffffff168273ffffffffffffffffffffffffffffffffffffffff167f8c5be1e5ebec7d5bd14f71427d1e84f3dd0314c0f7b2291e5b200ac8c7c3b92560405160405180910390a4505050565b60006115c4614419565b6040518061016001604052808973ffffffffffffffffffffffffffffffffffffffff168152602001600754815260200160008152602001600081526020016000815260200184815260200188815260200187815260200186815260200185815260200160028081111561163357fe5b8152509050600061178360016008849080600181540180825580915050906001820390600052602060002090600b02016000909192909190915060008201518160000160006101000a81548173ffffffffffffffffffffffffffffffffffffffff021916908373ffffffffffffffffffffffffffffffffffffffff1602179055506020820151816001015560408201518160020155606082015181600301556080820151816004015560a0820151816005015560c0820151816006015560e082015181600701908051906020019061170c929190614494565b5061010082015181600801908051906020019061172a929190614494565b50610120820151816009019080519060200190611748929190614494565b5061014082015181600a0160006101000a81548160ff0219169083600281111561176e57fe5b0217905550505061382290919063ffffffff16565b905061178f898261386c565b6117a56001600754613a8490919063ffffffff16565b6007819055507fd25b8d330a460011c7bec6959e8e357913180d3903b2e306e58f02a9d626ffa1818989898960405180868152602001858152602001806020018060200180602001848103845287818151815260200191508051906020019080838360005b8381101561182557808201518184015260208101905061180a565b50505050905090810190601f1680156118525780820380516001836020036101000a031916815260200191505b50848103835286818151815260200191508051906020019080838360005b8381101561188b578082015181840152602081019050611870565b50505050905090810190601f1680156118b85780820380516001836020036101000a031916815260200191505b50848103825285818151815260200191508051906020019080838360005b838110156118f15780820151818401526020810190506118d6565b50505050905090810190601f16801561191e5780820380516001836020036101000a031916815260200191505b509850505050505050505060405180910390a180925050509695505050505050565b3273ffffffffffffffffffffffffffffffffffffffff1661196083612120565b73ffffffffffffffffffffffffffffffffffffffff161480611a585750600660009054906101000a900473ffffffffffffffffffffffffffffffffffffffff1673ffffffffffffffffffffffffffffffffffffffff16639f360151326040518263ffffffff1660e01b8152600401808273ffffffffffffffffffffffffffffffffffffffff1673ffffffffffffffffffffffffffffffffffffffff16815260200191505060206040518083038186803b158015611a1c57600080fd5b505afa158015611a30573d6000803e3d6000fd5b505050506040513d6020811015611a4657600080fd5b81019080805190602001909291905050505b611aad576040517f08c379a00000000000000000000000000000000000000000000000000000000081526004018080602001828103825260268152602001806146c76026913960400191505060405180910390fd5b8060088381548110611abb57fe5b90600052602060002090600b0201600601819055507ff05d06dbe2b68077a33f5c478afcfaffbc3f33c20c7214df3e9d1ff049dba8ce8282604051808381526020018281526020019250505060405180910390a15050565b606060088281548110611b2257fe5b90600052602060002090600b02016007018054600181600116156101000203166002900480601f016020809104026020016040519081016040528092919081815260200182805460018160011615610100020316600290048015611bc75780601f10611b9c57610100808354040283529160200191611bc7565b820191906000526020600020905b815481529060010190602001808311611baa57829003601f168201915b50505050509050919050565b611be4611bde61381a565b82613b0c565b611c39576040517f08c379a00000000000000000000000000000000000000000000000000000000081526004018080602001828103825260318152602001806147846031913960400191505060405180910390fd5b611c44838383613c00565b505050565b606060088281548110611c5857fe5b90600052602060002090600b02016009018054600181600116156101000203166002900480601f016020809104026020016040519081016040528092919081815260200182805460018160011615610100020316600290048015611cfd5780601f10611cd257610100808354040283529160200191611cfd565b820191906000526020600020905b815481529060010190602001808311611ce057829003601f168201915b50505050509050919050565b600060088281548110611d1857fe5b90600052602060002090600b0201600601549050919050565b813273ffffffffffffffffffffffffffffffffffffffff16611d5282612120565b73ffffffffffffffffffffffffffffffffffffffff1614611dbe576040517f08c379a00000000000000000000000000000000000000000000000000000000081526004018080602001828103825260218152602001806147196021913960400191505060405180910390fd5b8160088481548110611dcc57fe5b90600052602060002090600b02016009019080519060200190611df0929190614514565b507f39fe17132d93deb6c1a222fa0e62250be8db081415bf7b22d0c96eca64aba24383836040518083815260200180602001828103825283818151815260200191508051906020019080838360005b83811015611e5a578082015181840152602081019050611e3f565b50505050905090810190601f168015611e875780820380516001836020036101000a031916815260200191505b50935050505060405180910390a1505050565b60088181548110611ea757fe5b90600052602060002090600b02016000915090508060000160009054906101000a900473ffffffffffffffffffffffffffffffffffffffff1690806001015490806002015490806003015490806004015490806005015490806006015490806007018054600181600116156101000203166002900480601f016020809104026020016040519081016040528092919081815260200182805460018160011615610100020316600290048015611f9d5780601f10611f7257610100808354040283529160200191611f9d565b820191906000526020600020905b815481529060010190602001808311611f8057829003601f168201915b505050505090806008018054600181600116156101000203166002900480601f01602080910402602001604051908101604052809291908181526020018280546001816001161561010002031660029004801561203b5780601f106120105761010080835404028352916020019161203b565b820191906000526020600020905b81548152906001019060200180831161201e57829003601f168201915b505050505090806009018054600181600116156101000203166002900480601f0160208091040260200160405190810160405280929190818152602001828054600181600116156101000203166002900480156120d95780601f106120ae576101008083540402835291602001916120d9565b820191906000526020600020905b8154815290600101906020018083116120bc57829003601f168201915b50505050509080600a0160009054906101000a900460ff1690508b565b61211183838360405180602001604052806000815250612f6c565b505050565b6000600754905090565b60006008828154811061212f57fe5b90600052602060002090600b020160000160009054906101000a900473ffffffffffffffffffffffffffffffffffffffff169050919050565b6000806001600084815260200190815260200160002060009054906101000a900473ffffffffffffffffffffffffffffffffffffffff169050600073ffffffffffffffffffffffffffffffffffffffff168173ffffffffffffffffffffffffffffffffffffffff161415612227576040517f08c379a000000000000000000000000000000000000000000000000000000000815260040180806020018281038252602981526020018061469e6029913960400191505060405180910390fd5b80915050919050565b600660009054906101000a900473ffffffffffffffffffffffffffffffffffffffff1673ffffffffffffffffffffffffffffffffffffffff16631d3345f2326040518263ffffffff1660e01b8152600401808273ffffffffffffffffffffffffffffffffffffffff1673ffffffffffffffffffffffffffffffffffffffff16815260200191505060206040518083038186803b1580156122cf57600080fd5b505afa1580156122e3573d6000803e3d6000fd5b505050506040513d60208110156122f957600080fd5b8101908080519060200190929190505050806123eb5750600660009054906101000a900473ffffffffffffffffffffffffffffffffffffffff1673ffffffffffffffffffffffffffffffffffffffff16639f360151326040518263ffffffff1660e01b8152600401808273ffffffffffffffffffffffffffffffffffffffff1673ffffffffffffffffffffffffffffffffffffffff16815260200191505060206040518083038186803b1580156123af57600080fd5b505afa1580156123c3573d6000803e3d6000fd5b505050506040513d60208110156123d957600080fd5b81019080805190602001909291905050505b61245d576040517f08c379a000000000000000000000000000000000000000000000000000000000815260040180806020018281038252601a8152602001807f596f75206d75737420626520616e20616374697665207573657200000000000081525060200191505060405180910390fd5b60016008838154811061246c57fe5b90600052602060002090600b0201600a0160006101000a81548160ff0219169083600281111561249857fe5b021790555080600883815481106124ab57fe5b90600052602060002090600b0201600601819055507f869eec6f1785bdf3fea295e0f0866b782fb0d3d8b98000b3baab78596bfe22908282604051808381526020018281526020019250505060405180910390a15050565b60008073ffffffffffffffffffffffffffffffffffffffff168273ffffffffffffffffffffffffffffffffffffffff16141561258a576040517f08c379a000000000000000000000000000000000000000000000000000000000815260040180806020018281038252602a815260200180614674602a913960400191505060405180910390fd5b6125d1600360008473ffffffffffffffffffffffffffffffffffffffff1673ffffffffffffffffffffffffffffffffffffffff168152602001908152602001600020613e5b565b9050919050565b6000600882815481106125e757fe5b90600052602060002090600b0201600201549050919050565b813273ffffffffffffffffffffffffffffffffffffffff1661262182612120565b73ffffffffffffffffffffffffffffffffffffffff161461268d576040517f08c379a00000000000000000000000000000000000000000000000000000000081526004018080602001828103825260218152602001806147196021913960400191505060405180910390fd5b816008848154811061269b57fe5b90600052602060002090600b020160080190805190602001906126bf929190614514565b507fdce525e529bbc6317cd60d3777deeb79b3cb2bf408f12b5d9717a03d843837fe83836040518083815260200180602001828103825283818151815260200191508051906020019080838360005b8381101561272957808201518184015260208101905061270e565b50505050905090810190601f1680156127565780820380516001836020036101000a031916815260200191505b50935050505060405180910390a1505050565b813273ffffffffffffffffffffffffffffffffffffffff1661278a82612120565b73ffffffffffffffffffffffffffffffffffffffff16146127f6576040517f08c379a00000000000000000000000000000000000000000000000000000000081526004018080602001828103825260218152602001806147196021913960400191505060405180910390fd5b816008848154811061280457fe5b90600052602060002090600b02016007019080519060200190612828929190614514565b507f04454811e7fa0b2ef21eda132059d90e580b7a64ba3d811b054a6855ec5c6c3783836040518083815260200180602001828103825283818151815260200191508051906020019080838360005b83811015612892578082015181840152602081019050612877565b50505050905090810190601f1680156128bf5780820380516001836020036101000a031916815260200191505b50935050505060405180910390a1505050565b600660009054906101000a900473ffffffffffffffffffffffffffffffffffffffff1673ffffffffffffffffffffffffffffffffffffffff16631d3345f2326040518263ffffffff1660e01b8152600401808273ffffffffffffffffffffffffffffffffffffffff1673ffffffffffffffffffffffffffffffffffffffff16815260200191505060206040518083038186803b15801561297157600080fd5b505afa158015612985573d6000803e3d6000fd5b505050506040513d602081101561299b57600080fd5b810190808051906020019092919050505080612a8d5750600660009054906101000a900473ffffffffffffffffffffffffffffffffffffffff1673ffffffffffffffffffffffffffffffffffffffff16639f360151326040518263ffffffff1660e01b8152600401808273ffffffffffffffffffffffffffffffffffffffff1673ffffffffffffffffffffffffffffffffffffffff16815260200191505060206040518083038186803b158015612a5157600080fd5b505afa158015612a65573d6000803e3d6000fd5b505050506040513d6020811015612a7b57600080fd5b81019080805190602001909291905050505b612aff576040517f08c379a000000000000000000000000000000000000000000000000000000000815260040180806020018281038252601a8152602001807f596f75206d75737420626520616e20616374697665207573657200000000000081525060200191505060405180910390fd5b8060088381548110612b0d57fe5b90600052602060002090600b0201600201819055507fdd0f81ca2d716958a9698cf1c9eb782619d3d43d599706f7e3de7f357f695d698282604051808381526020018281526020019250505060405180910390a15050565b612b6d61381a565b73ffffffffffffffffffffffffffffffffffffffff168273ffffffffffffffffffffffffffffffffffffffff161415612c0e576040517f08c379a00000000000000000000000000000000000000000000000000000000081526004018080602001828103825260198152602001807f4552433732313a20617070726f766520746f2063616c6c65720000000000000081525060200191505060405180910390fd5b8060046000612c1b61381a565b73ffffffffffffffffffffffffffffffffffffffff1673ffffffffffffffffffffffffffffffffffffffff16815260200190815260200160002060008473ffffffffffffffffffffffffffffffffffffffff1673ffffffffffffffffffffffffffffffffffffffff16815260200190815260200160002060006101000a81548160ff0219169083151502179055508173ffffffffffffffffffffffffffffffffffffffff16612cc861381a565b73ffffffffffffffffffffffffffffffffffffffff167f17307eab39ab6107e8899845ad3d59bd9653f200f220920489ca2b5937696c3183604051808215151515815260200191505060405180910390a35050565b600060088281548110612d2c57fe5b90600052602060002090600b0201600a0160009054906101000a900460ff169050919050565b600060088281548110612d6157fe5b90600052602060002090600b0201600401549050919050565b600660009054906101000a900473ffffffffffffffffffffffffffffffffffffffff1673ffffffffffffffffffffffffffffffffffffffff16639f360151326040518263ffffffff1660e01b8152600401808273ffffffffffffffffffffffffffffffffffffffff1673ffffffffffffffffffffffffffffffffffffffff16815260200191505060206040518083038186803b158015612e1957600080fd5b505afa158015612e2d573d6000803e3d6000fd5b505050506040513d6020811015612e4357600080fd5b8101908080519060200190929190505050612ec6576040517f08c379a00000000000000000000000000000000000000000000000000000000081526004018080602001828103825260198152602001807f596f75206d75737420626520616e2061646d696e20757365720000000000000081525060200191505060405180910390fd5b600060088381548110612ed557fe5b90600052602060002090600b0201600a0160006101000a81548160ff02191690836002811115612f0157fe5b02179055508060088381548110612f1457fe5b90600052602060002090600b0201600601819055507f9fbdac5ef81b90c2a72fb11cfd843ec4420a1e4e2f4dfcd3fa74642000c657468282604051808381526020018281526020019250505060405180910390a15050565b612f7d612f7761381a565b83613b0c565b612fd2576040517f08c379a00000000000000000000000000000000000000000000000000000000081526004018080602001828103825260318152602001806147846031913960400191505060405180910390fd5b612fde84848484613e69565b50505050565b600660009054906101000a900473ffffffffffffffffffffffffffffffffffffffff1673ffffffffffffffffffffffffffffffffffffffff16631d3345f2326040518263ffffffff1660e01b8152600401808273ffffffffffffffffffffffffffffffffffffffff1673ffffffffffffffffffffffffffffffffffffffff16815260200191505060206040518083038186803b15801561308357600080fd5b505afa158015613097573d6000803e3d6000fd5b505050506040513d60208110156130ad57600080fd5b81019080805190602001909291905050508061319f5750600660009054906101000a900473ffffffffffffffffffffffffffffffffffffffff1673ffffffffffffffffffffffffffffffffffffffff16639f360151326040518263ffffffff1660e01b8152600401808273ffffffffffffffffffffffffffffffffffffffff1673ffffffffffffffffffffffffffffffffffffffff16815260200191505060206040518083038186803b15801561316357600080fd5b505afa158015613177573d6000803e3d6000fd5b505050506040513d602081101561318d57600080fd5b81019080805190602001909291905050505b613211576040517f08c379a000000000000000000000000000000000000000000000000000000000815260040180806020018281038252601a8152602001807f596f75206d75737420626520616e20616374697665207573657200000000000081525060200191505060405180910390fd5b806008838154811061321f57fe5b90600052602060002090600b0201600301819055507fc6e754c2c99d7cfe2cbf8d103a20e0b16fe9a66d3762a8f880f1e129c9cd62bc8282604051808381526020018281526020019250505060405180910390a15050565b813273ffffffffffffffffffffffffffffffffffffffff1661329882612120565b73ffffffffffffffffffffffffffffffffffffffff1614613304576040517f08c379a00000000000000000000000000000000000000000000000000000000081526004018080602001828103825260218152602001806147196021913960400191505060405180910390fd5b816008848154811061331257fe5b90600052602060002090600b0201600501819055507f12d8cc2034cab909bf835f2e124343a155b463f996050d6f9eeb545b7fb4ea318383604051808381526020018281526020019250505060405180910390a1505050565b600660009054906101000a900473ffffffffffffffffffffffffffffffffffffffff1673ffffffffffffffffffffffffffffffffffffffff16631d3345f2326040518263ffffffff1660e01b8152600401808273ffffffffffffffffffffffffffffffffffffffff1673ffffffffffffffffffffffffffffffffffffffff16815260200191505060206040518083038186803b15801561340a57600080fd5b505afa15801561341e573d6000803e3d6000fd5b505050506040513d602081101561343457600080fd5b8101908080519060200190929190505050806135265750600660009054906101000a900473ffffffffffffffffffffffffffffffffffffffff1673ffffffffffffffffffffffffffffffffffffffff16639f360151326040518263ffffffff1660e01b8152600401808273ffffffffffffffffffffffffffffffffffffffff1673ffffffffffffffffffffffffffffffffffffffff16815260200191505060206040518083038186803b1580156134ea57600080fd5b505afa1580156134fe573d6000803e3d6000fd5b505050506040513d602081101561351457600080fd5b81019080805190602001909291905050505b613598576040517f08c379a000000000000000000000000000000000000000000000000000000000815260040180806020018281038252601a8152602001807f596f75206d75737420626520616e20616374697665207573657200000000000081525060200191505060405180910390fd5b80600883815481106135a657fe5b90600052602060002090600b0201600401819055507ffda24b2cb361fa205553f9682a1c0620202938b8931d995b33f4e51c136cbdac8282604051808381526020018281526020019250505060405180910390a15050565b60606008828154811061360d57fe5b90600052602060002090600b02016008018054600181600116156101000203166002900480601f0160208091040260200160405190810160405280929190818152602001828054600181600116156101000203166002900480156136b25780601f10613687576101008083540402835291602001916136b2565b820191906000526020600020905b81548152906001019060200180831161369557829003601f168201915b50505050509050919050565b6000600460008473ffffffffffffffffffffffffffffffffffffffff1673ffffffffffffffffffffffffffffffffffffffff16815260200190815260200160002060008373ffffffffffffffffffffffffffffffffffffffff1673ffffffffffffffffffffffffffffffffffffffff16815260200190815260200160002060009054906101000a900460ff16905092915050565b60075481565b60006008828154811061376757fe5b90600052602060002090600b0201600501549050919050565b60006008828154811061378f57fe5b90600052602060002090600b0201600301549050919050565b6000806001600084815260200190815260200160002060009054906101000a900473ffffffffffffffffffffffffffffffffffffffff169050600073ffffffffffffffffffffffffffffffffffffffff168173ffffffffffffffffffffffffffffffffffffffff161415915050919050565b600033905090565b600061386483836040518060400160405280601e81526020017f536166654d6174683a207375627472616374696f6e206f766572666c6f770000815250613edb565b905092915050565b600073ffffffffffffffffffffffffffffffffffffffff168273ffffffffffffffffffffffffffffffffffffffff16141561390f576040517f08c379a00000000000000000000000000000000000000000000000000000000081526004018080602001828103825260208152602001807f4552433732313a206d696e7420746f20746865207a65726f206164647265737381525060200191505060405180910390fd5b613918816137a8565b1561398b576040517f08c379a000000000000000000000000000000000000000000000000000000000815260040180806020018281038252601c8152602001807f4552433732313a20746f6b656e20616c7265616479206d696e7465640000000081525060200191505060405180910390fd5b816001600083815260200190815260200160002060006101000a81548173ffffffffffffffffffffffffffffffffffffffff021916908373ffffffffffffffffffffffffffffffffffffffff160217905550613a24600360008473ffffffffffffffffffffffffffffffffffffffff1673ffffffffffffffffffffffffffffffffffffffff168152602001908152602001600020613f9b565b808273ffffffffffffffffffffffffffffffffffffffff16600073ffffffffffffffffffffffffffffffffffffffff167fddf252ad1be2c89b69c2b068fc378daa952ba7f163c4a11628f55a4df523b3ef60405160405180910390a45050565b600080828401905083811015613b02576040517f08c379a000000000000000000000000000000000000000000000000000000000815260040180806020018281038252601b8152602001807f536166654d6174683a206164646974696f6e206f766572666c6f77000000000081525060200191505060405180910390fd5b8091505092915050565b6000613b17826137a8565b613b6c576040517f08c379a000000000000000000000000000000000000000000000000000000000815260040180806020018281038252602c815260200180614610602c913960400191505060405180910390fd5b6000613b7783612168565b90508073ffffffffffffffffffffffffffffffffffffffff168473ffffffffffffffffffffffffffffffffffffffff161480613be657508373ffffffffffffffffffffffffffffffffffffffff16613bce84611338565b73ffffffffffffffffffffffffffffffffffffffff16145b80613bf75750613bf681856136be565b5b91505092915050565b8273ffffffffffffffffffffffffffffffffffffffff16613c2082612168565b73ffffffffffffffffffffffffffffffffffffffff1614613c8c576040517f08c379a000000000000000000000000000000000000000000000000000000000815260040180806020018281038252602981526020018061473a6029913960400191505060405180910390fd5b600073ffffffffffffffffffffffffffffffffffffffff168273ffffffffffffffffffffffffffffffffffffffff161415613d12576040517f08c379a00000000000000000000000000000000000000000000000000000000081526004018080602001828103825260248152602001806145ec6024913960400191505060405180910390fd5b613d1b81613fb1565b613d62600360008573ffffffffffffffffffffffffffffffffffffffff1673ffffffffffffffffffffffffffffffffffffffff16815260200190815260200160002061406f565b613da9600360008473ffffffffffffffffffffffffffffffffffffffff1673ffffffffffffffffffffffffffffffffffffffff168152602001908152602001600020613f9b565b816001600083815260200190815260200160002060006101000a81548173ffffffffffffffffffffffffffffffffffffffff021916908373ffffffffffffffffffffffffffffffffffffffff160217905550808273ffffffffffffffffffffffffffffffffffffffff168473ffffffffffffffffffffffffffffffffffffffff167fddf252ad1be2c89b69c2b068fc378daa952ba7f163c4a11628f55a4df523b3ef60405160405180910390a4505050565b600081600001549050919050565b613e74848484613c00565b613e8084848484614092565b613ed5576040517f08c379a00000000000000000000000000000000000000000000000000000000081526004018080602001828103825260328152602001806145ba6032913960400191505060405180910390fd5b50505050565b6000838311158290613f88576040517f08c379a00000000000000000000000000000000000000000000000000000000081526004018080602001828103825283818151815260200191508051906020019080838360005b83811015613f4d578082015181840152602081019050613f32565b50505050905090810190601f168015613f7a5780820380516001836020036101000a031916815260200191505b509250505060405180910390fd5b5060008385039050809150509392505050565b6001816000016000828254019250508190555050565b600073ffffffffffffffffffffffffffffffffffffffff166002600083815260200190815260200160002060009054906101000a900473ffffffffffffffffffffffffffffffffffffffff1673ffffffffffffffffffffffffffffffffffffffff161461406c5760006002600083815260200190815260200160002060006101000a81548173ffffffffffffffffffffffffffffffffffffffff021916908373ffffffffffffffffffffffffffffffffffffffff1602179055505b50565b6140876001826000015461382290919063ffffffff16565b816000018190555050565b60006140b38473ffffffffffffffffffffffffffffffffffffffff166143ce565b6140c057600190506143c6565b600060608573ffffffffffffffffffffffffffffffffffffffff168673ffffffffffffffffffffffffffffffffffffffff1663150b7a02905060e01b61410461381a565b898888604051602401808573ffffffffffffffffffffffffffffffffffffffff1673ffffffffffffffffffffffffffffffffffffffff1681526020018473ffffffffffffffffffffffffffffffffffffffff1673ffffffffffffffffffffffffffffffffffffffff16815260200183815260200180602001828103825283818151815260200191508051906020019080838360005b838110156141b4578082015181840152602081019050614199565b50505050905090810190601f1680156141e15780820380516001836020036101000a031916815260200191505b5095505050505050604051602081830303815290604052907bffffffffffffffffffffffffffffffffffffffffffffffffffffffff19166020820180517bffffffffffffffffffffffffffffffffffffffffffffffffffffffff83818316178352505050506040518082805190602001908083835b602083106142795780518252602082019150602081019050602083039250614256565b6001836020036101000a0380198251168184511680821785525050505050509050019150506000604051808303816000865af19150503d80600081146142db576040519150601f19603f3d011682016040523d82523d6000602084013e6142e0565b606091505b50915091508161434e576000815111156142fd5780518082602001fd5b6040517f08c379a00000000000000000000000000000000000000000000000000000000081526004018080602001828103825260328152602001806145ba6032913960400191505060405180910390fd5b600081806020019051602081101561436557600080fd5b8101908080519060200190929190505050905063150b7a0260e01b7bffffffffffffffffffffffffffffffffffffffffffffffffffffffff1916817bffffffffffffffffffffffffffffffffffffffffffffffffffffffff19161493505050505b949350505050565b60008060007fc5d2460186f7233c927e7db2dcc703c0e500b653ca82273b7bfad8045d85a47060001b9050833f915080821415801561441057506000801b8214155b92505050919050565b604051806101600160405280600073ffffffffffffffffffffffffffffffffffffffff1681526020016000815260200160008152602001600081526020016000815260200160008152602001600081526020016060815260200160608152602001606081526020016000600281111561448e57fe5b81525090565b828054600181600116156101000203166002900490600052602060002090601f016020900481019282601f106144d557805160ff1916838001178555614503565b82800160010185558215614503579182015b828111156145025782518255916020019190600101906144e7565b5b5090506145109190614594565b5090565b828054600181600116156101000203166002900490600052602060002090601f016020900481019282601f1061455557805160ff1916838001178555614583565b82800160010185558215614583579182015b82811115614582578251825591602001919060010190614567565b5b5090506145909190614594565b5090565b6145b691905b808211156145b257600081600090555060010161459a565b5090565b9056fe4552433732313a207472616e7366657220746f206e6f6e20455243373231526563656976657220696d706c656d656e7465724552433732313a207472616e7366657220746f20746865207a65726f20616464726573734552433732313a206f70657261746f7220717565727920666f72206e6f6e6578697374656e7420746f6b656e4552433732313a20617070726f76652063616c6c6572206973206e6f74206f776e6572206e6f7220617070726f76656420666f7220616c6c4552433732313a2062616c616e636520717565727920666f7220746865207a65726f20616464726573734552433732313a206f776e657220717565727920666f72206e6f6e6578697374656e7420746f6b656e596f75206d75737420626520746865204d656d65206f776e6572206f7220616e2061646d696e4552433732313a20617070726f76656420717565727920666f72206e6f6e6578697374656e7420746f6b656e456e73757265207468617420796f7527726520746865204d656d65204f776e65724552433732313a207472616e73666572206f6620746f6b656e2074686174206973206e6f74206f776e4552433732313a20617070726f76616c20746f2063757272656e74206f776e65724552433732313a207472616e736665722063616c6c6572206973206e6f74206f776e6572206e6f7220617070726f766564a265627a7a723158202802328b01829c367207f53648a0d03b53fdce71fad9f03c24500ae09af0eebd64736f6c63430005100032",
  "source": "pragma solidity ^0.5.0;\r\nimport \"../node_modules/@openzeppelin/contracts/token/ERC721/ERC721.sol\";\r\nimport \"./User.sol\";\r\n\r\n\r\ncontract Meme is ERC721 {\r\n    using SafeMath for uint256;\r\n\r\n    address contractOwner = msg.sender;\r\n    User userContract;\r\n\r\n    uint256 public numberOfMemes = 0;\r\n\r\n    enum memeStates {approved, rejected, pending}\r\n\r\n    struct meme {\r\n        address memeOwner;\r\n        uint256 memeId;\r\n        uint256 memeLikes;\r\n        uint256 memeDislikes;\r\n        uint256 memeFlags;\r\n        uint256 memeValue;\r\n        uint256 memeDate;\r\n        string memePath;\r\n        string memeTitle;\r\n        string memeDescription;\r\n        memeStates memeState;\r\n    }\r\n\r\n    meme[] public memes;\r\n\r\n    event MemeCreated(\r\n        uint256 memeId,\r\n        uint256 memeDate,\r\n        string memePath,\r\n        string memeTitle,\r\n        string memeDescription\r\n    );\r\n    event MemeLiked(uint256 memeId, uint256 memeLikes);\r\n    event MemeDisliked(uint256 memeId, uint256 memeDislikes);\r\n    event MemeFlagged(uint256 memeId, uint256 memeFlags);\r\n    event MemeApproved(uint256 memeId, uint256 memeDate);\r\n    event MemeRejected(uint256 memeId, uint256 memeDate);\r\n    event MemeValueChanged(uint256 memeId, uint256 memeValue);\r\n    event MemeDateChanged(uint256 memeId, uint256 memeDate);\r\n    event MemePathChanged(uint256 memeId, string memePath);\r\n    event MemeTitleChanged(uint256 memeId, string memeTitle);\r\n    event MemeDescriptionChanged(uint256 memeId, string memeDescription);\r\n\r\n    modifier isMemeOwner(uint256 _memeId) {\r\n        require(\r\n            getMemeOwner(_memeId) == tx.origin,\r\n            \"Ensure that you're the Meme Owner\"\r\n        );\r\n        _;\r\n    }\r\n\r\n    modifier isActiveUser() {\r\n        require(\r\n            userContract.checkUserIsActive(tx.origin) ||\r\n                userContract.checkUserIsAdmin(tx.origin),\r\n            \"You must be an active user\"\r\n        );\r\n        _;\r\n    }\r\n\r\n    modifier isAdminUser() {\r\n        require(\r\n            userContract.checkUserIsAdmin(tx.origin),\r\n            \"You must be an admin user\"\r\n        );\r\n        _;\r\n    }\r\n\r\n    constructor(User _userContract) public {\r\n        userContract = _userContract;\r\n    }\r\n\r\n    function createMeme(\r\n        address _memeOwner,\r\n        uint256 _memeDate,\r\n        string memory _memePath,\r\n        string memory _memeTitle,\r\n        string memory _memeDescription,\r\n        uint256 _memeValue\r\n    ) public returns (uint256) {\r\n        meme memory _meme = meme(\r\n            _memeOwner,\r\n            numberOfMemes,\r\n            0,\r\n            0,\r\n            0,\r\n            _memeValue,\r\n            _memeDate,\r\n            _memePath,\r\n            _memeTitle,\r\n            _memeDescription,\r\n            memeStates.pending\r\n        );\r\n        uint256 _memeId = memes.push(_meme).sub(1);\r\n        _mint(_memeOwner, _memeId);\r\n        numberOfMemes = numberOfMemes.add(1);\r\n        emit MemeCreated(\r\n            _memeId,\r\n            _memeDate,\r\n            _memePath,\r\n            _memeTitle,\r\n            _memeDescription\r\n        );\r\n        return _memeId;\r\n    }\r\n\r\n    function getNumberMemes() public view returns (uint256) {\r\n        return numberOfMemes;\r\n    }\r\n\r\n    function getMemeOwner(uint256 _memeId) public view returns (address) {\r\n        return memes[_memeId].memeOwner;\r\n    }\r\n\r\n    function getMemeLikes(uint256 _memeId) public view returns (uint256) {\r\n        return memes[_memeId].memeLikes;\r\n    }\r\n\r\n    function getMemeDislikes(uint256 _memeId) public view returns (uint256) {\r\n        return memes[_memeId].memeDislikes;\r\n    }\r\n\r\n    function getMemeFlags(uint256 _memeId) public view returns (uint256) {\r\n        return memes[_memeId].memeFlags;\r\n    }\r\n\r\n    function getMemeValue(uint256 _memeId) public view returns (uint256) {\r\n        return memes[_memeId].memeValue;\r\n    }\r\n\r\n    function getMemeState(uint256 _memeId) public view returns (memeStates) {\r\n        return memes[_memeId].memeState;\r\n    }\r\n\r\n    function getMemeDate(uint256 _memeId) public view returns (uint256) {\r\n        return memes[_memeId].memeDate;\r\n    }\r\n\r\n    function getMemePath(uint256 _memeId) public view returns (string memory) {\r\n        return memes[_memeId].memePath;\r\n    }\r\n\r\n    function getMemeTitle(uint256 _memeId) public view returns (string memory) {\r\n        return memes[_memeId].memeTitle;\r\n    }\r\n\r\n    function getMemeDescription(uint256 _memeId)\r\n        public\r\n        view\r\n        returns (string memory)\r\n    {\r\n        return memes[_memeId].memeDescription;\r\n    }\r\n\r\n    function setMemeLikes(uint256 _memeId, uint256 _memeLikes)\r\n        public\r\n        isActiveUser()\r\n    {\r\n        memes[_memeId].memeLikes = _memeLikes;\r\n        emit MemeLiked(_memeId, _memeLikes);\r\n    }\r\n\r\n    function setMemeDislikes(uint256 _memeId, uint256 _memeDislikes)\r\n        public\r\n        isActiveUser()\r\n    {\r\n        memes[_memeId].memeDislikes = _memeDislikes;\r\n        emit MemeDisliked(_memeId, _memeDislikes);\r\n    }\r\n\r\n    function setMemeFlags(uint256 _memeId, uint256 _memeFlags)\r\n        public\r\n        isActiveUser()\r\n    {\r\n        memes[_memeId].memeFlags = _memeFlags;\r\n        emit MemeFlagged(_memeId, _memeFlags);\r\n    }\r\n\r\n    function setMemeValue(uint256 _memeId, uint256 _memeValue)\r\n        public\r\n        isMemeOwner(_memeId)\r\n    {\r\n        memes[_memeId].memeValue = _memeValue;\r\n        emit MemeValueChanged(_memeId, _memeValue);\r\n    }\r\n\r\n    function approveMeme(uint256 _memeId, uint256 _newDate)\r\n        public\r\n        isAdminUser()\r\n    {\r\n        memes[_memeId].memeState = memeStates.approved;\r\n        memes[_memeId].memeDate = _newDate;\r\n        emit MemeApproved(_memeId, _newDate);\r\n    }\r\n\r\n    function rejectMeme(uint256 _memeId, uint256 _newDate)\r\n        public\r\n        isActiveUser()\r\n    {\r\n        memes[_memeId].memeState = memeStates.rejected;\r\n        memes[_memeId].memeDate = _newDate;\r\n        emit MemeRejected(_memeId, _newDate);\r\n    }\r\n\r\n    function setMemeDate(uint256 _memeId, uint256 _memeDate) public {\r\n        require(\r\n            getMemeOwner(_memeId) == tx.origin ||\r\n                userContract.checkUserIsAdmin(tx.origin),\r\n            \"You must be the Meme owner or an admin\"\r\n        );\r\n        memes[_memeId].memeDate = _memeDate;\r\n        emit MemeDateChanged(_memeId, _memeDate);\r\n    }\r\n\r\n    function setMemePath(uint256 _memeId, string memory _memePath)\r\n        public\r\n        isMemeOwner(_memeId)\r\n    {\r\n        memes[_memeId].memePath = _memePath;\r\n        emit MemePathChanged(_memeId, _memePath);\r\n    }\r\n\r\n    function setMemeTitle(uint256 _memeId, string memory _memeTitle)\r\n        public\r\n        isMemeOwner(_memeId)\r\n    {\r\n        memes[_memeId].memeTitle = _memeTitle;\r\n        emit MemeTitleChanged(_memeId, _memeTitle);\r\n    }\r\n\r\n    function setMemeDescription(uint256 _memeId, string memory _memeDescription)\r\n        public\r\n        isMemeOwner(_memeId)\r\n    {\r\n        memes[_memeId].memeDescription = _memeDescription;\r\n        emit MemeDescriptionChanged(_memeId, _memeDescription);\r\n    }\r\n}\r\n",
  "sourcePath": "C:\\Users\\quentinkhoo\\Documents\\Year 4\\Sem 2\\IS4302\\cryptomeme\\contracts\\Meme.sol",
  "compiler": {
    "name": "solc",
    "version": "0.5.16+commit.9c3226ce.Emscripten.clang"
  },
  "schemaVersion": "3.0.23",
  "updatedAt": "2020-04-13T03:43:17.853Z",
  "networkType": "ethereum",
  "devdoc": {
    "methods": {
      "approve(address,uint256)": {
        "details": "Approves another address to transfer the given token ID The zero address indicates there is no approved address. There can only be one approved address per token at a given time. Can only be called by the token owner or an approved operator.",
        "params": {
          "to": "address to be approved for the given token ID",
          "tokenId": "uint256 ID of the token to be approved"
        }
      },
      "balanceOf(address)": {
        "details": "Gets the balance of the specified address.",
        "params": {
          "owner": "address to query the balance of"
        },
        "return": "uint256 representing the amount owned by the passed address"
      },
      "getApproved(uint256)": {
        "details": "Gets the approved address for a token ID, or zero if no address set Reverts if the token ID does not exist.",
        "params": {
          "tokenId": "uint256 ID of the token to query the approval of"
        },
        "return": "address currently approved for the given token ID"
      },
      "isApprovedForAll(address,address)": {
        "details": "Tells whether an operator is approved by a given owner.",
        "params": {
          "operator": "operator address which you want to query the approval of",
          "owner": "owner address which you want to query the approval of"
        },
        "return": "bool whether the given operator is approved by the given owner"
      },
      "ownerOf(uint256)": {
        "details": "Gets the owner of the specified token ID.",
        "params": {
          "tokenId": "uint256 ID of the token to query the owner of"
        },
        "return": "address currently marked as the owner of the given token ID"
      },
      "safeTransferFrom(address,address,uint256)": {
        "details": "Safely transfers the ownership of a given token ID to another address If the target address is a contract, it must implement {IERC721Receiver-onERC721Received}, which is called upon a safe transfer, and return the magic value `bytes4(keccak256(\"onERC721Received(address,address,uint256,bytes)\"))`; otherwise, the transfer is reverted. Requires the msg.sender to be the owner, approved, or operator",
        "params": {
          "from": "current owner of the token",
          "to": "address to receive the ownership of the given token ID",
          "tokenId": "uint256 ID of the token to be transferred"
        }
      },
      "safeTransferFrom(address,address,uint256,bytes)": {
        "details": "Safely transfers the ownership of a given token ID to another address If the target address is a contract, it must implement {IERC721Receiver-onERC721Received}, which is called upon a safe transfer, and return the magic value `bytes4(keccak256(\"onERC721Received(address,address,uint256,bytes)\"))`; otherwise, the transfer is reverted. Requires the _msgSender() to be the owner, approved, or operator",
        "params": {
          "_data": "bytes data to send along with a safe transfer check",
          "from": "current owner of the token",
          "to": "address to receive the ownership of the given token ID",
          "tokenId": "uint256 ID of the token to be transferred"
        }
      },
      "setApprovalForAll(address,bool)": {
        "details": "Sets or unsets the approval of a given operator An operator is allowed to transfer all tokens of the sender on their behalf.",
        "params": {
          "approved": "representing the status of the approval to be set",
          "to": "operator address to set the approval"
        }
      },
      "supportsInterface(bytes4)": {
        "details": "See {IERC165-supportsInterface}.     * Time complexity O(1), guaranteed to always use less than 30 000 gas."
      },
      "transferFrom(address,address,uint256)": {
        "details": "Transfers the ownership of a given token ID to another address. Usage of this method is discouraged, use {safeTransferFrom} whenever possible. Requires the msg.sender to be the owner, approved, or operator.",
        "params": {
          "from": "current owner of the token",
          "to": "address to receive the ownership of the given token ID",
          "tokenId": "uint256 ID of the token to be transferred"
        }
      }
    }
  },
  "userdoc": {
    "methods": {}
  }
}