{
  "contractName": "MemeketPlace",
  "abi": [
    {
      "inputs": [
        {
          "internalType": "contract Meme",
          "name": "_memeContract",
          "type": "address"
        }
      ],
      "payable": false,
      "stateMutability": "nonpayable",
      "type": "constructor"
    },
    {
      "constant": false,
      "inputs": [
        {
          "internalType": "address",
          "name": "_memeOwner",
          "type": "address"
        },
        {
          "internalType": "string",
          "name": "_pathToMeme",
          "type": "string"
        }
      ],
      "name": "uploadMeme",
      "outputs": [],
      "payable": false,
      "stateMutability": "nonpayable",
      "type": "function"
    }
  ],
  "bytecode": "0x608060405234801561001057600080fd5b506040516103213803806103218339818101604052602081101561003357600080fd5b8101908080519060200190929190505050806000806101000a81548173ffffffffffffffffffffffffffffffffffffffff021916908373ffffffffffffffffffffffffffffffffffffffff1602179055505061028d806100946000396000f3fe608060405234801561001057600080fd5b506004361061002b5760003560e01c8063542ad4fa14610030575b600080fd5b6101096004803603604081101561004657600080fd5b81019080803573ffffffffffffffffffffffffffffffffffffffff1690602001909291908035906020019064010000000081111561008357600080fd5b82018360208201111561009557600080fd5b803590602001918460018302840111640100000000831117156100b757600080fd5b91908080601f016020809104026020016040519081016040528093929190818152602001838380828437600081840152601f19601f82011690508083019250505050505050919291929050505061010b565b005b6000809054906101000a900473ffffffffffffffffffffffffffffffffffffffff1673ffffffffffffffffffffffffffffffffffffffff1663ed9a3a3f83836040518363ffffffff1660e01b8152600401808373ffffffffffffffffffffffffffffffffffffffff1673ffffffffffffffffffffffffffffffffffffffff16815260200180602001828103825283818151815260200191508051906020019080838360005b838110156101cb5780820151818401526020810190506101b0565b50505050905090810190601f1680156101f85780820380516001836020036101000a031916815260200191505b509350505050602060405180830381600087803b15801561021857600080fd5b505af115801561022c573d6000803e3d6000fd5b505050506040513d602081101561024257600080fd5b810190808051906020019092919050505050505056fea265627a7a7231582013e14de45f34e50fd3da8f7b4f9f55e79bdd701b9272dbba235a19d0d593d09564736f6c63430005100032",
  "source": "pragma solidity ^0.5.0;\r\nimport \"./Meme.sol\";\r\n\r\ncontract MemeketPlace {\r\n    Meme memeContract;\r\n    constructor(Meme _memeContract) public {\r\n        memeContract = _memeContract;\r\n    }\r\n\r\n    function uploadMeme(address _memeOwner, string memory _pathToMeme) public {\r\n        memeContract.createMeme(_memeOwner, _pathToMeme);\r\n    }\r\n}\r\n",
  "sourcePath": "C:\\Users\\quentinkhoo\\Documents\\Year 4\\Sem 2\\IS4302\\cryptomeme\\contracts\\Memeketplace.sol",
  "compiler": {
    "name": "solc",
    "version": "0.5.16+commit.9c3226ce.Emscripten.clang"
  },
  "schemaVersion": "3.0.23",
  "updatedAt": "2020-03-14T09:21:37.578Z",
  "devdoc": {
    "methods": {}
  },
  "userdoc": {
    "methods": {}
  }
}