{
  "contractName": "MemeketPlace",
  "abi": [
    {
      "inputs": [
        {
          "internalType": "contract Meme",
          "name": "_memeContract",
          "type": "address"
        }
      ],
      "payable": false,
      "stateMutability": "nonpayable",
      "type": "constructor"
    },
    {
      "constant": false,
      "inputs": [
        {
          "internalType": "address",
          "name": "_memeOwner",
          "type": "address"
        },
        {
          "internalType": "string",
          "name": "_pathToMeme",
          "type": "string"
        }
      ],
      "name": "uploadMeme",
      "outputs": [],
      "payable": false,
      "stateMutability": "nonpayable",
      "type": "function"
    },
    {
      "constant": false,
      "inputs": [
        {
          "internalType": "uint256",
          "name": "_memeId",
          "type": "uint256"
        }
      ],
      "name": "likeMeme",
      "outputs": [],
      "payable": false,
      "stateMutability": "nonpayable",
      "type": "function"
    }
  ],
  "bytecode": "0x608060405234801561001057600080fd5b506040516105383803806105388339818101604052602081101561003357600080fd5b8101908080519060200190929190505050806000806101000a81548173ffffffffffffffffffffffffffffffffffffffff021916908373ffffffffffffffffffffffffffffffffffffffff160217905550506104a4806100946000396000f3fe608060405234801561001057600080fd5b50600436106100365760003560e01c8063542ad4fa1461003b5780639c55a70f14610116575b600080fd5b6101146004803603604081101561005157600080fd5b81019080803573ffffffffffffffffffffffffffffffffffffffff1690602001909291908035906020019064010000000081111561008e57600080fd5b8201836020820111156100a057600080fd5b803590602001918460018302840111640100000000831117156100c257600080fd5b91908080601f016020809104026020016040519081016040528093929190818152602001838380828437600081840152601f19601f820116905080830192505050505050509192919290505050610144565b005b6101426004803603602081101561012c57600080fd5b8101908080359060200190929190505050610291565b005b6000809054906101000a900473ffffffffffffffffffffffffffffffffffffffff1673ffffffffffffffffffffffffffffffffffffffff1663ed9a3a3f83836040518363ffffffff1660e01b8152600401808373ffffffffffffffffffffffffffffffffffffffff1673ffffffffffffffffffffffffffffffffffffffff16815260200180602001828103825283818151815260200191508051906020019080838360005b838110156102045780820151818401526020810190506101e9565b50505050905090810190601f1680156102315780820380516001836020036101000a031916815260200191505b509350505050602060405180830381600087803b15801561025157600080fd5b505af1158015610265573d6000803e3d6000fd5b505050506040513d602081101561027b57600080fd5b8101908080519060200190929190505050505050565b6000809054906101000a900473ffffffffffffffffffffffffffffffffffffffff1673ffffffffffffffffffffffffffffffffffffffff166390e5abb48261038f60016000809054906101000a900473ffffffffffffffffffffffffffffffffffffffff1673ffffffffffffffffffffffffffffffffffffffff16637eda8c04876040518263ffffffff1660e01b81526004018082815260200191505060206040518083038186803b15801561034657600080fd5b505afa15801561035a573d6000803e3d6000fd5b505050506040513d602081101561037057600080fd5b81019080805190602001909291905050506103e790919063ffffffff16565b6040518363ffffffff1660e01b81526004018083815260200182815260200192505050600060405180830381600087803b1580156103cc57600080fd5b505af11580156103e0573d6000803e3d6000fd5b5050505050565b600080828401905083811015610465576040517f08c379a000000000000000000000000000000000000000000000000000000000815260040180806020018281038252601b8152602001807f536166654d6174683a206164646974696f6e206f766572666c6f77000000000081525060200191505060405180910390fd5b809150509291505056fea265627a7a7231582034c27756273e64d118c4ed7ded5a277540082d7f85f56a70f1c076d6417b9aba64736f6c63430005100032",
  "source": "pragma solidity ^0.5.0;\r\nimport \"./Meme.sol\";\r\nimport \"../node_modules/@openzeppelin/contracts/math/SafeMath.sol\";\r\n\r\ncontract MemeketPlace {\r\n    using SafeMath for uint256;\r\n\r\n    Meme memeContract;\r\n    constructor(Meme _memeContract) public {\r\n        memeContract = _memeContract;\r\n    }\r\n\r\n    function uploadMeme(address _memeOwner, string memory _pathToMeme) public {\r\n        memeContract.createMeme(_memeOwner, _pathToMeme);\r\n    }\r\n\r\n    function likeMeme(uint256 _memeId) public {\r\n        memeContract.setMemeLikes(\r\n            _memeId,\r\n            memeContract.getMemeLikes(_memeId).add(1)\r\n        );\r\n    }\r\n}\r\n",
  "sourcePath": "C:\\Users\\quentinkhoo\\Documents\\Year 4\\Sem 2\\IS4302\\cryptomeme\\contracts\\Memeketplace.sol",
  "compiler": {
    "name": "solc",
    "version": "0.5.16+commit.9c3226ce.Emscripten.clang"
  },
  "schemaVersion": "3.0.23",
  "updatedAt": "2020-03-14T15:15:13.967Z",
  "networkType": "ethereum",
  "devdoc": {
    "methods": {}
  },
  "userdoc": {
    "methods": {}
  }
}