{
  "contractName": "Meme",
  "abi": [
    {
      "anonymous": false,
      "inputs": [
        {
          "indexed": true,
          "internalType": "address",
          "name": "owner",
          "type": "address"
        },
        {
          "indexed": true,
          "internalType": "address",
          "name": "approved",
          "type": "address"
        },
        {
          "indexed": true,
          "internalType": "uint256",
          "name": "tokenId",
          "type": "uint256"
        }
      ],
      "name": "Approval",
      "type": "event"
    },
    {
      "anonymous": false,
      "inputs": [
        {
          "indexed": true,
          "internalType": "address",
          "name": "owner",
          "type": "address"
        },
        {
          "indexed": true,
          "internalType": "address",
          "name": "operator",
          "type": "address"
        },
        {
          "indexed": false,
          "internalType": "bool",
          "name": "approved",
          "type": "bool"
        }
      ],
      "name": "ApprovalForAll",
      "type": "event"
    },
    {
      "anonymous": false,
      "inputs": [
        {
          "indexed": false,
          "internalType": "uint256",
          "name": "memeId",
          "type": "uint256"
        }
      ],
      "name": "MemeApproved",
      "type": "event"
    },
    {
      "anonymous": false,
      "inputs": [
        {
          "indexed": false,
          "internalType": "uint256",
          "name": "memeId",
          "type": "uint256"
        },
        {
          "indexed": false,
          "internalType": "string",
          "name": "memePath",
          "type": "string"
        },
        {
          "indexed": false,
          "internalType": "string",
          "name": "memeTitle",
          "type": "string"
        },
        {
          "indexed": false,
          "internalType": "string",
          "name": "memeDescription",
          "type": "string"
        }
      ],
      "name": "MemeCreated",
      "type": "event"
    },
    {
      "anonymous": false,
      "inputs": [
        {
          "indexed": false,
          "internalType": "uint256",
          "name": "memeId",
          "type": "uint256"
        },
        {
          "indexed": false,
          "internalType": "string",
          "name": "memeDescription",
          "type": "string"
        }
      ],
      "name": "MemeDescriptionChanged",
      "type": "event"
    },
    {
      "anonymous": false,
      "inputs": [
        {
          "indexed": false,
          "internalType": "uint256",
          "name": "memeId",
          "type": "uint256"
        },
        {
          "indexed": false,
          "internalType": "uint256",
          "name": "memeDislikes",
          "type": "uint256"
        }
      ],
      "name": "MemeDisliked",
      "type": "event"
    },
    {
      "anonymous": false,
      "inputs": [
        {
          "indexed": false,
          "internalType": "uint256",
          "name": "memeId",
          "type": "uint256"
        },
        {
          "indexed": false,
          "internalType": "uint256",
          "name": "memeFlags",
          "type": "uint256"
        }
      ],
      "name": "MemeFlagged",
      "type": "event"
    },
    {
      "anonymous": false,
      "inputs": [
        {
          "indexed": false,
          "internalType": "uint256",
          "name": "memeId",
          "type": "uint256"
        },
        {
          "indexed": false,
          "internalType": "uint256",
          "name": "memeLikes",
          "type": "uint256"
        }
      ],
      "name": "MemeLiked",
      "type": "event"
    },
    {
      "anonymous": false,
      "inputs": [
        {
          "indexed": false,
          "internalType": "uint256",
          "name": "memeId",
          "type": "uint256"
        },
        {
          "indexed": false,
          "internalType": "string",
          "name": "memePath",
          "type": "string"
        }
      ],
      "name": "MemePathChanged",
      "type": "event"
    },
    {
      "anonymous": false,
      "inputs": [
        {
          "indexed": false,
          "internalType": "uint256",
          "name": "memeId",
          "type": "uint256"
        }
      ],
      "name": "MemeRejected",
      "type": "event"
    },
    {
      "anonymous": false,
      "inputs": [
        {
          "indexed": false,
          "internalType": "uint256",
          "name": "memeId",
          "type": "uint256"
        },
        {
          "indexed": false,
          "internalType": "string",
          "name": "memeTitle",
          "type": "string"
        }
      ],
      "name": "MemeTitleChanged",
      "type": "event"
    },
    {
      "anonymous": false,
      "inputs": [
        {
          "indexed": false,
          "internalType": "uint256",
          "name": "memeId",
          "type": "uint256"
        },
        {
          "indexed": false,
          "internalType": "uint256",
          "name": "memeValue",
          "type": "uint256"
        }
      ],
      "name": "MemeValueChanged",
      "type": "event"
    },
    {
      "anonymous": false,
      "inputs": [
        {
          "indexed": true,
          "internalType": "address",
          "name": "from",
          "type": "address"
        },
        {
          "indexed": true,
          "internalType": "address",
          "name": "to",
          "type": "address"
        },
        {
          "indexed": true,
          "internalType": "uint256",
          "name": "tokenId",
          "type": "uint256"
        }
      ],
      "name": "Transfer",
      "type": "event"
    },
    {
      "constant": false,
      "inputs": [
        {
          "internalType": "address",
          "name": "to",
          "type": "address"
        },
        {
          "internalType": "uint256",
          "name": "tokenId",
          "type": "uint256"
        }
      ],
      "name": "approve",
      "outputs": [],
      "payable": false,
      "stateMutability": "nonpayable",
      "type": "function"
    },
    {
      "constant": true,
      "inputs": [
        {
          "internalType": "address",
          "name": "owner",
          "type": "address"
        }
      ],
      "name": "balanceOf",
      "outputs": [
        {
          "internalType": "uint256",
          "name": "",
          "type": "uint256"
        }
      ],
      "payable": false,
      "stateMutability": "view",
      "type": "function"
    },
    {
      "constant": true,
      "inputs": [
        {
          "internalType": "uint256",
          "name": "tokenId",
          "type": "uint256"
        }
      ],
      "name": "getApproved",
      "outputs": [
        {
          "internalType": "address",
          "name": "",
          "type": "address"
        }
      ],
      "payable": false,
      "stateMutability": "view",
      "type": "function"
    },
    {
      "constant": true,
      "inputs": [
        {
          "internalType": "address",
          "name": "owner",
          "type": "address"
        },
        {
          "internalType": "address",
          "name": "operator",
          "type": "address"
        }
      ],
      "name": "isApprovedForAll",
      "outputs": [
        {
          "internalType": "bool",
          "name": "",
          "type": "bool"
        }
      ],
      "payable": false,
      "stateMutability": "view",
      "type": "function"
    },
    {
      "constant": true,
      "inputs": [
        {
          "internalType": "uint256",
          "name": "",
          "type": "uint256"
        }
      ],
      "name": "memes",
      "outputs": [
        {
          "internalType": "uint256",
          "name": "memeId",
          "type": "uint256"
        },
        {
          "internalType": "uint256",
          "name": "memeLikes",
          "type": "uint256"
        },
        {
          "internalType": "uint256",
          "name": "memeDislikes",
          "type": "uint256"
        },
        {
          "internalType": "uint256",
          "name": "memeFlags",
          "type": "uint256"
        },
        {
          "internalType": "uint256",
          "name": "memeValue",
          "type": "uint256"
        },
        {
          "internalType": "string",
          "name": "memePath",
          "type": "string"
        },
        {
          "internalType": "string",
          "name": "memeTitle",
          "type": "string"
        },
        {
          "internalType": "string",
          "name": "memeDescription",
          "type": "string"
        },
        {
          "internalType": "enum Meme.memeStates",
          "name": "memeState",
          "type": "uint8"
        }
      ],
      "payable": false,
      "stateMutability": "view",
      "type": "function"
    },
    {
      "constant": true,
      "inputs": [],
      "name": "numberOfMemes",
      "outputs": [
        {
          "internalType": "uint256",
          "name": "",
          "type": "uint256"
        }
      ],
      "payable": false,
      "stateMutability": "view",
      "type": "function"
    },
    {
      "constant": true,
      "inputs": [
        {
          "internalType": "uint256",
          "name": "tokenId",
          "type": "uint256"
        }
      ],
      "name": "ownerOf",
      "outputs": [
        {
          "internalType": "address",
          "name": "",
          "type": "address"
        }
      ],
      "payable": false,
      "stateMutability": "view",
      "type": "function"
    },
    {
      "constant": false,
      "inputs": [
        {
          "internalType": "address",
          "name": "from",
          "type": "address"
        },
        {
          "internalType": "address",
          "name": "to",
          "type": "address"
        },
        {
          "internalType": "uint256",
          "name": "tokenId",
          "type": "uint256"
        }
      ],
      "name": "safeTransferFrom",
      "outputs": [],
      "payable": false,
      "stateMutability": "nonpayable",
      "type": "function"
    },
    {
      "constant": false,
      "inputs": [
        {
          "internalType": "address",
          "name": "from",
          "type": "address"
        },
        {
          "internalType": "address",
          "name": "to",
          "type": "address"
        },
        {
          "internalType": "uint256",
          "name": "tokenId",
          "type": "uint256"
        },
        {
          "internalType": "bytes",
          "name": "_data",
          "type": "bytes"
        }
      ],
      "name": "safeTransferFrom",
      "outputs": [],
      "payable": false,
      "stateMutability": "nonpayable",
      "type": "function"
    },
    {
      "constant": false,
      "inputs": [
        {
          "internalType": "address",
          "name": "to",
          "type": "address"
        },
        {
          "internalType": "bool",
          "name": "approved",
          "type": "bool"
        }
      ],
      "name": "setApprovalForAll",
      "outputs": [],
      "payable": false,
      "stateMutability": "nonpayable",
      "type": "function"
    },
    {
      "constant": true,
      "inputs": [
        {
          "internalType": "bytes4",
          "name": "interfaceId",
          "type": "bytes4"
        }
      ],
      "name": "supportsInterface",
      "outputs": [
        {
          "internalType": "bool",
          "name": "",
          "type": "bool"
        }
      ],
      "payable": false,
      "stateMutability": "view",
      "type": "function"
    },
    {
      "constant": false,
      "inputs": [
        {
          "internalType": "address",
          "name": "from",
          "type": "address"
        },
        {
          "internalType": "address",
          "name": "to",
          "type": "address"
        },
        {
          "internalType": "uint256",
          "name": "tokenId",
          "type": "uint256"
        }
      ],
      "name": "transferFrom",
      "outputs": [],
      "payable": false,
      "stateMutability": "nonpayable",
      "type": "function"
    },
    {
      "constant": false,
      "inputs": [
        {
          "internalType": "address",
          "name": "_memeOwner",
          "type": "address"
        },
        {
          "internalType": "string",
          "name": "_memePath",
          "type": "string"
        },
        {
          "internalType": "string",
          "name": "_memeTitle",
          "type": "string"
        },
        {
          "internalType": "string",
          "name": "_memeDescription",
          "type": "string"
        }
      ],
      "name": "createMeme",
      "outputs": [
        {
          "internalType": "uint256",
          "name": "",
          "type": "uint256"
        }
      ],
      "payable": false,
      "stateMutability": "nonpayable",
      "type": "function"
    },
    {
      "constant": true,
      "inputs": [
        {
          "internalType": "uint256",
          "name": "_memeId",
          "type": "uint256"
        }
      ],
      "name": "getMemeLikes",
      "outputs": [
        {
          "internalType": "uint256",
          "name": "",
          "type": "uint256"
        }
      ],
      "payable": false,
      "stateMutability": "view",
      "type": "function"
    },
    {
      "constant": true,
      "inputs": [
        {
          "internalType": "uint256",
          "name": "_memeId",
          "type": "uint256"
        }
      ],
      "name": "getMemeDislikes",
      "outputs": [
        {
          "internalType": "uint256",
          "name": "",
          "type": "uint256"
        }
      ],
      "payable": false,
      "stateMutability": "view",
      "type": "function"
    },
    {
      "constant": true,
      "inputs": [
        {
          "internalType": "uint256",
          "name": "_memeId",
          "type": "uint256"
        }
      ],
      "name": "getMemeFlags",
      "outputs": [
        {
          "internalType": "uint256",
          "name": "",
          "type": "uint256"
        }
      ],
      "payable": false,
      "stateMutability": "view",
      "type": "function"
    },
    {
      "constant": true,
      "inputs": [
        {
          "internalType": "uint256",
          "name": "_memeId",
          "type": "uint256"
        }
      ],
      "name": "getMemeValue",
      "outputs": [
        {
          "internalType": "uint256",
          "name": "",
          "type": "uint256"
        }
      ],
      "payable": false,
      "stateMutability": "view",
      "type": "function"
    },
    {
      "constant": true,
      "inputs": [
        {
          "internalType": "uint256",
          "name": "_memeId",
          "type": "uint256"
        }
      ],
      "name": "getMemeState",
      "outputs": [
        {
          "internalType": "enum Meme.memeStates",
          "name": "",
          "type": "uint8"
        }
      ],
      "payable": false,
      "stateMutability": "view",
      "type": "function"
    },
    {
      "constant": true,
      "inputs": [
        {
          "internalType": "uint256",
          "name": "_memeId",
          "type": "uint256"
        }
      ],
      "name": "getMemePath",
      "outputs": [
        {
          "internalType": "string",
          "name": "",
          "type": "string"
        }
      ],
      "payable": false,
      "stateMutability": "view",
      "type": "function"
    },
    {
      "constant": true,
      "inputs": [
        {
          "internalType": "uint256",
          "name": "_memeId",
          "type": "uint256"
        }
      ],
      "name": "getMemeTitle",
      "outputs": [
        {
          "internalType": "string",
          "name": "",
          "type": "string"
        }
      ],
      "payable": false,
      "stateMutability": "view",
      "type": "function"
    },
    {
      "constant": true,
      "inputs": [
        {
          "internalType": "uint256",
          "name": "_memeId",
          "type": "uint256"
        }
      ],
      "name": "getMemeDescription",
      "outputs": [
        {
          "internalType": "string",
          "name": "",
          "type": "string"
        }
      ],
      "payable": false,
      "stateMutability": "view",
      "type": "function"
    },
    {
      "constant": false,
      "inputs": [
        {
          "internalType": "uint256",
          "name": "_memeId",
          "type": "uint256"
        },
        {
          "internalType": "uint256",
          "name": "_memeLikes",
          "type": "uint256"
        }
      ],
      "name": "setMemeLikes",
      "outputs": [],
      "payable": false,
      "stateMutability": "nonpayable",
      "type": "function"
    },
    {
      "constant": false,
      "inputs": [
        {
          "internalType": "uint256",
          "name": "_memeId",
          "type": "uint256"
        },
        {
          "internalType": "uint256",
          "name": "_memeDislikes",
          "type": "uint256"
        }
      ],
      "name": "setMemeDislikes",
      "outputs": [],
      "payable": false,
      "stateMutability": "nonpayable",
      "type": "function"
    },
    {
      "constant": false,
      "inputs": [
        {
          "internalType": "uint256",
          "name": "_memeId",
          "type": "uint256"
        },
        {
          "internalType": "uint256",
          "name": "_memeFlags",
          "type": "uint256"
        }
      ],
      "name": "setMemeFlags",
      "outputs": [],
      "payable": false,
      "stateMutability": "nonpayable",
      "type": "function"
    },
    {
      "constant": false,
      "inputs": [
        {
          "internalType": "uint256",
          "name": "_memeId",
          "type": "uint256"
        },
        {
          "internalType": "uint256",
          "name": "_memeValue",
          "type": "uint256"
        }
      ],
      "name": "setMemeValue",
      "outputs": [],
      "payable": false,
      "stateMutability": "nonpayable",
      "type": "function"
    },
    {
      "constant": false,
      "inputs": [
        {
          "internalType": "uint256",
          "name": "_memeId",
          "type": "uint256"
        }
      ],
      "name": "approveMeme",
      "outputs": [],
      "payable": false,
      "stateMutability": "nonpayable",
      "type": "function"
    },
    {
      "constant": false,
      "inputs": [
        {
          "internalType": "uint256",
          "name": "_memeId",
          "type": "uint256"
        }
      ],
      "name": "rejectMeme",
      "outputs": [],
      "payable": false,
      "stateMutability": "nonpayable",
      "type": "function"
    },
    {
      "constant": false,
      "inputs": [
        {
          "internalType": "uint256",
          "name": "_memeId",
          "type": "uint256"
        },
        {
          "internalType": "string",
          "name": "_memePath",
          "type": "string"
        }
      ],
      "name": "setMemePath",
      "outputs": [],
      "payable": false,
      "stateMutability": "nonpayable",
      "type": "function"
    },
    {
      "constant": false,
      "inputs": [
        {
          "internalType": "uint256",
          "name": "_memeId",
          "type": "uint256"
        },
        {
          "internalType": "string",
          "name": "_memeTitle",
          "type": "string"
        }
      ],
      "name": "setMemeTitle",
      "outputs": [],
      "payable": false,
      "stateMutability": "nonpayable",
      "type": "function"
    },
    {
      "constant": false,
      "inputs": [
        {
          "internalType": "uint256",
          "name": "_memeId",
          "type": "uint256"
        },
        {
          "internalType": "string",
          "name": "_memeDescription",
          "type": "string"
        }
      ],
      "name": "setMemeDescription",
      "outputs": [],
      "payable": false,
      "stateMutability": "nonpayable",
      "type": "function"
    }
  ],
  "bytecode": "0x608060405233600560006101000a81548173ffffffffffffffffffffffffffffffffffffffff021916908373ffffffffffffffffffffffffffffffffffffffff1602179055506000600655620000626301ffc9a760e01b6200008060201b60201c565b6200007a6380ac58cd60e01b6200008060201b60201c565b62000189565b63ffffffff60e01b817bffffffffffffffffffffffffffffffffffffffffffffffffffffffff191614156200011d576040517f08c379a000000000000000000000000000000000000000000000000000000000815260040180806020018281038252601c8152602001807f4552433136353a20696e76616c696420696e746572666163652069640000000081525060200191505060405180910390fd5b6001600080837bffffffffffffffffffffffffffffffffffffffffffffffffffffffff19167bffffffffffffffffffffffffffffffffffffffffffffffffffffffff1916815260200190815260200160002060006101000a81548160ff02191690831515021790555050565b61366380620001996000396000f3fe608060405234801561001057600080fd5b50600436106101da5760003560e01c80638256cdd011610104578063caa07b90116100a2578063e985e9c511610071578063e985e9c51461101f578063ecf57b9a1461109b578063f251dcb5146110b9578063f331a548146110fb576101da565b8063caa07b9014610ed0578063db3106b114610f08578063e1b64e7914610f40578063e3132ee214610f78576101da565b8063a5b503d1116100de578063a5b503d114610d0b578063b39a6e8c14610d5b578063b6bcbb7714610d9d578063b88d4fde14610dcb576101da565b80638256cdd014610bbe57806390e5abb414610c83578063a22cb46514610cbb576101da565b8063386d36141161017c5780636352211e1161014b5780636352211e146109f157806370a0823114610a5f5780637eda8c0414610ab75780637f4cb8a914610af9576101da565b8063386d361414610581578063388f6064146105af57806342842e0e146107665780635885fa46146107d4576101da565b80631eea7b5f116101b85780631eea7b5f1461030057806323b872dd146103a757806324df82b3146104155780632f6ee4ea146104bc576101da565b806301ffc9a7146101df578063081812fc14610244578063095ea7b3146102b2575b600080fd5b61022a600480360360208110156101f557600080fd5b8101908080357bffffffffffffffffffffffffffffffffffffffffffffffffffffffff1916906020019092919050505061113d565b604051808215151515815260200191505060405180910390f35b6102706004803603602081101561025a57600080fd5b81019080803590602001909291905050506111a4565b604051808273ffffffffffffffffffffffffffffffffffffffff1673ffffffffffffffffffffffffffffffffffffffff16815260200191505060405180910390f35b6102fe600480360360408110156102c857600080fd5b81019080803573ffffffffffffffffffffffffffffffffffffffff1690602001909291908035906020019092919050505061123f565b005b61032c6004803603602081101561031657600080fd5b8101908080359060200190929190505050611426565b6040518080602001828103825283818151815260200191508051906020019080838360005b8381101561036c578082015181840152602081019050610351565b50505050905090810190601f1680156103995780820380516001836020036101000a031916815260200191505b509250505060405180910390f35b610413600480360360608110156103bd57600080fd5b81019080803573ffffffffffffffffffffffffffffffffffffffff169060200190929190803573ffffffffffffffffffffffffffffffffffffffff169060200190929190803590602001909291905050506114e6565b005b6104416004803603602081101561042b57600080fd5b810190808035906020019092919050505061155c565b6040518080602001828103825283818151815260200191508051906020019080838360005b83811015610481578082015181840152602081019050610466565b50505050905090810190601f1680156104ae5780820380516001836020036101000a031916815260200191505b509250505060405180910390f35b61057f600480360360408110156104d257600080fd5b8101908080359060200190929190803590602001906401000000008111156104f957600080fd5b82018360208201111561050b57600080fd5b8035906020019184600183028401116401000000008311171561052d57600080fd5b91908080601f016020809104026020016040519081016040528093929190818152602001838380828437600081840152601f19601f82011690508083019250505050505050919291929050505061161c565b005b6105ad6004803603602081101561059757600080fd5b81019080803590602001909291905050506116f7565b005b6105db600480360360208110156105c557600080fd5b8101908080359060200190929190505050611771565b604051808a815260200189815260200188815260200187815260200186815260200180602001806020018060200185600281111561061557fe5b60ff168152602001848103845288818151815260200191508051906020019080838360005b8381101561065557808201518184015260208101905061063a565b50505050905090810190601f1680156106825780820380516001836020036101000a031916815260200191505b50848103835287818151815260200191508051906020019080838360005b838110156106bb5780820151818401526020810190506106a0565b50505050905090810190601f1680156106e85780820380516001836020036101000a031916815260200191505b50848103825286818151815260200191508051906020019080838360005b83811015610721578082015181840152602081019050610706565b50505050905090810190601f16801561074e5780820380516001836020036101000a031916815260200191505b509c5050505050505050505050505060405180910390f35b6107d26004803603606081101561077c57600080fd5b81019080803573ffffffffffffffffffffffffffffffffffffffff169060200190929190803573ffffffffffffffffffffffffffffffffffffffff169060200190929190803590602001909291905050506119a1565b005b6109db600480360360808110156107ea57600080fd5b81019080803573ffffffffffffffffffffffffffffffffffffffff1690602001909291908035906020019064010000000081111561082757600080fd5b82018360208201111561083957600080fd5b8035906020019184600183028401116401000000008311171561085b57600080fd5b91908080601f016020809104026020016040519081016040528093929190818152602001838380828437600081840152601f19601f820116905080830192505050505050509192919290803590602001906401000000008111156108be57600080fd5b8201836020820111156108d057600080fd5b803590602001918460018302840111640100000000831117156108f257600080fd5b91908080601f016020809104026020016040519081016040528093929190818152602001838380828437600081840152601f19601f8201169050808301925050505050505091929192908035906020019064010000000081111561095557600080fd5b82018360208201111561096757600080fd5b8035906020019184600183028401116401000000008311171561098957600080fd5b91908080601f016020809104026020016040519081016040528093929190818152602001838380828437600081840152601f19601f8201169050808301925050505050505091929192905050506119c1565b6040518082815260200191505060405180910390f35b610a1d60048036036020811015610a0757600080fd5b8101908080359060200190929190505050611cc9565b604051808273ffffffffffffffffffffffffffffffffffffffff1673ffffffffffffffffffffffffffffffffffffffff16815260200191505060405180910390f35b610aa160048036036020811015610a7557600080fd5b81019080803573ffffffffffffffffffffffffffffffffffffffff169060200190929190505050611d91565b6040518082815260200191505060405180910390f35b610ae360048036036020811015610acd57600080fd5b8101908080359060200190929190505050611e66565b6040518082815260200191505060405180910390f35b610bbc60048036036040811015610b0f57600080fd5b810190808035906020019092919080359060200190640100000000811115610b3657600080fd5b820183602082011115610b4857600080fd5b80359060200191846001830284011164010000000083111715610b6a57600080fd5b91908080601f016020809104026020016040519081016040528093929190818152602001838380828437600081840152601f19601f820116905080830192505050505050509192919290505050611e8e565b005b610c8160048036036040811015610bd457600080fd5b810190808035906020019092919080359060200190640100000000811115610bfb57600080fd5b820183602082011115610c0d57600080fd5b80359060200191846001830284011164010000000083111715610c2f57600080fd5b91908080601f016020809104026020016040519081016040528093929190818152602001838380828437600081840152601f19601f820116905080830192505050505050509192919290505050611f69565b005b610cb960048036036040811015610c9957600080fd5b810190808035906020019092919080359060200190929190505050612044565b005b610d0960048036036040811015610cd157600080fd5b81019080803573ffffffffffffffffffffffffffffffffffffffff1690602001909291908035151590602001909291905050506120aa565b005b610d3760048036036020811015610d2157600080fd5b8101908080359060200190929190505050612262565b60405180826002811115610d4757fe5b60ff16815260200191505060405180910390f35b610d8760048036036020811015610d7157600080fd5b8101908080359060200190929190505050612297565b6040518082815260200191505060405180910390f35b610dc960048036036020811015610db357600080fd5b81019080803590602001909291905050506122bf565b005b610ece60048036036080811015610de157600080fd5b81019080803573ffffffffffffffffffffffffffffffffffffffff169060200190929190803573ffffffffffffffffffffffffffffffffffffffff1690602001909291908035906020019092919080359060200190640100000000811115610e4857600080fd5b820183602082011115610e5a57600080fd5b80359060200191846001830284011164010000000083111715610e7c57600080fd5b91908080601f016020809104026020016040519081016040528093929190818152602001838380828437600081840152601f19601f820116905080830192505050505050509192919290505050612339565b005b610f0660048036036040811015610ee657600080fd5b8101908080359060200190929190803590602001909291905050506123b1565b005b610f3e60048036036040811015610f1e57600080fd5b810190808035906020019092919080359060200190929190505050612417565b005b610f7660048036036040811015610f5657600080fd5b81019080803590602001909291908035906020019092919050505061247d565b005b610fa460048036036020811015610f8e57600080fd5b81019080803590602001909291905050506124e3565b6040518080602001828103825283818151815260200191508051906020019080838360005b83811015610fe4578082015181840152602081019050610fc9565b50505050905090810190601f1680156110115780820380516001836020036101000a031916815260200191505b509250505060405180910390f35b6110816004803603604081101561103557600080fd5b81019080803573ffffffffffffffffffffffffffffffffffffffff169060200190929190803573ffffffffffffffffffffffffffffffffffffffff1690602001909291905050506125a3565b604051808215151515815260200191505060405180910390f35b6110a3612637565b6040518082815260200191505060405180910390f35b6110e5600480360360208110156110cf57600080fd5b810190808035906020019092919050505061263d565b6040518082815260200191505060405180910390f35b6111276004803603602081101561111157600080fd5b8101908080359060200190929190505050612665565b6040518082815260200191505060405180910390f35b6000806000837bffffffffffffffffffffffffffffffffffffffffffffffffffffffff19167bffffffffffffffffffffffffffffffffffffffffffffffffffffffff1916815260200190815260200160002060009054906101000a900460ff169050919050565b60006111af8261268d565b611204576040517f08c379a000000000000000000000000000000000000000000000000000000000815260040180806020018281038252602c815260200180613588602c913960400191505060405180910390fd5b6002600083815260200190815260200160002060009054906101000a900473ffffffffffffffffffffffffffffffffffffffff169050919050565b600061124a82611cc9565b90508073ffffffffffffffffffffffffffffffffffffffff168373ffffffffffffffffffffffffffffffffffffffff1614156112d1576040517f08c379a00000000000000000000000000000000000000000000000000000000081526004018080602001828103825260218152602001806135dd6021913960400191505060405180910390fd5b8073ffffffffffffffffffffffffffffffffffffffff166112f06126ff565b73ffffffffffffffffffffffffffffffffffffffff16148061131f575061131e816113196126ff565b6125a3565b5b611374576040517f08c379a00000000000000000000000000000000000000000000000000000000081526004018080602001828103825260388152602001806134fd6038913960400191505060405180910390fd5b826002600084815260200190815260200160002060006101000a81548173ffffffffffffffffffffffffffffffffffffffff021916908373ffffffffffffffffffffffffffffffffffffffff160217905550818373ffffffffffffffffffffffffffffffffffffffff168273ffffffffffffffffffffffffffffffffffffffff167f8c5be1e5ebec7d5bd14f71427d1e84f3dd0314c0f7b2291e5b200ac8c7c3b92560405160405180910390a4505050565b60606007828154811061143557fe5b90600052602060002090600902016005018054600181600116156101000203166002900480601f0160208091040260200160405190810160405280929190818152602001828054600181600116156101000203166002900480156114da5780601f106114af576101008083540402835291602001916114da565b820191906000526020600020905b8154815290600101906020018083116114bd57829003601f168201915b50505050509050919050565b6114f76114f16126ff565b82612707565b61154c576040517f08c379a00000000000000000000000000000000000000000000000000000000081526004018080602001828103825260318152602001806135fe6031913960400191505060405180910390fd5b6115578383836127fb565b505050565b60606007828154811061156b57fe5b90600052602060002090600902016007018054600181600116156101000203166002900480601f0160208091040260200160405190810160405280929190818152602001828054600181600116156101000203166002900480156116105780601f106115e557610100808354040283529160200191611610565b820191906000526020600020905b8154815290600101906020018083116115f357829003601f168201915b50505050509050919050565b806007838154811061162a57fe5b9060005260206000209060090201600701908051906020019061164e9291906132fe565b507f39fe17132d93deb6c1a222fa0e62250be8db081415bf7b22d0c96eca64aba24382826040518083815260200180602001828103825283818151815260200191508051906020019080838360005b838110156116b857808201518184015260208101905061169d565b50505050905090810190601f1680156116e55780820380516001836020036101000a031916815260200191505b50935050505060405180910390a15050565b60016007828154811061170657fe5b906000526020600020906009020160080160006101000a81548160ff0219169083600281111561173257fe5b02179055507f2dc87c26329beac71ed567ba6669f636cdadaf7a0e1492d530d8a4a1d913202c816040518082815260200191505060405180910390a150565b6007818154811061177e57fe5b9060005260206000209060090201600091509050806000015490806001015490806002015490806003015490806004015490806005018054600181600116156101000203166002900480601f0160208091040260200160405190810160405280929190818152602001828054600181600116156101000203166002900480156118485780601f1061181d57610100808354040283529160200191611848565b820191906000526020600020905b81548152906001019060200180831161182b57829003601f168201915b505050505090806006018054600181600116156101000203166002900480601f0160208091040260200160405190810160405280929190818152602001828054600181600116156101000203166002900480156118e65780601f106118bb576101008083540402835291602001916118e6565b820191906000526020600020905b8154815290600101906020018083116118c957829003601f168201915b505050505090806007018054600181600116156101000203166002900480601f0160208091040260200160405190810160405280929190818152602001828054600181600116156101000203166002900480156119845780601f1061195957610100808354040283529160200191611984565b820191906000526020600020905b81548152906001019060200180831161196757829003601f168201915b5050505050908060080160009054906101000a900460ff16905089565b6119bc83838360405180602001604052806000815250612339565b505050565b60006119cb61337e565b604051806101200160405280600654815260200160008152602001600081526020016000815260200160008152602001868152602001858152602001848152602001600280811115611a1957fe5b81525090506000611b16600160078490806001815401808255809150509060018203906000526020600020906009020160009091929091909150600082015181600001556020820151816001015560408201518160020155606082015181600301556080820151816004015560a0820151816005019080519060200190611aa19291906133d5565b5060c0820151816006019080519060200190611abe9291906133d5565b5060e0820151816007019080519060200190611adb9291906133d5565b506101008201518160080160006101000a81548160ff02191690836002811115611b0157fe5b02179055505050612a5690919063ffffffff16565b9050611b228782612aa0565b611b386001600654612cb890919063ffffffff16565b6006819055507f0877ccd898e8a543a9b2837da7e864d9f8fac92be4d4b4c6a10b8d65706e18a48187878760405180858152602001806020018060200180602001848103845287818151815260200191508051906020019080838360005b83811015611bb1578082015181840152602081019050611b96565b50505050905090810190601f168015611bde5780820380516001836020036101000a031916815260200191505b50848103835286818151815260200191508051906020019080838360005b83811015611c17578082015181840152602081019050611bfc565b50505050905090810190601f168015611c445780820380516001836020036101000a031916815260200191505b50848103825285818151815260200191508051906020019080838360005b83811015611c7d578082015181840152602081019050611c62565b50505050905090810190601f168015611caa5780820380516001836020036101000a031916815260200191505b5097505050505050505060405180910390a18092505050949350505050565b6000806001600084815260200190815260200160002060009054906101000a900473ffffffffffffffffffffffffffffffffffffffff169050600073ffffffffffffffffffffffffffffffffffffffff168173ffffffffffffffffffffffffffffffffffffffff161415611d88576040517f08c379a000000000000000000000000000000000000000000000000000000000815260040180806020018281038252602981526020018061355f6029913960400191505060405180910390fd5b80915050919050565b60008073ffffffffffffffffffffffffffffffffffffffff168273ffffffffffffffffffffffffffffffffffffffff161415611e18576040517f08c379a000000000000000000000000000000000000000000000000000000000815260040180806020018281038252602a815260200180613535602a913960400191505060405180910390fd5b611e5f600360008473ffffffffffffffffffffffffffffffffffffffff1673ffffffffffffffffffffffffffffffffffffffff168152602001908152602001600020612d40565b9050919050565b600060078281548110611e7557fe5b9060005260206000209060090201600101549050919050565b8060078381548110611e9c57fe5b90600052602060002090600902016006019080519060200190611ec09291906132fe565b507fdce525e529bbc6317cd60d3777deeb79b3cb2bf408f12b5d9717a03d843837fe82826040518083815260200180602001828103825283818151815260200191508051906020019080838360005b83811015611f2a578082015181840152602081019050611f0f565b50505050905090810190601f168015611f575780820380516001836020036101000a031916815260200191505b50935050505060405180910390a15050565b8060078381548110611f7757fe5b90600052602060002090600902016005019080519060200190611f9b9291906132fe565b507f04454811e7fa0b2ef21eda132059d90e580b7a64ba3d811b054a6855ec5c6c3782826040518083815260200180602001828103825283818151815260200191508051906020019080838360005b83811015612005578082015181840152602081019050611fea565b50505050905090810190601f1680156120325780820380516001836020036101000a031916815260200191505b50935050505060405180910390a15050565b806007838154811061205257fe5b9060005260206000209060090201600101819055507fdd0f81ca2d716958a9698cf1c9eb782619d3d43d599706f7e3de7f357f695d698282604051808381526020018281526020019250505060405180910390a15050565b6120b26126ff565b73ffffffffffffffffffffffffffffffffffffffff168273ffffffffffffffffffffffffffffffffffffffff161415612153576040517f08c379a00000000000000000000000000000000000000000000000000000000081526004018080602001828103825260198152602001807f4552433732313a20617070726f766520746f2063616c6c65720000000000000081525060200191505060405180910390fd5b80600460006121606126ff565b73ffffffffffffffffffffffffffffffffffffffff1673ffffffffffffffffffffffffffffffffffffffff16815260200190815260200160002060008473ffffffffffffffffffffffffffffffffffffffff1673ffffffffffffffffffffffffffffffffffffffff16815260200190815260200160002060006101000a81548160ff0219169083151502179055508173ffffffffffffffffffffffffffffffffffffffff1661220d6126ff565b73ffffffffffffffffffffffffffffffffffffffff167f17307eab39ab6107e8899845ad3d59bd9653f200f220920489ca2b5937696c3183604051808215151515815260200191505060405180910390a35050565b60006007828154811061227157fe5b906000526020600020906009020160080160009054906101000a900460ff169050919050565b6000600782815481106122a657fe5b9060005260206000209060090201600301549050919050565b6000600782815481106122ce57fe5b906000526020600020906009020160080160006101000a81548160ff021916908360028111156122fa57fe5b02179055507f4b48231601b0a39d029051319fcdd7420e1c809408ce96076e55b52b296fa84d816040518082815260200191505060405180910390a150565b61234a6123446126ff565b83612707565b61239f576040517f08c379a00000000000000000000000000000000000000000000000000000000081526004018080602001828103825260318152602001806135fe6031913960400191505060405180910390fd5b6123ab84848484612d4e565b50505050565b80600783815481106123bf57fe5b9060005260206000209060090201600201819055507fc6e754c2c99d7cfe2cbf8d103a20e0b16fe9a66d3762a8f880f1e129c9cd62bc8282604051808381526020018281526020019250505060405180910390a15050565b806007838154811061242557fe5b9060005260206000209060090201600401819055507f12d8cc2034cab909bf835f2e124343a155b463f996050d6f9eeb545b7fb4ea318282604051808381526020018281526020019250505060405180910390a15050565b806007838154811061248b57fe5b9060005260206000209060090201600301819055507ffda24b2cb361fa205553f9682a1c0620202938b8931d995b33f4e51c136cbdac8282604051808381526020018281526020019250505060405180910390a15050565b6060600782815481106124f257fe5b90600052602060002090600902016006018054600181600116156101000203166002900480601f0160208091040260200160405190810160405280929190818152602001828054600181600116156101000203166002900480156125975780601f1061256c57610100808354040283529160200191612597565b820191906000526020600020905b81548152906001019060200180831161257a57829003601f168201915b50505050509050919050565b6000600460008473ffffffffffffffffffffffffffffffffffffffff1673ffffffffffffffffffffffffffffffffffffffff16815260200190815260200160002060008373ffffffffffffffffffffffffffffffffffffffff1673ffffffffffffffffffffffffffffffffffffffff16815260200190815260200160002060009054906101000a900460ff16905092915050565b60065481565b60006007828154811061264c57fe5b9060005260206000209060090201600401549050919050565b60006007828154811061267457fe5b9060005260206000209060090201600201549050919050565b6000806001600084815260200190815260200160002060009054906101000a900473ffffffffffffffffffffffffffffffffffffffff169050600073ffffffffffffffffffffffffffffffffffffffff168173ffffffffffffffffffffffffffffffffffffffff161415915050919050565b600033905090565b60006127128261268d565b612767576040517f08c379a000000000000000000000000000000000000000000000000000000000815260040180806020018281038252602c8152602001806134d1602c913960400191505060405180910390fd5b600061277283611cc9565b90508073ffffffffffffffffffffffffffffffffffffffff168473ffffffffffffffffffffffffffffffffffffffff1614806127e157508373ffffffffffffffffffffffffffffffffffffffff166127c9846111a4565b73ffffffffffffffffffffffffffffffffffffffff16145b806127f257506127f181856125a3565b5b91505092915050565b8273ffffffffffffffffffffffffffffffffffffffff1661281b82611cc9565b73ffffffffffffffffffffffffffffffffffffffff1614612887576040517f08c379a00000000000000000000000000000000000000000000000000000000081526004018080602001828103825260298152602001806135b46029913960400191505060405180910390fd5b600073ffffffffffffffffffffffffffffffffffffffff168273ffffffffffffffffffffffffffffffffffffffff16141561290d576040517f08c379a00000000000000000000000000000000000000000000000000000000081526004018080602001828103825260248152602001806134ad6024913960400191505060405180910390fd5b61291681612dc0565b61295d600360008573ffffffffffffffffffffffffffffffffffffffff1673ffffffffffffffffffffffffffffffffffffffff168152602001908152602001600020612e7e565b6129a4600360008473ffffffffffffffffffffffffffffffffffffffff1673ffffffffffffffffffffffffffffffffffffffff168152602001908152602001600020612ea1565b816001600083815260200190815260200160002060006101000a81548173ffffffffffffffffffffffffffffffffffffffff021916908373ffffffffffffffffffffffffffffffffffffffff160217905550808273ffffffffffffffffffffffffffffffffffffffff168473ffffffffffffffffffffffffffffffffffffffff167fddf252ad1be2c89b69c2b068fc378daa952ba7f163c4a11628f55a4df523b3ef60405160405180910390a4505050565b6000612a9883836040518060400160405280601e81526020017f536166654d6174683a207375627472616374696f6e206f766572666c6f770000815250612eb7565b905092915050565b600073ffffffffffffffffffffffffffffffffffffffff168273ffffffffffffffffffffffffffffffffffffffff161415612b43576040517f08c379a00000000000000000000000000000000000000000000000000000000081526004018080602001828103825260208152602001807f4552433732313a206d696e7420746f20746865207a65726f206164647265737381525060200191505060405180910390fd5b612b4c8161268d565b15612bbf576040517f08c379a000000000000000000000000000000000000000000000000000000000815260040180806020018281038252601c8152602001807f4552433732313a20746f6b656e20616c7265616479206d696e7465640000000081525060200191505060405180910390fd5b816001600083815260200190815260200160002060006101000a81548173ffffffffffffffffffffffffffffffffffffffff021916908373ffffffffffffffffffffffffffffffffffffffff160217905550612c58600360008473ffffffffffffffffffffffffffffffffffffffff1673ffffffffffffffffffffffffffffffffffffffff168152602001908152602001600020612ea1565b808273ffffffffffffffffffffffffffffffffffffffff16600073ffffffffffffffffffffffffffffffffffffffff167fddf252ad1be2c89b69c2b068fc378daa952ba7f163c4a11628f55a4df523b3ef60405160405180910390a45050565b600080828401905083811015612d36576040517f08c379a000000000000000000000000000000000000000000000000000000000815260040180806020018281038252601b8152602001807f536166654d6174683a206164646974696f6e206f766572666c6f77000000000081525060200191505060405180910390fd5b8091505092915050565b600081600001549050919050565b612d598484846127fb565b612d6584848484612f77565b612dba576040517f08c379a000000000000000000000000000000000000000000000000000000000815260040180806020018281038252603281526020018061347b6032913960400191505060405180910390fd5b50505050565b600073ffffffffffffffffffffffffffffffffffffffff166002600083815260200190815260200160002060009054906101000a900473ffffffffffffffffffffffffffffffffffffffff1673ffffffffffffffffffffffffffffffffffffffff1614612e7b5760006002600083815260200190815260200160002060006101000a81548173ffffffffffffffffffffffffffffffffffffffff021916908373ffffffffffffffffffffffffffffffffffffffff1602179055505b50565b612e9660018260000154612a5690919063ffffffff16565b816000018190555050565b6001816000016000828254019250508190555050565b6000838311158290612f64576040517f08c379a00000000000000000000000000000000000000000000000000000000081526004018080602001828103825283818151815260200191508051906020019080838360005b83811015612f29578082015181840152602081019050612f0e565b50505050905090810190601f168015612f565780820380516001836020036101000a031916815260200191505b509250505060405180910390fd5b5060008385039050809150509392505050565b6000612f988473ffffffffffffffffffffffffffffffffffffffff166132b3565b612fa557600190506132ab565b600060608573ffffffffffffffffffffffffffffffffffffffff168673ffffffffffffffffffffffffffffffffffffffff1663150b7a02905060e01b612fe96126ff565b898888604051602401808573ffffffffffffffffffffffffffffffffffffffff1673ffffffffffffffffffffffffffffffffffffffff1681526020018473ffffffffffffffffffffffffffffffffffffffff1673ffffffffffffffffffffffffffffffffffffffff16815260200183815260200180602001828103825283818151815260200191508051906020019080838360005b8381101561309957808201518184015260208101905061307e565b50505050905090810190601f1680156130c65780820380516001836020036101000a031916815260200191505b5095505050505050604051602081830303815290604052907bffffffffffffffffffffffffffffffffffffffffffffffffffffffff19166020820180517bffffffffffffffffffffffffffffffffffffffffffffffffffffffff83818316178352505050506040518082805190602001908083835b6020831061315e578051825260208201915060208101905060208303925061313b565b6001836020036101000a0380198251168184511680821785525050505050509050019150506000604051808303816000865af19150503d80600081146131c0576040519150601f19603f3d011682016040523d82523d6000602084013e6131c5565b606091505b509150915081613233576000815111156131e25780518082602001fd5b6040517f08c379a000000000000000000000000000000000000000000000000000000000815260040180806020018281038252603281526020018061347b6032913960400191505060405180910390fd5b600081806020019051602081101561324a57600080fd5b8101908080519060200190929190505050905063150b7a0260e01b7bffffffffffffffffffffffffffffffffffffffffffffffffffffffff1916817bffffffffffffffffffffffffffffffffffffffffffffffffffffffff19161493505050505b949350505050565b60008060007fc5d2460186f7233c927e7db2dcc703c0e500b653ca82273b7bfad8045d85a47060001b9050833f91508082141580156132f557506000801b8214155b92505050919050565b828054600181600116156101000203166002900490600052602060002090601f016020900481019282601f1061333f57805160ff191683800117855561336d565b8280016001018555821561336d579182015b8281111561336c578251825591602001919060010190613351565b5b50905061337a9190613455565b5090565b6040518061012001604052806000815260200160008152602001600081526020016000815260200160008152602001606081526020016060815260200160608152602001600060028111156133cf57fe5b81525090565b828054600181600116156101000203166002900490600052602060002090601f016020900481019282601f1061341657805160ff1916838001178555613444565b82800160010185558215613444579182015b82811115613443578251825591602001919060010190613428565b5b5090506134519190613455565b5090565b61347791905b8082111561347357600081600090555060010161345b565b5090565b9056fe4552433732313a207472616e7366657220746f206e6f6e20455243373231526563656976657220696d706c656d656e7465724552433732313a207472616e7366657220746f20746865207a65726f20616464726573734552433732313a206f70657261746f7220717565727920666f72206e6f6e6578697374656e7420746f6b656e4552433732313a20617070726f76652063616c6c6572206973206e6f74206f776e6572206e6f7220617070726f76656420666f7220616c6c4552433732313a2062616c616e636520717565727920666f7220746865207a65726f20616464726573734552433732313a206f776e657220717565727920666f72206e6f6e6578697374656e7420746f6b656e4552433732313a20617070726f76656420717565727920666f72206e6f6e6578697374656e7420746f6b656e4552433732313a207472616e73666572206f6620746f6b656e2074686174206973206e6f74206f776e4552433732313a20617070726f76616c20746f2063757272656e74206f776e65724552433732313a207472616e736665722063616c6c6572206973206e6f74206f776e6572206e6f7220617070726f766564a265627a7a723158209b4fdfe3b20c5e68b950b06cfabd8e56d72f13c640ae4ba0f3c87a3796433f3a64736f6c63430005100032",
  "source": "pragma solidity ^0.5.0;\r\nimport \"../node_modules/@openzeppelin/contracts/token/ERC721/ERC721.sol\";\r\n\r\ncontract Meme is ERC721 {\r\n    using SafeMath for uint256;\r\n\r\n    address contractOwner = msg.sender;\r\n\r\n    uint256 public numberOfMemes = 0;\r\n\r\n    enum memeStates {approved, rejected, pending}\r\n\r\n    struct Meme {\r\n        uint256 memeId;\r\n        uint256 memeLikes;\r\n        uint256 memeDislikes;\r\n        uint256 memeFlags;\r\n        uint256 memeValue;\r\n        string memePath;\r\n        string memeTitle;\r\n        string memeDescription;\r\n        memeStates memeState;\r\n    }\r\n\r\n    Meme[] public memes;\r\n\r\n    event MemeCreated(\r\n        uint256 memeId,\r\n        string memePath,\r\n        string memeTitle,\r\n        string memeDescription\r\n    );\r\n    event MemeLiked(uint256 memeId, uint256 memeLikes);\r\n    event MemeDisliked(uint256 memeId, uint256 memeDislikes);\r\n    event MemeFlagged(uint256 memeId, uint256 memeFlags);\r\n    event MemeApproved(uint256 memeId);\r\n    event MemeRejected(uint256 memeId);\r\n    event MemeValueChanged(uint256 memeId, uint256 memeValue);\r\n    event MemePathChanged(uint256 memeId, string memePath);\r\n    event MemeTitleChanged(uint256 memeId, string memeTitle);\r\n    event MemeDescriptionChanged(uint256 memeId, string memeDescription);\r\n\r\n    function createMeme(\r\n        address _memeOwner,\r\n        string memory _memePath,\r\n        string memory _memeTitle,\r\n        string memory _memeDescription\r\n    ) public returns (uint256) {\r\n        Meme memory _meme = Meme(\r\n            numberOfMemes,\r\n            0,\r\n            0,\r\n            0,\r\n            0,\r\n            _memePath,\r\n            _memeTitle,\r\n            _memeDescription,\r\n            memeStates.pending\r\n        );\r\n        uint256 _memeId = memes.push(_meme).sub(1);\r\n        _mint(_memeOwner, _memeId);\r\n        numberOfMemes = numberOfMemes.add(1);\r\n        emit MemeCreated(_memeId, _memePath, _memeTitle, _memeDescription);\r\n        return _memeId;\r\n    }\r\n\r\n    function getMemeLikes(uint256 _memeId) public view returns (uint256) {\r\n        return memes[_memeId].memeLikes;\r\n    }\r\n\r\n    function getMemeDislikes(uint256 _memeId) public view returns (uint256) {\r\n        return memes[_memeId].memeDislikes;\r\n    }\r\n\r\n    function getMemeFlags(uint256 _memeId) public view returns (uint256) {\r\n        return memes[_memeId].memeFlags;\r\n    }\r\n\r\n    function getMemeValue(uint256 _memeId) public view returns (uint256) {\r\n        return memes[_memeId].memeValue;\r\n    }\r\n\r\n    function getMemeState(uint256 _memeId) public view returns (memeStates) {\r\n        return memes[_memeId].memeState;\r\n    }\r\n\r\n    function getMemePath(uint256 _memeId) public view returns (string memory) {\r\n        return memes[_memeId].memePath;\r\n    }\r\n\r\n    function getMemeTitle(uint256 _memeId) public view returns (string memory) {\r\n        return memes[_memeId].memeTitle;\r\n    }\r\n\r\n    function getMemeDescription(uint256 _memeId)\r\n        public\r\n        view\r\n        returns (string memory)\r\n    {\r\n        return memes[_memeId].memeDescription;\r\n    }\r\n\r\n    function setMemeLikes(uint256 _memeId, uint256 _memeLikes) public {\r\n        memes[_memeId].memeLikes = _memeLikes;\r\n        emit MemeLiked(_memeId, _memeLikes);\r\n    }\r\n\r\n    function setMemeDislikes(uint256 _memeId, uint256 _memeDislikes) public {\r\n        memes[_memeId].memeDislikes = _memeDislikes;\r\n        emit MemeDisliked(_memeId, _memeDislikes);\r\n    }\r\n\r\n    function setMemeFlags(uint256 _memeId, uint256 _memeFlags) public {\r\n        memes[_memeId].memeFlags = _memeFlags;\r\n        emit MemeFlagged(_memeId, _memeFlags);\r\n    }\r\n\r\n    function setMemeValue(uint256 _memeId, uint256 _memeValue) public {\r\n        memes[_memeId].memeValue = _memeValue;\r\n        emit MemeValueChanged(_memeId, _memeValue);\r\n    }\r\n\r\n    function approveMeme(uint256 _memeId) public {\r\n        memes[_memeId].memeState = memeStates.approved;\r\n        emit MemeApproved(_memeId);\r\n    }\r\n\r\n    function rejectMeme(uint256 _memeId) public {\r\n        memes[_memeId].memeState = memeStates.rejected;\r\n        emit MemeRejected(_memeId);\r\n    }\r\n\r\n    function setMemePath(uint256 _memeId, string memory _memePath) public {\r\n        memes[_memeId].memePath = _memePath;\r\n        emit MemePathChanged(_memeId, _memePath);\r\n    }\r\n\r\n    function setMemeTitle(uint256 _memeId, string memory _memeTitle) public {\r\n        memes[_memeId].memeTitle = _memeTitle;\r\n        emit MemeTitleChanged(_memeId, _memeTitle);\r\n    }\r\n    function setMemeDescription(uint256 _memeId, string memory _memeDescription)\r\n        public\r\n    {\r\n        memes[_memeId].memeDescription = _memeDescription;\r\n        emit MemeDescriptionChanged(_memeId, _memeDescription);\r\n    }\r\n\r\n}\r\n",
  "sourcePath": "C:\\Users\\quentinkhoo\\Documents\\Year 4\\Sem 2\\IS4302\\cryptomeme\\contracts\\Meme.sol",
  "compiler": {
    "name": "solc",
    "version": "0.5.16+commit.9c3226ce.Emscripten.clang"
  },
  "schemaVersion": "3.0.23",
  "updatedAt": "2020-03-15T08:21:06.212Z",
  "networkType": "ethereum",
  "devdoc": {
    "methods": {
      "approve(address,uint256)": {
        "details": "Approves another address to transfer the given token ID The zero address indicates there is no approved address. There can only be one approved address per token at a given time. Can only be called by the token owner or an approved operator.",
        "params": {
          "to": "address to be approved for the given token ID",
          "tokenId": "uint256 ID of the token to be approved"
        }
      },
      "balanceOf(address)": {
        "details": "Gets the balance of the specified address.",
        "params": {
          "owner": "address to query the balance of"
        },
        "return": "uint256 representing the amount owned by the passed address"
      },
      "getApproved(uint256)": {
        "details": "Gets the approved address for a token ID, or zero if no address set Reverts if the token ID does not exist.",
        "params": {
          "tokenId": "uint256 ID of the token to query the approval of"
        },
        "return": "address currently approved for the given token ID"
      },
      "isApprovedForAll(address,address)": {
        "details": "Tells whether an operator is approved by a given owner.",
        "params": {
          "operator": "operator address which you want to query the approval of",
          "owner": "owner address which you want to query the approval of"
        },
        "return": "bool whether the given operator is approved by the given owner"
      },
      "ownerOf(uint256)": {
        "details": "Gets the owner of the specified token ID.",
        "params": {
          "tokenId": "uint256 ID of the token to query the owner of"
        },
        "return": "address currently marked as the owner of the given token ID"
      },
      "safeTransferFrom(address,address,uint256)": {
        "details": "Safely transfers the ownership of a given token ID to another address If the target address is a contract, it must implement {IERC721Receiver-onERC721Received}, which is called upon a safe transfer, and return the magic value `bytes4(keccak256(\"onERC721Received(address,address,uint256,bytes)\"))`; otherwise, the transfer is reverted. Requires the msg.sender to be the owner, approved, or operator",
        "params": {
          "from": "current owner of the token",
          "to": "address to receive the ownership of the given token ID",
          "tokenId": "uint256 ID of the token to be transferred"
        }
      },
      "safeTransferFrom(address,address,uint256,bytes)": {
        "details": "Safely transfers the ownership of a given token ID to another address If the target address is a contract, it must implement {IERC721Receiver-onERC721Received}, which is called upon a safe transfer, and return the magic value `bytes4(keccak256(\"onERC721Received(address,address,uint256,bytes)\"))`; otherwise, the transfer is reverted. Requires the _msgSender() to be the owner, approved, or operator",
        "params": {
          "_data": "bytes data to send along with a safe transfer check",
          "from": "current owner of the token",
          "to": "address to receive the ownership of the given token ID",
          "tokenId": "uint256 ID of the token to be transferred"
        }
      },
      "setApprovalForAll(address,bool)": {
        "details": "Sets or unsets the approval of a given operator An operator is allowed to transfer all tokens of the sender on their behalf.",
        "params": {
          "approved": "representing the status of the approval to be set",
          "to": "operator address to set the approval"
        }
      },
      "supportsInterface(bytes4)": {
        "details": "See {IERC165-supportsInterface}.     * Time complexity O(1), guaranteed to always use less than 30 000 gas."
      },
      "transferFrom(address,address,uint256)": {
        "details": "Transfers the ownership of a given token ID to another address. Usage of this method is discouraged, use {safeTransferFrom} whenever possible. Requires the msg.sender to be the owner, approved, or operator.",
        "params": {
          "from": "current owner of the token",
          "to": "address to receive the ownership of the given token ID",
          "tokenId": "uint256 ID of the token to be transferred"
        }
      }
    }
  },
  "userdoc": {
    "methods": {}
  }
}