{
  "contractName": "User",
  "abi": [
    {
      "anonymous": false,
      "inputs": [
        {
          "indexed": false,
          "internalType": "uint256",
          "name": "userId",
          "type": "uint256"
        }
      ],
      "name": "UserActivated",
      "type": "event"
    },
    {
      "anonymous": false,
      "inputs": [
        {
          "indexed": false,
          "internalType": "uint256",
          "name": "userId",
          "type": "uint256"
        }
      ],
      "name": "UserBecameAdmin",
      "type": "event"
    },
    {
      "anonymous": false,
      "inputs": [
        {
          "indexed": false,
          "internalType": "uint256",
          "name": "userId",
          "type": "uint256"
        },
        {
          "indexed": false,
          "internalType": "string",
          "name": "username",
          "type": "string"
        },
        {
          "indexed": false,
          "internalType": "address",
          "name": "userWallet",
          "type": "address"
        },
        {
          "indexed": false,
          "internalType": "string",
          "name": "displayPicturePath",
          "type": "string"
        }
      ],
      "name": "UserCreated",
      "type": "event"
    },
    {
      "anonymous": false,
      "inputs": [
        {
          "indexed": false,
          "internalType": "uint256",
          "name": "userId",
          "type": "uint256"
        }
      ],
      "name": "UserDeactivated",
      "type": "event"
    },
    {
      "anonymous": false,
      "inputs": [
        {
          "indexed": false,
          "internalType": "uint256",
          "name": "userId",
          "type": "uint256"
        },
        {
          "indexed": false,
          "internalType": "string",
          "name": "displayPicturePath",
          "type": "string"
        }
      ],
      "name": "UserDisplayPictureChanged",
      "type": "event"
    },
    {
      "anonymous": false,
      "inputs": [
        {
          "indexed": false,
          "internalType": "uint256",
          "name": "userId",
          "type": "uint256"
        }
      ],
      "name": "UserModeratored",
      "type": "event"
    },
    {
      "anonymous": false,
      "inputs": [
        {
          "indexed": false,
          "internalType": "uint256",
          "name": "userId",
          "type": "uint256"
        },
        {
          "indexed": false,
          "internalType": "string",
          "name": "passwordHash",
          "type": "string"
        }
      ],
      "name": "UserPasswordChanged",
      "type": "event"
    },
    {
      "anonymous": false,
      "inputs": [
        {
          "indexed": false,
          "internalType": "uint256",
          "name": "userId",
          "type": "uint256"
        },
        {
          "indexed": false,
          "internalType": "address",
          "name": "userWallet",
          "type": "address"
        }
      ],
      "name": "UserWalletChanged",
      "type": "event"
    },
    {
      "anonymous": false,
      "inputs": [
        {
          "indexed": false,
          "internalType": "uint256",
          "name": "userId",
          "type": "uint256"
        },
        {
          "indexed": false,
          "internalType": "string",
          "name": "username",
          "type": "string"
        }
      ],
      "name": "UsernameChanged",
      "type": "event"
    },
    {
      "constant": true,
      "inputs": [],
      "name": "numberOfUsers",
      "outputs": [
        {
          "internalType": "uint256",
          "name": "",
          "type": "uint256"
        }
      ],
      "payable": false,
      "stateMutability": "view",
      "type": "function"
    },
    {
      "constant": true,
      "inputs": [
        {
          "internalType": "uint256",
          "name": "",
          "type": "uint256"
        }
      ],
      "name": "users",
      "outputs": [
        {
          "internalType": "uint256",
          "name": "userId",
          "type": "uint256"
        },
        {
          "internalType": "string",
          "name": "username",
          "type": "string"
        },
        {
          "internalType": "string",
          "name": "passwordHash",
          "type": "string"
        },
        {
          "internalType": "address",
          "name": "userWallet",
          "type": "address"
        },
        {
          "internalType": "string",
          "name": "displayPicturePath",
          "type": "string"
        },
        {
          "internalType": "enum User.userStates",
          "name": "state",
          "type": "uint8"
        }
      ],
      "payable": false,
      "stateMutability": "view",
      "type": "function"
    },
    {
      "constant": false,
      "inputs": [
        {
          "internalType": "string",
          "name": "_username",
          "type": "string"
        },
        {
          "internalType": "string",
          "name": "_passwordHash",
          "type": "string"
        },
        {
          "internalType": "address",
          "name": "_userWallet",
          "type": "address"
        },
        {
          "internalType": "string",
          "name": "_displayPicturePath",
          "type": "string"
        }
      ],
      "name": "createUser",
      "outputs": [],
      "payable": false,
      "stateMutability": "nonpayable",
      "type": "function"
    },
    {
      "constant": false,
      "inputs": [
        {
          "internalType": "uint256",
          "name": "_userId",
          "type": "uint256"
        },
        {
          "internalType": "string",
          "name": "_username",
          "type": "string"
        }
      ],
      "name": "setUsername",
      "outputs": [],
      "payable": false,
      "stateMutability": "nonpayable",
      "type": "function"
    },
    {
      "constant": false,
      "inputs": [
        {
          "internalType": "uint256",
          "name": "_userId",
          "type": "uint256"
        },
        {
          "internalType": "string",
          "name": "_passwordHash",
          "type": "string"
        }
      ],
      "name": "setUserPassword",
      "outputs": [],
      "payable": false,
      "stateMutability": "nonpayable",
      "type": "function"
    },
    {
      "constant": false,
      "inputs": [
        {
          "internalType": "uint256",
          "name": "_userId",
          "type": "uint256"
        },
        {
          "internalType": "address",
          "name": "_userWallet",
          "type": "address"
        }
      ],
      "name": "setUserWallet",
      "outputs": [],
      "payable": false,
      "stateMutability": "nonpayable",
      "type": "function"
    },
    {
      "constant": false,
      "inputs": [
        {
          "internalType": "uint256",
          "name": "_userId",
          "type": "uint256"
        },
        {
          "internalType": "string",
          "name": "_displayPicturePath",
          "type": "string"
        }
      ],
      "name": "setDisplayPicturePath",
      "outputs": [],
      "payable": false,
      "stateMutability": "nonpayable",
      "type": "function"
    },
    {
      "constant": false,
      "inputs": [
        {
          "internalType": "uint256",
          "name": "_userId",
          "type": "uint256"
        }
      ],
      "name": "setUserAsDeactivated",
      "outputs": [],
      "payable": false,
      "stateMutability": "nonpayable",
      "type": "function"
    },
    {
      "constant": false,
      "inputs": [
        {
          "internalType": "uint256",
          "name": "_userId",
          "type": "uint256"
        }
      ],
      "name": "setUserAsActive",
      "outputs": [],
      "payable": false,
      "stateMutability": "nonpayable",
      "type": "function"
    },
    {
      "constant": false,
      "inputs": [
        {
          "internalType": "uint256",
          "name": "_userId",
          "type": "uint256"
        }
      ],
      "name": "setUserAsModerator",
      "outputs": [],
      "payable": false,
      "stateMutability": "nonpayable",
      "type": "function"
    },
    {
      "constant": false,
      "inputs": [
        {
          "internalType": "uint256",
          "name": "_userId",
          "type": "uint256"
        }
      ],
      "name": "setUserAsAdmin",
      "outputs": [],
      "payable": false,
      "stateMutability": "nonpayable",
      "type": "function"
    }
  ],
  "bytecode": "0x6080604052336000806101000a81548173ffffffffffffffffffffffffffffffffffffffff021916908373ffffffffffffffffffffffffffffffffffffffff160217905550600060015534801561005557600080fd5b5061147f806100656000396000f3fe608060405234801561001057600080fd5b50600436106100a95760003560e01c80636a9c3645116100715780636a9c36451461048257806375ce46a7146104b057806387e53d1c146104ce5780638aed699b146104fc5780638c8ab43c1461052a5780638f4beade146105ef576100a9565b80631a0612c1146100ae578063302971fc14610173578063365b98b2146101a15780633b25ce781461036f5780636144a2e614610434575b600080fd5b610171600480360360408110156100c457600080fd5b8101908080359060200190929190803590602001906401000000008111156100eb57600080fd5b8201836020820111156100fd57600080fd5b8035906020019184600183028401116401000000008311171561011f57600080fd5b91908080601f016020809104026020016040519081016040528093929190818152602001838380828437600081840152601f19601f8201169050808301925050505050505091929192905050506107f8565b005b61019f6004803603602081101561018957600080fd5b81019080803590602001909291905050506108d3565b005b6101cd600480360360208110156101b757600080fd5b810190808035906020019092919050505061094d565b6040518087815260200180602001806020018673ffffffffffffffffffffffffffffffffffffffff1673ffffffffffffffffffffffffffffffffffffffff1681526020018060200185600481111561022157fe5b60ff168152602001848103845289818151815260200191508051906020019080838360005b83811015610261578082015181840152602081019050610246565b50505050905090810190601f16801561028e5780820380516001836020036101000a031916815260200191505b50848103835288818151815260200191508051906020019080838360005b838110156102c75780820151818401526020810190506102ac565b50505050905090810190601f1680156102f45780820380516001836020036101000a031916815260200191505b50848103825286818151815260200191508051906020019080838360005b8381101561032d578082015181840152602081019050610312565b50505050905090810190601f16801561035a5780820380516001836020036101000a031916815260200191505b50995050505050505050505060405180910390f35b6104326004803603604081101561038557600080fd5b8101908080359060200190929190803590602001906401000000008111156103ac57600080fd5b8201836020820111156103be57600080fd5b803590602001918460018302840111640100000000831117156103e057600080fd5b91908080601f016020809104026020016040519081016040528093929190818152602001838380828437600081840152601f19601f820116905080830192505050505050509192919290505050610b8b565b005b6104806004803603604081101561044a57600080fd5b8101908080359060200190929190803573ffffffffffffffffffffffffffffffffffffffff169060200190929190505050610c66565b005b6104ae6004803603602081101561049857600080fd5b8101908080359060200190929190505050610d32565b005b6104b8610dac565b6040518082815260200191505060405180910390f35b6104fa600480360360208110156104e457600080fd5b8101908080359060200190929190505050610db2565b005b6105286004803603602081101561051257600080fd5b8101908080359060200190929190505050610e2c565b005b6105ed6004803603604081101561054057600080fd5b81019080803590602001909291908035906020019064010000000081111561056757600080fd5b82018360208201111561057957600080fd5b8035906020019184600183028401116401000000008311171561059b57600080fd5b91908080601f016020809104026020016040519081016040528093929190818152602001838380828437600081840152601f19601f820116905080830192505050505050509192919290505050610ea5565b005b6107f66004803603608081101561060557600080fd5b810190808035906020019064010000000081111561062257600080fd5b82018360208201111561063457600080fd5b8035906020019184600183028401116401000000008311171561065657600080fd5b91908080601f016020809104026020016040519081016040528093929190818152602001838380828437600081840152601f19601f820116905080830192505050505050509192919290803590602001906401000000008111156106b957600080fd5b8201836020820111156106cb57600080fd5b803590602001918460018302840111640100000000831117156106ed57600080fd5b91908080601f016020809104026020016040519081016040528093929190818152602001838380828437600081840152601f19601f820116905080830192505050505050509192919290803573ffffffffffffffffffffffffffffffffffffffff1690602001909291908035906020019064010000000081111561077057600080fd5b82018360208201111561078257600080fd5b803590602001918460018302840111640100000000831117156107a457600080fd5b91908080601f016020809104026020016040519081016040528093929190818152602001838380828437600081840152601f19601f820116905080830192505050505050509192919290505050610f80565b005b806002838154811061080657fe5b9060005260206000209060060201600101908051906020019061082a9291906112ce565b507f7bd3f51998cc1e26ce28cb537cc9ea02e3f3e70cd7272ad6ac98957fb437ae6782826040518083815260200180602001828103825283818151815260200191508051906020019080838360005b83811015610894578082015181840152602081019050610879565b50505050905090810190601f1680156108c15780820380516001836020036101000a031916815260200191505b50935050505060405180910390a15050565b6001600282815481106108e257fe5b906000526020600020906006020160050160006101000a81548160ff0219169083600481111561090e57fe5b02179055507ffaeef924283c624e617c471d2e344a3b9af7a01967e3fbe0e0ffdc0a6ca43f8c816040518082815260200191505060405180910390a150565b6002818154811061095a57fe5b9060005260206000209060060201600091509050806000015490806001018054600181600116156101000203166002900480601f016020809104026020016040519081016040528092919081815260200182805460018160011615610100020316600290048015610a0c5780601f106109e157610100808354040283529160200191610a0c565b820191906000526020600020905b8154815290600101906020018083116109ef57829003601f168201915b505050505090806002018054600181600116156101000203166002900480601f016020809104026020016040519081016040528092919081815260200182805460018160011615610100020316600290048015610aaa5780601f10610a7f57610100808354040283529160200191610aaa565b820191906000526020600020905b815481529060010190602001808311610a8d57829003601f168201915b5050505050908060030160009054906101000a900473ffffffffffffffffffffffffffffffffffffffff1690806004018054600181600116156101000203166002900480601f016020809104026020016040519081016040528092919081815260200182805460018160011615610100020316600290048015610b6e5780601f10610b4357610100808354040283529160200191610b6e565b820191906000526020600020905b815481529060010190602001808311610b5157829003601f168201915b5050505050908060050160009054906101000a900460ff16905086565b8060028381548110610b9957fe5b90600052602060002090600602016004019080519060200190610bbd9291906112ce565b507fae1b40dd22f035145490c7e10b4ba0bf2fc8917c91a48ccb492db0ec2d8567a182826040518083815260200180602001828103825283818151815260200191508051906020019080838360005b83811015610c27578082015181840152602081019050610c0c565b50505050905090810190601f168015610c545780820380516001836020036101000a031916815260200191505b50935050505060405180910390a15050565b8060028381548110610c7457fe5b906000526020600020906006020160030160006101000a81548173ffffffffffffffffffffffffffffffffffffffff021916908373ffffffffffffffffffffffffffffffffffffffff1602179055507fbe2ede964290b59dfeb7c3080865e4e7b81e6ad3af8eed9c7de30e54a4c470758282604051808381526020018273ffffffffffffffffffffffffffffffffffffffff1673ffffffffffffffffffffffffffffffffffffffff1681526020019250505060405180910390a15050565b600460028281548110610d4157fe5b906000526020600020906006020160050160006101000a81548160ff02191690836004811115610d6d57fe5b02179055507f7fa343b0c55f6629b26d7dfc75f0e52b4ca97730ec0ce386cff1af6895eebdd6816040518082815260200191505060405180910390a150565b60015481565b600360028281548110610dc157fe5b906000526020600020906006020160050160006101000a81548160ff02191690836004811115610ded57fe5b02179055507f7c876006736caf374960d30a0dfa46e1b44732d67d54b1a9ea0364dd75efdd43816040518082815260200191505060405180910390a150565b6002808281548110610e3a57fe5b906000526020600020906006020160050160006101000a81548160ff02191690836004811115610e6657fe5b02179055507ff788abc9a673e15ab3b48d5589668ca7adc0cd0edc6cf70ecdaede82c4167ae5816040518082815260200191505060405180910390a150565b8060028381548110610eb357fe5b90600052602060002090600602016002019080519060200190610ed79291906112ce565b507f4d807e332f5cd2a0b090164c89f5071bab4f60a6b2b83c573f63bfb4304ffbcf82826040518083815260200180602001828103825283818151815260200191508051906020019080838360005b83811015610f41578082015181840152602081019050610f26565b50505050905090810190601f168015610f6e5780820380516001836020036101000a031916815260200191505b50935050505060405180910390a15050565b610f8861134e565b6040518060c0016040528060015481526020018681526020018581526020018473ffffffffffffffffffffffffffffffffffffffff16815260200183815260200160006004811115610fd657fe5b81525090506002819080600181540180825580915050906001820390600052602060002090600602016000909192909190915060008201518160000155602082015181600101908051906020019061102f9291906113a5565b50604082015181600201908051906020019061104c9291906113a5565b5060608201518160030160006101000a81548173ffffffffffffffffffffffffffffffffffffffff021916908373ffffffffffffffffffffffffffffffffffffffff16021790555060808201518160040190805190602001906110b09291906113a5565b5060a08201518160050160006101000a81548160ff021916908360048111156110d557fe5b02179055505050507fc49566d6afa47426fd599e36ed625a7a645b084dbd2c1236fe9ac365e91a71fb60015486858560405180858152602001806020018473ffffffffffffffffffffffffffffffffffffffff1673ffffffffffffffffffffffffffffffffffffffff16815260200180602001838103835286818151815260200191508051906020019080838360005b83811015611180578082015181840152602081019050611165565b50505050905090810190601f1680156111ad5780820380516001836020036101000a031916815260200191505b50838103825284818151815260200191508051906020019080838360005b838110156111e65780820151818401526020810190506111cb565b50505050905090810190601f1680156112135780820380516001836020036101000a031916815260200191505b50965050505050505060405180910390a16112396001805461124690919063ffffffff16565b6001819055505050505050565b6000808284019050838110156112c4576040517f08c379a000000000000000000000000000000000000000000000000000000000815260040180806020018281038252601b8152602001807f536166654d6174683a206164646974696f6e206f766572666c6f77000000000081525060200191505060405180910390fd5b8091505092915050565b828054600181600116156101000203166002900490600052602060002090601f016020900481019282601f1061130f57805160ff191683800117855561133d565b8280016001018555821561133d579182015b8281111561133c578251825591602001919060010190611321565b5b50905061134a9190611425565b5090565b6040518060c00160405280600081526020016060815260200160608152602001600073ffffffffffffffffffffffffffffffffffffffff168152602001606081526020016000600481111561139f57fe5b81525090565b828054600181600116156101000203166002900490600052602060002090601f016020900481019282601f106113e657805160ff1916838001178555611414565b82800160010185558215611414579182015b828111156114135782518255916020019190600101906113f8565b5b5090506114219190611425565b5090565b61144791905b8082111561144357600081600090555060010161142b565b5090565b9056fea265627a7a723158207c9471d411023c32555183709e0204dffb8c5764a5be1f603810606740b595d164736f6c63430005100032",
  "source": "pragma solidity ^0.5.0;\r\nimport \"../node_modules/@openzeppelin/contracts/math/SafeMath.sol\";\r\n\r\ncontract User {\r\n    /*\r\n    modifier adminOnly() {\r\n        require(msg.sender == admin, \"Restricted to admin only\");\r\n        _;\r\n    }\r\n    \r\n    // modifier contentCreatorOnly () {\r\n    //     require(registered_Users[traceUser[msg.owner]].role == userRole.contentCreator, \"Restricted to Content Creators only\");\r\n    //     _;\r\n    // }\r\n\r\n    // modifier moderatorOnly () {\r\n    //     require(registered_Users[traceUser[msg.owner]].role == userRole.moderator, \"Restricted to moderator only\");\r\n    //     _;\r\n    // }\r\n\r\n    \r\n    modifier registeredUsersOnly() {\r\n        require(\r\n            registered_Users[msg.sender].state == userStates.registered,\r\n            \"Restricted to registered users only\"\r\n        );\r\n        _;\r\n    }\r\n\r\n    modifier specificUserOnly(address userAd) {\r\n        require(msg.sender == userAd, \"Restricted to user only\");\r\n        _;\r\n    }\r\n\r\n    modifier alreadyFollowed(address userAd) {\r\n        require(\r\n            alreadyFollowing[msg.sender][userAd] == true,\r\n            \"User already followed\"\r\n        );\r\n        _;\r\n    }\r\n    */\r\n    using SafeMath for uint256;\r\n    address admin = msg.sender;\r\n\r\n    enum userStates {pending, active, deactivated, moderator, admin}\r\n\r\n    uint256 public numberOfUsers = 0;\r\n\r\n    struct User {\r\n        uint256 userId;\r\n        string username;\r\n        string passwordHash;\r\n        address userWallet;\r\n        string displayPicturePath;\r\n        userStates state;\r\n    }\r\n\r\n    User[] public users;\r\n\r\n    event UserCreated(\r\n        uint256 userId,\r\n        string username,\r\n        address userWallet,\r\n        string displayPicturePath\r\n    );\r\n\r\n    event UsernameChanged(uint256 userId, string username);\r\n    event UserPasswordChanged(uint256 userId, string passwordHash);\r\n    event UserWalletChanged(uint256 userId, address userWallet);\r\n    event UserDisplayPictureChanged(uint256 userId, string displayPicturePath);\r\n    event UserActivated(uint256 userId);\r\n    event UserDeactivated(uint256 userId);\r\n    event UserModeratored(uint256 userId);\r\n    event UserBecameAdmin(uint256 userId);\r\n\r\n    function createUser(\r\n        string memory _username,\r\n        string memory _passwordHash,\r\n        address _userWallet,\r\n        string memory _displayPicturePath\r\n    ) public {\r\n        User memory newUser = User(\r\n            numberOfUsers,\r\n            _username,\r\n            _passwordHash,\r\n            _userWallet,\r\n            _displayPicturePath,\r\n            userStates.pending\r\n        );\r\n        users.push(newUser);\r\n        emit UserCreated(\r\n            numberOfUsers,\r\n            _username,\r\n            _userWallet,\r\n            _displayPicturePath\r\n        );\r\n        numberOfUsers = numberOfUsers.add(1);\r\n    }\r\n\r\n    function setUsername(uint256 _userId, string memory _username) public {\r\n        users[_userId].username = _username;\r\n        emit UsernameChanged(_userId, _username);\r\n    }\r\n\r\n    function setUserPassword(uint256 _userId, string memory _passwordHash)\r\n        public\r\n    {\r\n        users[_userId].passwordHash = _passwordHash;\r\n        emit UserPasswordChanged(_userId, _passwordHash);\r\n    }\r\n\r\n    function setUserWallet(uint256 _userId, address _userWallet) public {\r\n        users[_userId].userWallet = _userWallet;\r\n        emit UserWalletChanged(_userId, _userWallet);\r\n    }\r\n\r\n    function setDisplayPicturePath(\r\n        uint256 _userId,\r\n        string memory _displayPicturePath\r\n    ) public {\r\n        users[_userId].displayPicturePath = _displayPicturePath;\r\n        emit UserDisplayPictureChanged(_userId, _displayPicturePath);\r\n    }\r\n\r\n    function setUserAsDeactivated(uint256 _userId) public {\r\n        users[_userId].state = userStates.deactivated;\r\n        emit UserDeactivated(_userId);\r\n    }\r\n\r\n    function setUserAsActive(uint256 _userId) public {\r\n        users[_userId].state = userStates.active;\r\n        emit UserActivated(_userId);\r\n    }\r\n\r\n    function setUserAsModerator(uint256 _userId) public {\r\n        users[_userId].state = userStates.moderator;\r\n        emit UserModeratored(_userId);\r\n    }\r\n\r\n    function setUserAsAdmin(uint256 _userId) public {\r\n        users[_userId].state = userStates.admin;\r\n        emit UserBecameAdmin(_userId);\r\n    }\r\n\r\n    /*\r\n    function getUserRole(address userAd) public view returns (string memory) {\r\n        return getRoleKeyByValue(registered_Users[userAd].role);\r\n    }\r\n\r\n    function getRoleKeyByValue(userRoles r)\r\n        internal\r\n        pure\r\n        returns (string memory)\r\n    {\r\n        // Error handling for input\r\n        require(uint8(r) <= 3);\r\n\r\n        // Loop through possible options\r\n        if (userRoles.viewer == r) return \"viewer\";\r\n        if (userRoles.contentCreator == r) return \"contentCreator\";\r\n        if (userRoles.moderator == r) return \"moderator\";\r\n    }\r\n    \r\n\r\n    function getUserStatus(address userAd) public view returns (string memory) {\r\n        return getStatusKeyByValue(registered_Users[userAd].state);\r\n    }\r\n\r\n    function getStatusKeyByValue(userStates s)\r\n        internal\r\n        pure\r\n        returns (string memory)\r\n    {\r\n        // Error handling for input\r\n        require(uint8(s) <= 2);\r\n\r\n        // Loop through possible options\r\n        if (userStates.unregistered == s) return \"unregistered\";\r\n        if (userStates.registered == s) return \"registered\";\r\n    }\r\n\r\n    function followUser(address userAd)\r\n        public\r\n        registeredUsersOnly\r\n        alreadyFollowed(userAd)\r\n    {\r\n        alreadyFollowing[msg.sender][userAd] = true;\r\n        following[msg.sender].push(userAd);\r\n    }\r\n\r\n    function getUserFollowing(address userAd)\r\n        public\r\n        view\r\n        returns (address[] memory)\r\n    {\r\n        return following[userAd];\r\n    }\r\n    */\r\n\r\n}\r\n",
  "sourcePath": "C:\\Users\\quentinkhoo\\Documents\\Year 4\\Sem 2\\IS4302\\cryptomeme\\contracts\\User.sol",
  "compiler": {
    "name": "solc",
    "version": "0.5.16+commit.9c3226ce.Emscripten.clang"
  },
  "schemaVersion": "3.0.23",
  "updatedAt": "2020-03-15T19:40:25.854Z",
  "devdoc": {
    "methods": {}
  },
  "userdoc": {
    "methods": {}
  }
}