{
  "contractName": "User",
  "abi": [
    {
      "constant": false,
      "inputs": [
        {
          "internalType": "address",
          "name": "userAd",
          "type": "address"
        },
        {
          "internalType": "address",
          "name": "eWallet",
          "type": "address"
        }
      ],
      "name": "createUser",
      "outputs": [],
      "payable": false,
      "stateMutability": "nonpayable",
      "type": "function"
    },
    {
      "constant": false,
      "inputs": [
        {
          "internalType": "address",
          "name": "userAd",
          "type": "address"
        },
        {
          "internalType": "address",
          "name": "eWallet",
          "type": "address"
        }
      ],
      "name": "editUserWallet",
      "outputs": [],
      "payable": false,
      "stateMutability": "nonpayable",
      "type": "function"
    },
    {
      "constant": false,
      "inputs": [
        {
          "internalType": "address",
          "name": "userAd",
          "type": "address"
        }
      ],
      "name": "deactivateUser",
      "outputs": [],
      "payable": false,
      "stateMutability": "nonpayable",
      "type": "function"
    },
    {
      "constant": false,
      "inputs": [
        {
          "internalType": "address",
          "name": "userAd",
          "type": "address"
        }
      ],
      "name": "registerModerator",
      "outputs": [],
      "payable": false,
      "stateMutability": "nonpayable",
      "type": "function"
    },
    {
      "constant": false,
      "inputs": [
        {
          "internalType": "address",
          "name": "userAd",
          "type": "address"
        }
      ],
      "name": "removeModerator",
      "outputs": [],
      "payable": false,
      "stateMutability": "nonpayable",
      "type": "function"
    },
    {
      "constant": false,
      "inputs": [
        {
          "internalType": "address",
          "name": "userAd",
          "type": "address"
        }
      ],
      "name": "registerContentCreator",
      "outputs": [],
      "payable": false,
      "stateMutability": "nonpayable",
      "type": "function"
    },
    {
      "constant": true,
      "inputs": [
        {
          "internalType": "address",
          "name": "userAd",
          "type": "address"
        }
      ],
      "name": "getUserRole",
      "outputs": [
        {
          "internalType": "string",
          "name": "",
          "type": "string"
        }
      ],
      "payable": false,
      "stateMutability": "view",
      "type": "function"
    },
    {
      "constant": true,
      "inputs": [
        {
          "internalType": "address",
          "name": "userAd",
          "type": "address"
        }
      ],
      "name": "getUserStatus",
      "outputs": [
        {
          "internalType": "string",
          "name": "",
          "type": "string"
        }
      ],
      "payable": false,
      "stateMutability": "view",
      "type": "function"
    },
    {
      "constant": false,
      "inputs": [
        {
          "internalType": "address",
          "name": "userAd",
          "type": "address"
        }
      ],
      "name": "followUser",
      "outputs": [],
      "payable": false,
      "stateMutability": "nonpayable",
      "type": "function"
    },
    {
      "constant": true,
      "inputs": [
        {
          "internalType": "address",
          "name": "userAd",
          "type": "address"
        }
      ],
      "name": "getUserFollowing",
      "outputs": [
        {
          "internalType": "address[]",
          "name": "",
          "type": "address[]"
        }
      ],
      "payable": false,
      "stateMutability": "view",
      "type": "function"
    }
  ],
  "bytecode": "0x6080604052336000806101000a81548173ffffffffffffffffffffffffffffffffffffffff021916908373ffffffffffffffffffffffffffffffffffffffff16021790555034801561005057600080fd5b506113d4806100606000396000f3fe608060405234801561001057600080fd5b506004361061009e5760003560e01c80639083ee16116100665780639083ee16146102c5578063a70806f714610309578063c1a44a041461034d578063d02d4554146103b1578063ea0d5dcd146104155761009e565b8063030f8f9e146100a35780631a47767b1461013c5780632782085114610180578063813ecb351461023d578063869d785f14610281575b600080fd5b6100e5600480360360208110156100b957600080fd5b81019080803573ffffffffffffffffffffffffffffffffffffffff1690602001909291905050506104d2565b6040518080602001828103825283818151815260200191508051906020019060200280838360005b8381101561012857808201518184015260208101905061010d565b505050509050019250505060405180910390f35b61017e6004803603602081101561015257600080fd5b81019080803573ffffffffffffffffffffffffffffffffffffffff16906020019092919050505061059f565b005b6101c26004803603602081101561019657600080fd5b81019080803573ffffffffffffffffffffffffffffffffffffffff1690602001909291905050506106c8565b6040518080602001828103825283818151815260200191508051906020019080838360005b838110156102025780820151818401526020810190506101e7565b50505050905090810190601f16801561022f5780820380516001836020036101000a031916815260200191505b509250505060405180910390f35b61027f6004803603602081101561025357600080fd5b81019080803573ffffffffffffffffffffffffffffffffffffffff169060200190929190505050610729565b005b6102c36004803603602081101561029757600080fd5b81019080803573ffffffffffffffffffffffffffffffffffffffff169060200190929190505050610851565b005b610307600480360360208110156102db57600080fd5b81019080803573ffffffffffffffffffffffffffffffffffffffff169060200190929190505050610979565b005b61034b6004803603602081101561031f57600080fd5b81019080803573ffffffffffffffffffffffffffffffffffffffff169060200190929190505050610aa2565b005b6103af6004803603604081101561036357600080fd5b81019080803573ffffffffffffffffffffffffffffffffffffffff169060200190929190803573ffffffffffffffffffffffffffffffffffffffff169060200190929190505050610d9f565b005b610413600480360360408110156103c757600080fd5b81019080803573ffffffffffffffffffffffffffffffffffffffff169060200190929190803573ffffffffffffffffffffffffffffffffffffffff169060200190929190505050610ec7565b005b6104576004803603602081101561042b57600080fd5b81019080803573ffffffffffffffffffffffffffffffffffffffff1690602001909291905050506110bc565b6040518080602001828103825283818151815260200191508051906020019080838360005b8381101561049757808201518184015260208101905061047c565b50505050905090810190601f1680156104c45780820380516001836020036101000a031916815260200191505b509250505060405180910390f35b6060600360008373ffffffffffffffffffffffffffffffffffffffff1673ffffffffffffffffffffffffffffffffffffffff16815260200190815260200160002080548060200260200160405190810160405280929190818152602001828054801561059357602002820191906000526020600020905b8160009054906101000a900473ffffffffffffffffffffffffffffffffffffffff1673ffffffffffffffffffffffffffffffffffffffff1681526020019060010190808311610549575b50505050509050919050565b6000809054906101000a900473ffffffffffffffffffffffffffffffffffffffff1673ffffffffffffffffffffffffffffffffffffffff163373ffffffffffffffffffffffffffffffffffffffff1614610661576040517f08c379a00000000000000000000000000000000000000000000000000000000081526004018080602001828103825260188152602001807f5265737472696374656420746f2061646d696e206f6e6c79000000000000000081525060200191505060405180910390fd5b6000600160008373ffffffffffffffffffffffffffffffffffffffff1673ffffffffffffffffffffffffffffffffffffffff16815260200190815260200160002060000160146101000a81548160ff021916908360018111156106c057fe5b021790555050565b6060610722600160008473ffffffffffffffffffffffffffffffffffffffff1673ffffffffffffffffffffffffffffffffffffffff16815260200190815260200160002060000160159054906101000a900460ff1661111d565b9050919050565b6000809054906101000a900473ffffffffffffffffffffffffffffffffffffffff1673ffffffffffffffffffffffffffffffffffffffff163373ffffffffffffffffffffffffffffffffffffffff16146107eb576040517f08c379a00000000000000000000000000000000000000000000000000000000081526004018080602001828103825260188152602001807f5265737472696374656420746f2061646d696e206f6e6c79000000000000000081525060200191505060405180910390fd5b60018060008373ffffffffffffffffffffffffffffffffffffffff1673ffffffffffffffffffffffffffffffffffffffff16815260200190815260200160002060000160156101000a81548160ff0219169083600281111561084957fe5b021790555050565b6000809054906101000a900473ffffffffffffffffffffffffffffffffffffffff1673ffffffffffffffffffffffffffffffffffffffff163373ffffffffffffffffffffffffffffffffffffffff1614610913576040517f08c379a00000000000000000000000000000000000000000000000000000000081526004018080602001828103825260188152602001807f5265737472696374656420746f2061646d696e206f6e6c79000000000000000081525060200191505060405180910390fd5b60018060008373ffffffffffffffffffffffffffffffffffffffff1673ffffffffffffffffffffffffffffffffffffffff16815260200190815260200160002060000160156101000a81548160ff0219169083600281111561097157fe5b021790555050565b6000809054906101000a900473ffffffffffffffffffffffffffffffffffffffff1673ffffffffffffffffffffffffffffffffffffffff163373ffffffffffffffffffffffffffffffffffffffff1614610a3b576040517f08c379a00000000000000000000000000000000000000000000000000000000081526004018080602001828103825260188152602001807f5265737472696374656420746f2061646d696e206f6e6c79000000000000000081525060200191505060405180910390fd5b6002600160008373ffffffffffffffffffffffffffffffffffffffff1673ffffffffffffffffffffffffffffffffffffffff16815260200190815260200160002060000160156101000a81548160ff02191690836002811115610a9a57fe5b021790555050565b600180811115610aae57fe5b600160003373ffffffffffffffffffffffffffffffffffffffff1673ffffffffffffffffffffffffffffffffffffffff16815260200190815260200160002060000160149054906101000a900460ff166001811115610b0957fe5b14610b5f576040517f08c379a000000000000000000000000000000000000000000000000000000000815260040180806020018281038252602381526020018061137d6023913960400191505060405180910390fd5b8060011515600460003373ffffffffffffffffffffffffffffffffffffffff1673ffffffffffffffffffffffffffffffffffffffff16815260200190815260200160002060008373ffffffffffffffffffffffffffffffffffffffff1673ffffffffffffffffffffffffffffffffffffffff16815260200190815260200160002060009054906101000a900460ff16151514610c63576040517f08c379a00000000000000000000000000000000000000000000000000000000081526004018080602001828103825260158152602001807f5573657220616c726561647920666f6c6c6f776564000000000000000000000081525060200191505060405180910390fd5b6001600460003373ffffffffffffffffffffffffffffffffffffffff1673ffffffffffffffffffffffffffffffffffffffff16815260200190815260200160002060008473ffffffffffffffffffffffffffffffffffffffff1673ffffffffffffffffffffffffffffffffffffffff16815260200190815260200160002060006101000a81548160ff021916908315150217905550600360003373ffffffffffffffffffffffffffffffffffffffff1673ffffffffffffffffffffffffffffffffffffffff1681526020019081526020016000208290806001815401808255809150509060018203906000526020600020016000909192909190916101000a81548173ffffffffffffffffffffffffffffffffffffffff021916908373ffffffffffffffffffffffffffffffffffffffff160217905550505050565b818073ffffffffffffffffffffffffffffffffffffffff163373ffffffffffffffffffffffffffffffffffffffff1614610e41576040517f08c379a00000000000000000000000000000000000000000000000000000000081526004018080602001828103825260178152602001807f5265737472696374656420746f2075736572206f6e6c7900000000000000000081525060200191505060405180910390fd5b81600160008573ffffffffffffffffffffffffffffffffffffffff1673ffffffffffffffffffffffffffffffffffffffff16815260200190815260200160002060000160006101000a81548173ffffffffffffffffffffffffffffffffffffffff021916908373ffffffffffffffffffffffffffffffffffffffff160217905550505050565b6000809054906101000a900473ffffffffffffffffffffffffffffffffffffffff1673ffffffffffffffffffffffffffffffffffffffff163373ffffffffffffffffffffffffffffffffffffffff1614610f89576040517f08c379a00000000000000000000000000000000000000000000000000000000081526004018080602001828103825260188152602001807f5265737472696374656420746f2061646d696e206f6e6c79000000000000000081525060200191505060405180910390fd5b610f9161132f565b60405180606001604052808373ffffffffffffffffffffffffffffffffffffffff168152602001600180811115610fc457fe5b815260200160006002811115610fd657fe5b815250905080600160008573ffffffffffffffffffffffffffffffffffffffff1673ffffffffffffffffffffffffffffffffffffffff16815260200190815260200160002060008201518160000160006101000a81548173ffffffffffffffffffffffffffffffffffffffff021916908373ffffffffffffffffffffffffffffffffffffffff16021790555060208201518160000160146101000a81548160ff0219169083600181111561108657fe5b021790555060408201518160000160156101000a81548160ff021916908360028111156110af57fe5b0217905550905050505050565b6060611116600160008473ffffffffffffffffffffffffffffffffffffffff1673ffffffffffffffffffffffffffffffffffffffff16815260200190815260200160002060000160149054906101000a900460ff16611254565b9050919050565b6060600382600281111561112d57fe5b60ff16111561113b57600080fd5b81600281111561114757fe5b6000600281111561115457fe5b1415611197576040518060400160405280600681526020017f7669657765720000000000000000000000000000000000000000000000000000815250905061124f565b8160028111156111a357fe5b600160028111156111b057fe5b14156111f3576040518060400160405280600e81526020017f636f6e74656e7443726561746f72000000000000000000000000000000000000815250905061124f565b8160028111156111ff57fe5b60028081111561120b57fe5b141561124e576040518060400160405280600981526020017f6d6f64657261746f720000000000000000000000000000000000000000000000815250905061124f565b5b919050565b6060600282600181111561126457fe5b60ff16111561127257600080fd5b81600181111561127e57fe5b6000600181111561128b57fe5b14156112ce576040518060400160405280600c81526020017f756e726567697374657265640000000000000000000000000000000000000000815250905061132a565b8160018111156112da57fe5b6001808111156112e657fe5b1415611329576040518060400160405280600a81526020017f7265676973746572656400000000000000000000000000000000000000000000815250905061132a565b5b919050565b6040518060600160405280600073ffffffffffffffffffffffffffffffffffffffff1681526020016000600181111561136457fe5b81526020016000600281111561137657fe5b8152509056fe5265737472696374656420746f2072656769737465726564207573657273206f6e6c79a265627a7a72315820a05dbae454b9e7886e9fe4131f84c5264a21e80c3ffc10dcb7adf14b9557468d64736f6c63430005100032",
  "source": "pragma solidity ^0.5.0;\r\n\r\ncontract User {\r\n    address admin = msg.sender;\r\n\r\n    enum userState {unregistered, registered}\r\n    enum userRole {viewer, contentCreator, moderator}\r\n\r\n    struct user {\r\n        address eWalletAd;\r\n        userState state;\r\n        userRole role;\r\n    }\r\n\r\n    mapping(address => user) registered_Users;\r\n\r\n    mapping(address => mapping(address => bool)) likes;\r\n    mapping(address => address[]) following;\r\n    mapping(address => mapping(address => bool)) alreadyFollowing;\r\n\r\n    modifier adminOnly() {\r\n        require(msg.sender == admin, \"Restricted to admin only\");\r\n        _;\r\n    }\r\n\r\n    // modifier contentCreatorOnly () {\r\n    //     require(registered_Users[traceUser[msg.owner]].role == userRole.contentCreator, \"Restricted to Content Creators only\");\r\n    //     _;\r\n    // }\r\n\r\n    // modifier moderatorOnly () {\r\n    //     require(registered_Users[traceUser[msg.owner]].role == userRole.moderator, \"Restricted to moderator only\");\r\n    //     _;\r\n    // }\r\n\r\n    modifier registeredUsersOnly() {\r\n        require(\r\n            registered_Users[msg.sender].state == userState.registered,\r\n            \"Restricted to registered users only\"\r\n        );\r\n        _;\r\n    }\r\n\r\n    modifier specificUserOnly(address userAd) {\r\n        require(msg.sender == userAd, \"Restricted to user only\");\r\n        _;\r\n    }\r\n\r\n    modifier alreadyFollowed(address userAd) {\r\n        require(\r\n            alreadyFollowing[msg.sender][userAd] == true,\r\n            \"User already followed\"\r\n        );\r\n        _;\r\n    }\r\n\r\n    function createUser(address userAd, address eWallet) public adminOnly {\r\n        user memory newUser = user(\r\n            eWallet,\r\n            userState.registered,\r\n            userRole.viewer\r\n        );\r\n        registered_Users[userAd] = newUser;\r\n    }\r\n\r\n    function editUserWallet(address userAd, address eWallet)\r\n        public\r\n        specificUserOnly(userAd)\r\n    {\r\n        registered_Users[userAd].eWalletAd = eWallet;\r\n    }\r\n\r\n    function deactivateUser(address userAd) public adminOnly {\r\n        registered_Users[userAd].state = userState.unregistered;\r\n    }\r\n\r\n    function registerModerator(address userAd) public adminOnly {\r\n        registered_Users[userAd].role = userRole.moderator;\r\n    }\r\n\r\n    function removeModerator(address userAd) public adminOnly {\r\n        registered_Users[userAd].role = userRole.contentCreator;\r\n    }\r\n\r\n    function registerContentCreator(address userAd) public adminOnly {\r\n        registered_Users[userAd].role = userRole.contentCreator;\r\n    }\r\n\r\n    function getUserRole(address userAd) public view returns (string memory) {\r\n        return getRoleKeyByValue(registered_Users[userAd].role);\r\n    }\r\n\r\n    function getRoleKeyByValue(userRole r)\r\n        internal\r\n        pure\r\n        returns (string memory)\r\n    {\r\n        // Error handling for input\r\n        require(uint8(r) <= 3);\r\n\r\n        // Loop through possible options\r\n        if (userRole.viewer == r) return \"viewer\";\r\n        if (userRole.contentCreator == r) return \"contentCreator\";\r\n        if (userRole.moderator == r) return \"moderator\";\r\n    }\r\n\r\n    function getUserStatus(address userAd) public view returns (string memory) {\r\n        return getStatusKeyByValue(registered_Users[userAd].state);\r\n    }\r\n\r\n    function getStatusKeyByValue(userState s)\r\n        internal\r\n        pure\r\n        returns (string memory)\r\n    {\r\n        // Error handling for input\r\n        require(uint8(s) <= 2);\r\n\r\n        // Loop through possible options\r\n        if (userState.unregistered == s) return \"unregistered\";\r\n        if (userState.registered == s) return \"registered\";\r\n    }\r\n\r\n    function followUser(address userAd)\r\n        public\r\n        registeredUsersOnly\r\n        alreadyFollowed(userAd)\r\n    {\r\n        alreadyFollowing[msg.sender][userAd] = true;\r\n        following[msg.sender].push(userAd);\r\n    }\r\n\r\n    function getUserFollowing(address userAd)\r\n        public\r\n        view\r\n        returns (address[] memory)\r\n    {\r\n        return following[userAd];\r\n    }\r\n}\r\n",
  "sourcePath": "C:\\Users\\quentinkhoo\\Documents\\Year 4\\Sem 2\\IS4302\\cryptomeme\\contracts\\User.sol",
  "compiler": {
    "name": "solc",
    "version": "0.5.16+commit.9c3226ce.Emscripten.clang"
  },
  "schemaVersion": "3.0.23",
  "updatedAt": "2020-03-13T18:31:01.565Z",
  "devdoc": {
    "methods": {}
  },
  "userdoc": {
    "methods": {}
  }
}