{
  "contractName": "User",
  "abi": [
    {
      "inputs": [],
      "payable": false,
      "stateMutability": "nonpayable",
      "type": "constructor"
    },
    {
      "anonymous": false,
      "inputs": [
        {
          "indexed": false,
          "internalType": "address",
          "name": "userWallet",
          "type": "address"
        },
        {
          "indexed": false,
          "internalType": "string",
          "name": "about",
          "type": "string"
        }
      ],
      "name": "UserAboutChanged",
      "type": "event"
    },
    {
      "anonymous": false,
      "inputs": [
        {
          "indexed": false,
          "internalType": "address",
          "name": "userWallet",
          "type": "address"
        }
      ],
      "name": "UserActivated",
      "type": "event"
    },
    {
      "anonymous": false,
      "inputs": [
        {
          "indexed": false,
          "internalType": "uint256",
          "name": "userId",
          "type": "uint256"
        },
        {
          "indexed": false,
          "internalType": "address",
          "name": "userWallet",
          "type": "address"
        },
        {
          "indexed": false,
          "internalType": "string",
          "name": "about",
          "type": "string"
        },
        {
          "indexed": false,
          "internalType": "string",
          "name": "displayPictureHash",
          "type": "string"
        },
        {
          "indexed": false,
          "internalType": "string",
          "name": "displayName",
          "type": "string"
        },
        {
          "indexed": false,
          "internalType": "string",
          "name": "website",
          "type": "string"
        }
      ],
      "name": "UserCreated",
      "type": "event"
    },
    {
      "anonymous": false,
      "inputs": [
        {
          "indexed": false,
          "internalType": "address",
          "name": "userWallet",
          "type": "address"
        }
      ],
      "name": "UserDeactivated",
      "type": "event"
    },
    {
      "anonymous": false,
      "inputs": [
        {
          "indexed": false,
          "internalType": "address",
          "name": "userWallet",
          "type": "address"
        },
        {
          "indexed": false,
          "internalType": "string",
          "name": "displayName",
          "type": "string"
        }
      ],
      "name": "UserDisplayNameChanged",
      "type": "event"
    },
    {
      "anonymous": false,
      "inputs": [
        {
          "indexed": false,
          "internalType": "address",
          "name": "userWallet",
          "type": "address"
        },
        {
          "indexed": false,
          "internalType": "string",
          "name": "displayPictureHash",
          "type": "string"
        }
      ],
      "name": "UserDisplayPictureChanged",
      "type": "event"
    },
    {
      "anonymous": false,
      "inputs": [
        {
          "indexed": false,
          "internalType": "address",
          "name": "userWallet",
          "type": "address"
        }
      ],
      "name": "UserNewAdmin",
      "type": "event"
    },
    {
      "anonymous": false,
      "inputs": [
        {
          "indexed": false,
          "internalType": "address",
          "name": "userWallet",
          "type": "address"
        },
        {
          "indexed": false,
          "internalType": "string",
          "name": "website",
          "type": "string"
        }
      ],
      "name": "UserWebsiteChanged",
      "type": "event"
    },
    {
      "constant": true,
      "inputs": [],
      "name": "numberOfUsers",
      "outputs": [
        {
          "internalType": "uint256",
          "name": "",
          "type": "uint256"
        }
      ],
      "payable": false,
      "stateMutability": "view",
      "type": "function"
    },
    {
      "constant": true,
      "inputs": [
        {
          "internalType": "address",
          "name": "",
          "type": "address"
        }
      ],
      "name": "userExists",
      "outputs": [
        {
          "internalType": "bool",
          "name": "",
          "type": "bool"
        }
      ],
      "payable": false,
      "stateMutability": "view",
      "type": "function"
    },
    {
      "constant": true,
      "inputs": [
        {
          "internalType": "address",
          "name": "",
          "type": "address"
        }
      ],
      "name": "userIds",
      "outputs": [
        {
          "internalType": "uint256",
          "name": "",
          "type": "uint256"
        }
      ],
      "payable": false,
      "stateMutability": "view",
      "type": "function"
    },
    {
      "constant": true,
      "inputs": [
        {
          "internalType": "uint256",
          "name": "",
          "type": "uint256"
        }
      ],
      "name": "users",
      "outputs": [
        {
          "internalType": "uint256",
          "name": "userId",
          "type": "uint256"
        },
        {
          "internalType": "address",
          "name": "userWallet",
          "type": "address"
        },
        {
          "internalType": "string",
          "name": "about",
          "type": "string"
        },
        {
          "internalType": "string",
          "name": "displayPictureHash",
          "type": "string"
        },
        {
          "internalType": "string",
          "name": "displayName",
          "type": "string"
        },
        {
          "internalType": "string",
          "name": "website",
          "type": "string"
        },
        {
          "internalType": "enum User.userStates",
          "name": "state",
          "type": "uint8"
        }
      ],
      "payable": false,
      "stateMutability": "view",
      "type": "function"
    },
    {
      "constant": false,
      "inputs": [],
      "name": "getContractOwner",
      "outputs": [
        {
          "internalType": "address",
          "name": "",
          "type": "address"
        }
      ],
      "payable": false,
      "stateMutability": "nonpayable",
      "type": "function"
    },
    {
      "constant": false,
      "inputs": [
        {
          "internalType": "address",
          "name": "_userWallet",
          "type": "address"
        },
        {
          "internalType": "string",
          "name": "_about",
          "type": "string"
        },
        {
          "internalType": "string",
          "name": "_displayPictureHash",
          "type": "string"
        },
        {
          "internalType": "string",
          "name": "_displayName",
          "type": "string"
        },
        {
          "internalType": "string",
          "name": "_website",
          "type": "string"
        }
      ],
      "name": "createUser",
      "outputs": [],
      "payable": false,
      "stateMutability": "nonpayable",
      "type": "function"
    },
    {
      "constant": false,
      "inputs": [
        {
          "internalType": "address",
          "name": "_userWallet",
          "type": "address"
        },
        {
          "internalType": "string",
          "name": "_about",
          "type": "string"
        }
      ],
      "name": "setUserAbout",
      "outputs": [],
      "payable": false,
      "stateMutability": "nonpayable",
      "type": "function"
    },
    {
      "constant": false,
      "inputs": [
        {
          "internalType": "address",
          "name": "_userWallet",
          "type": "address"
        },
        {
          "internalType": "string",
          "name": "_displayPictureHash",
          "type": "string"
        }
      ],
      "name": "setUserDisplayPicture",
      "outputs": [],
      "payable": false,
      "stateMutability": "nonpayable",
      "type": "function"
    },
    {
      "constant": false,
      "inputs": [
        {
          "internalType": "address",
          "name": "_userWallet",
          "type": "address"
        },
        {
          "internalType": "string",
          "name": "_displayName",
          "type": "string"
        }
      ],
      "name": "setUserDisplayName",
      "outputs": [],
      "payable": false,
      "stateMutability": "nonpayable",
      "type": "function"
    },
    {
      "constant": false,
      "inputs": [
        {
          "internalType": "address",
          "name": "_userWallet",
          "type": "address"
        },
        {
          "internalType": "string",
          "name": "_website",
          "type": "string"
        }
      ],
      "name": "setUserWebsite",
      "outputs": [],
      "payable": false,
      "stateMutability": "nonpayable",
      "type": "function"
    },
    {
      "constant": false,
      "inputs": [
        {
          "internalType": "address",
          "name": "_userWallet",
          "type": "address"
        }
      ],
      "name": "setUserAsDeactivated",
      "outputs": [],
      "payable": false,
      "stateMutability": "nonpayable",
      "type": "function"
    },
    {
      "constant": false,
      "inputs": [
        {
          "internalType": "address",
          "name": "_userWallet",
          "type": "address"
        }
      ],
      "name": "setUserAsActive",
      "outputs": [],
      "payable": false,
      "stateMutability": "nonpayable",
      "type": "function"
    },
    {
      "constant": false,
      "inputs": [
        {
          "internalType": "address",
          "name": "_userWallet",
          "type": "address"
        }
      ],
      "name": "setUserAsAdmin",
      "outputs": [],
      "payable": false,
      "stateMutability": "nonpayable",
      "type": "function"
    },
    {
      "constant": true,
      "inputs": [
        {
          "internalType": "address",
          "name": "_userWallet",
          "type": "address"
        }
      ],
      "name": "checkUserExists",
      "outputs": [
        {
          "internalType": "bool",
          "name": "",
          "type": "bool"
        }
      ],
      "payable": false,
      "stateMutability": "view",
      "type": "function"
    },
    {
      "constant": true,
      "inputs": [
        {
          "internalType": "address",
          "name": "_userWallet",
          "type": "address"
        }
      ],
      "name": "checkUserIsAdmin",
      "outputs": [
        {
          "internalType": "bool",
          "name": "",
          "type": "bool"
        }
      ],
      "payable": false,
      "stateMutability": "view",
      "type": "function"
    },
    {
      "constant": true,
      "inputs": [
        {
          "internalType": "address",
          "name": "_userWallet",
          "type": "address"
        }
      ],
      "name": "checkUserIsActive",
      "outputs": [
        {
          "internalType": "bool",
          "name": "",
          "type": "bool"
        }
      ],
      "payable": false,
      "stateMutability": "view",
      "type": "function"
    },
    {
      "constant": true,
      "inputs": [
        {
          "internalType": "address",
          "name": "_userWallet",
          "type": "address"
        }
      ],
      "name": "checkUserIsPending",
      "outputs": [
        {
          "internalType": "bool",
          "name": "",
          "type": "bool"
        }
      ],
      "payable": false,
      "stateMutability": "view",
      "type": "function"
    },
    {
      "constant": true,
      "inputs": [],
      "name": "getNumberUsers",
      "outputs": [
        {
          "internalType": "uint256",
          "name": "",
          "type": "uint256"
        }
      ],
      "payable": false,
      "stateMutability": "view",
      "type": "function"
    },
    {
      "constant": true,
      "inputs": [
        {
          "internalType": "uint256",
          "name": "i",
          "type": "uint256"
        }
      ],
      "name": "getUserAddress",
      "outputs": [
        {
          "internalType": "address",
          "name": "",
          "type": "address"
        }
      ],
      "payable": false,
      "stateMutability": "view",
      "type": "function"
    }
  ],
  "bytecode": "0x6080604052336000806101000a81548173ffffffffffffffffffffffffffffffffffffffff021916908373ffffffffffffffffffffffffffffffffffffffff16021790555060006001553480156200005657600080fd5b5062000124336040518060400160405280600d81526020017f4920616d2074686520626f7373000000000000000000000000000000000000008152506040518060600160405280602e815260200162002fa9602e91396040518060400160405280600b81526020017f42696750657065426f73730000000000000000000000000000000000000000008152506040518060400160405280600d81526020017f7777772e346368616e2e6f726700000000000000000000000000000000000000815250620001ab60201b60201c565b60036002600460003373ffffffffffffffffffffffffffffffffffffffff1673ffffffffffffffffffffffffffffffffffffffff16815260200190815260200160002054815481106200017357fe5b906000526020600020906007020160060160006101000a81548160ff02191690836003811115620001a057fe5b02179055506200090e565b848073ffffffffffffffffffffffffffffffffffffffff163273ffffffffffffffffffffffffffffffffffffffff161462000232576040517f08c379a000000000000000000000000000000000000000000000000000000000815260040180806020018281038252602881526020018062002fd76028913960400191505060405180910390fd5b85600360008273ffffffffffffffffffffffffffffffffffffffff1673ffffffffffffffffffffffffffffffffffffffff16815260200190815260200160002060009054906101000a900460ff1615620002f4576040517f08c379a00000000000000000000000000000000000000000000000000000000081526004018080602001828103825260148152602001807f5573657220616c7265616479206578697374732100000000000000000000000081525060200191505060405180910390fd5b620002fe62000800565b6040518060e0016040528060015481526020018973ffffffffffffffffffffffffffffffffffffffff168152602001888152602001878152602001868152602001858152602001600060038111156200035357fe5b8152509050600281908060018154018082558091505090600182039060005260206000209060070201600090919290919091506000820151816000015560208201518160010160006101000a81548173ffffffffffffffffffffffffffffffffffffffff021916908373ffffffffffffffffffffffffffffffffffffffff1602179055506040820151816002019080519060200190620003f59291906200085f565b506060820151816003019080519060200190620004149291906200085f565b506080820151816004019080519060200190620004339291906200085f565b5060a0820151816005019080519060200190620004529291906200085f565b5060c08201518160060160006101000a81548160ff021916908360038111156200047857fe5b02179055505050507f78fb51d1a05e56a02822c2d6039d58e0eab30e361f87124168366f538be251746001548989898989604051808781526020018673ffffffffffffffffffffffffffffffffffffffff1673ffffffffffffffffffffffffffffffffffffffff16815260200180602001806020018060200180602001858103855289818151815260200191508051906020019080838360005b838110156200052f57808201518184015260208101905062000512565b50505050905090810190601f1680156200055d5780820380516001836020036101000a031916815260200191505b50858103845288818151815260200191508051906020019080838360005b83811015620005985780820151818401526020810190506200057b565b50505050905090810190601f168015620005c65780820380516001836020036101000a031916815260200191505b50858103835287818151815260200191508051906020019080838360005b8381101562000601578082015181840152602081019050620005e4565b50505050905090810190601f1680156200062f5780820380516001836020036101000a031916815260200191505b50858103825286818151815260200191508051906020019080838360005b838110156200066a5780820151818401526020810190506200064d565b50505050905090810190601f168015620006985780820380516001836020036101000a031916815260200191505b509a505050505050505050505060405180910390a16001600360008a73ffffffffffffffffffffffffffffffffffffffff1673ffffffffffffffffffffffffffffffffffffffff16815260200190815260200160002060006101000a81548160ff021916908315150217905550600154600460008a73ffffffffffffffffffffffffffffffffffffffff1673ffffffffffffffffffffffffffffffffffffffff1681526020019081526020016000208190555062000767600180546200077760201b620023f91790919060201c565b6001819055505050505050505050565b600080828401905083811015620007f6576040517f08c379a000000000000000000000000000000000000000000000000000000000815260040180806020018281038252601b8152602001807f536166654d6174683a206164646974696f6e206f766572666c6f77000000000081525060200191505060405180910390fd5b8091505092915050565b6040518060e0016040528060008152602001600073ffffffffffffffffffffffffffffffffffffffff16815260200160608152602001606081526020016060815260200160608152602001600060038111156200085957fe5b81525090565b828054600181600116156101000203166002900490600052602060002090601f016020900481019282601f10620008a257805160ff1916838001178555620008d3565b82800160010185558215620008d3579182015b82811115620008d2578251825591602001919060010190620008b5565b5b509050620008e29190620008e6565b5090565b6200090b91905b8082111562000907576000816000905550600101620008ed565b5090565b90565b61268b806200091e6000396000f3fe608060405234801561001057600080fd5b50600436106101215760003560e01c806390d976e2116100ad578063c2ffe5fc11610071578063c2ffe5fc14610adc578063c63939a814610bb7578063f716b14c14610bfb578063fbd0d69214610c57578063fbfe5d6514610c7557610121565b806390d976e2146108185780639619c5fe146108865780639f36015114610961578063a04a296c146109bd578063a960ccfb14610a9857610121565b80634081db51116100f45780634081db511461047457806343214fcb146104cc578063442890d51461076c578063666cb0df146107b657806375ce46a7146107fa57610121565b80630e666e4914610126578063133f50f5146101825780631d3345f2146101de578063365b98b21461023a575b600080fd5b6101686004803603602081101561013c57600080fd5b81019080803573ffffffffffffffffffffffffffffffffffffffff169060200190929190505050610d50565b604051808215151515815260200191505060405180910390f35b6101c46004803603602081101561019857600080fd5b81019080803573ffffffffffffffffffffffffffffffffffffffff169060200190929190505050610d70565b604051808215151515815260200191505060405180910390f35b610220600480360360208110156101f457600080fd5b81019080803573ffffffffffffffffffffffffffffffffffffffff169060200190929190505050610dc6565b604051808215151515815260200191505060405180910390f35b6102666004803603602081101561025057600080fd5b8101908080359060200190929190505050610e53565b604051808881526020018773ffffffffffffffffffffffffffffffffffffffff1673ffffffffffffffffffffffffffffffffffffffff168152602001806020018060200180602001806020018660038111156102be57fe5b60ff16815260200185810385528a818151815260200191508051906020019080838360005b838110156102fe5780820151818401526020810190506102e3565b50505050905090810190601f16801561032b5780820380516001836020036101000a031916815260200191505b50858103845289818151815260200191508051906020019080838360005b83811015610364578082015181840152602081019050610349565b50505050905090810190601f1680156103915780820380516001836020036101000a031916815260200191505b50858103835288818151815260200191508051906020019080838360005b838110156103ca5780820151818401526020810190506103af565b50505050905090810190601f1680156103f75780820380516001836020036101000a031916815260200191505b50858103825287818151815260200191508051906020019080838360005b83811015610430578082015181840152602081019050610415565b50505050905090810190601f16801561045d5780820380516001836020036101000a031916815260200191505b509b50505050505050505050505060405180910390f35b6104b66004803603602081101561048a57600080fd5b81019080803573ffffffffffffffffffffffffffffffffffffffff16906020019092919050505061112f565b6040518082815260200191505060405180910390f35b61076a600480360360a08110156104e257600080fd5b81019080803573ffffffffffffffffffffffffffffffffffffffff1690602001909291908035906020019064010000000081111561051f57600080fd5b82018360208201111561053157600080fd5b8035906020019184600183028401116401000000008311171561055357600080fd5b91908080601f016020809104026020016040519081016040528093929190818152602001838380828437600081840152601f19601f820116905080830192505050505050509192919290803590602001906401000000008111156105b657600080fd5b8201836020820111156105c857600080fd5b803590602001918460018302840111640100000000831117156105ea57600080fd5b91908080601f016020809104026020016040519081016040528093929190818152602001838380828437600081840152601f19601f8201169050808301925050505050505091929192908035906020019064010000000081111561064d57600080fd5b82018360208201111561065f57600080fd5b8035906020019184600183028401116401000000008311171561068157600080fd5b91908080601f016020809104026020016040519081016040528093929190818152602001838380828437600081840152601f19601f820116905080830192505050505050509192919290803590602001906401000000008111156106e457600080fd5b8201836020820111156106f657600080fd5b8035906020019184600183028401116401000000008311171561071857600080fd5b91908080601f016020809104026020016040519081016040528093929190818152602001838380828437600081840152601f19601f820116905080830192505050505050509192919290505050611147565b005b6107746116f1565b604051808273ffffffffffffffffffffffffffffffffffffffff1673ffffffffffffffffffffffffffffffffffffffff16815260200191505060405180910390f35b6107f8600480360360208110156107cc57600080fd5b81019080803573ffffffffffffffffffffffffffffffffffffffff16906020019092919050505061171a565b005b61080261185d565b6040518082815260200191505060405180910390f35b6108446004803603602081101561082e57600080fd5b8101908080359060200190929190505050611863565b604051808273ffffffffffffffffffffffffffffffffffffffff1673ffffffffffffffffffffffffffffffffffffffff16815260200191505060405180910390f35b61095f6004803603604081101561089c57600080fd5b81019080803573ffffffffffffffffffffffffffffffffffffffff169060200190929190803590602001906401000000008111156108d957600080fd5b8201836020820111156108eb57600080fd5b8035906020019184600183028401116401000000008311171561090d57600080fd5b91908080601f016020809104026020016040519081016040528093929190818152602001838380828437600081840152601f19601f820116905080830192505050505050509192919290505050611922565b005b6109a36004803603602081101561097757600080fd5b81019080803573ffffffffffffffffffffffffffffffffffffffff169060200190929190505050611aee565b604051808215151515815260200191505060405180910390f35b610a96600480360360408110156109d357600080fd5b81019080803573ffffffffffffffffffffffffffffffffffffffff16906020019092919080359060200190640100000000811115610a1057600080fd5b820183602082011115610a2257600080fd5b80359060200191846001830284011164010000000083111715610a4457600080fd5b91908080601f016020809104026020016040519081016040528093929190818152602001838380828437600081840152601f19601f820116905080830192505050505050509192919290505050611b7a565b005b610ada60048036036020811015610aae57600080fd5b81019080803573ffffffffffffffffffffffffffffffffffffffff169060200190929190505050611d46565b005b610bb560048036036040811015610af257600080fd5b81019080803573ffffffffffffffffffffffffffffffffffffffff16906020019092919080359060200190640100000000811115610b2f57600080fd5b820183602082011115610b4157600080fd5b80359060200191846001830284011164010000000083111715610b6357600080fd5b91908080601f016020809104026020016040519081016040528093929190818152602001838380828437600081840152601f19601f820116905080830192505050505050509192919290505050611e88565b005b610bf960048036036020811015610bcd57600080fd5b81019080803573ffffffffffffffffffffffffffffffffffffffff169060200190929190505050612054565b005b610c3d60048036036020811015610c1157600080fd5b81019080803573ffffffffffffffffffffffffffffffffffffffff169060200190929190505050612197565b604051808215151515815260200191505060405180910390f35b610c5f612223565b6040518082815260200191505060405180910390f35b610d4e60048036036040811015610c8b57600080fd5b81019080803573ffffffffffffffffffffffffffffffffffffffff16906020019092919080359060200190640100000000811115610cc857600080fd5b820183602082011115610cda57600080fd5b80359060200191846001830284011164010000000083111715610cfc57600080fd5b91908080601f016020809104026020016040519081016040528093929190818152602001838380828437600081840152601f19601f82011690508083019250505050505050919291929050505061222d565b005b60036020528060005260406000206000915054906101000a900460ff1681565b6000600360008373ffffffffffffffffffffffffffffffffffffffff1673ffffffffffffffffffffffffffffffffffffffff16815260200190815260200160002060009054906101000a900460ff169050919050565b600060016003811115610dd557fe5b6002600460008573ffffffffffffffffffffffffffffffffffffffff1673ffffffffffffffffffffffffffffffffffffffff1681526020019081526020016000205481548110610e2157fe5b906000526020600020906007020160060160009054906101000a900460ff166003811115610e4b57fe5b149050919050565b60028181548110610e6057fe5b90600052602060002090600702016000915090508060000154908060010160009054906101000a900473ffffffffffffffffffffffffffffffffffffffff1690806002018054600181600116156101000203166002900480601f016020809104026020016040519081016040528092919081815260200182805460018160011615610100020316600290048015610f385780601f10610f0d57610100808354040283529160200191610f38565b820191906000526020600020905b815481529060010190602001808311610f1b57829003601f168201915b505050505090806003018054600181600116156101000203166002900480601f016020809104026020016040519081016040528092919081815260200182805460018160011615610100020316600290048015610fd65780601f10610fab57610100808354040283529160200191610fd6565b820191906000526020600020905b815481529060010190602001808311610fb957829003601f168201915b505050505090806004018054600181600116156101000203166002900480601f0160208091040260200160405190810160405280929190818152602001828054600181600116156101000203166002900480156110745780601f1061104957610100808354040283529160200191611074565b820191906000526020600020905b81548152906001019060200180831161105757829003601f168201915b505050505090806005018054600181600116156101000203166002900480601f0160208091040260200160405190810160405280929190818152602001828054600181600116156101000203166002900480156111125780601f106110e757610100808354040283529160200191611112565b820191906000526020600020905b8154815290600101906020018083116110f557829003601f168201915b5050505050908060060160009054906101000a900460ff16905087565b60046020528060005260406000206000915090505481565b848073ffffffffffffffffffffffffffffffffffffffff163273ffffffffffffffffffffffffffffffffffffffff16146111cc576040517f08c379a00000000000000000000000000000000000000000000000000000000081526004018080602001828103825260288152602001806126056028913960400191505060405180910390fd5b85600360008273ffffffffffffffffffffffffffffffffffffffff1673ffffffffffffffffffffffffffffffffffffffff16815260200190815260200160002060009054906101000a900460ff161561128d576040517f08c379a00000000000000000000000000000000000000000000000000000000081526004018080602001828103825260148152602001807f5573657220616c7265616479206578697374732100000000000000000000000081525060200191505060405180910390fd5b611295612481565b6040518060e0016040528060015481526020018973ffffffffffffffffffffffffffffffffffffffff168152602001888152602001878152602001868152602001858152602001600060038111156112e957fe5b8152509050600281908060018154018082558091505090600182039060005260206000209060070201600090919290919091506000820151816000015560208201518160010160006101000a81548173ffffffffffffffffffffffffffffffffffffffff021916908373ffffffffffffffffffffffffffffffffffffffff16021790555060408201518160020190805190602001906113899291906124df565b5060608201518160030190805190602001906113a69291906124df565b5060808201518160040190805190602001906113c39291906124df565b5060a08201518160050190805190602001906113e09291906124df565b5060c08201518160060160006101000a81548160ff0219169083600381111561140557fe5b02179055505050507f78fb51d1a05e56a02822c2d6039d58e0eab30e361f87124168366f538be251746001548989898989604051808781526020018673ffffffffffffffffffffffffffffffffffffffff1673ffffffffffffffffffffffffffffffffffffffff16815260200180602001806020018060200180602001858103855289818151815260200191508051906020019080838360005b838110156114ba57808201518184015260208101905061149f565b50505050905090810190601f1680156114e75780820380516001836020036101000a031916815260200191505b50858103845288818151815260200191508051906020019080838360005b83811015611520578082015181840152602081019050611505565b50505050905090810190601f16801561154d5780820380516001836020036101000a031916815260200191505b50858103835287818151815260200191508051906020019080838360005b8381101561158657808201518184015260208101905061156b565b50505050905090810190601f1680156115b35780820380516001836020036101000a031916815260200191505b50858103825286818151815260200191508051906020019080838360005b838110156115ec5780820151818401526020810190506115d1565b50505050905090810190601f1680156116195780820380516001836020036101000a031916815260200191505b509a505050505050505050505060405180910390a16001600360008a73ffffffffffffffffffffffffffffffffffffffff1673ffffffffffffffffffffffffffffffffffffffff16815260200190815260200160002060006101000a81548160ff021916908315150217905550600154600460008a73ffffffffffffffffffffffffffffffffffffffff1673ffffffffffffffffffffffffffffffffffffffff168152602001908152602001600020819055506116e1600180546123f990919063ffffffff16565b6001819055505050505050505050565b60008060009054906101000a900473ffffffffffffffffffffffffffffffffffffffff16905090565b61172332611aee565b611778576040517f08c379a000000000000000000000000000000000000000000000000000000000815260040180806020018281038252602a81526020018061262d602a913960400191505060405180910390fd5b60036002600460008473ffffffffffffffffffffffffffffffffffffffff1673ffffffffffffffffffffffffffffffffffffffff16815260200190815260200160002054815481106117c657fe5b906000526020600020906007020160060160006101000a81548160ff021916908360038111156117f257fe5b02179055507f8b2b982745fe559abf4192362468439f005c906cbb5aa5f70f25350c7adc8f6881604051808273ffffffffffffffffffffffffffffffffffffffff1673ffffffffffffffffffffffffffffffffffffffff16815260200191505060405180910390a150565b60015481565b600060015482106118dc576040517f08c379a00000000000000000000000000000000000000000000000000000000081526004018080602001828103825260138152602001807f4e6f7420612076616c696420557365722049440000000000000000000000000081525060200191505060405180910390fd5b600282815481106118e957fe5b906000526020600020906007020160010160009054906101000a900473ffffffffffffffffffffffffffffffffffffffff169050919050565b818073ffffffffffffffffffffffffffffffffffffffff163273ffffffffffffffffffffffffffffffffffffffff16146119a7576040517f08c379a00000000000000000000000000000000000000000000000000000000081526004018080602001828103825260288152602001806126056028913960400191505060405180910390fd5b816002600460008673ffffffffffffffffffffffffffffffffffffffff1673ffffffffffffffffffffffffffffffffffffffff16815260200190815260200160002054815481106119f457fe5b90600052602060002090600702016004019080519060200190611a1892919061255f565b507f3c824b2fdcc0e591a5d7a20bff9ee1d4a9edaa5de5ae5061fedf1dd1b3b99c998383604051808373ffffffffffffffffffffffffffffffffffffffff1673ffffffffffffffffffffffffffffffffffffffff16815260200180602001828103825283818151815260200191508051906020019080838360005b83811015611aae578082015181840152602081019050611a93565b50505050905090810190601f168015611adb5780820380516001836020036101000a031916815260200191505b50935050505060405180910390a1505050565b6000600380811115611afc57fe5b6002600460008573ffffffffffffffffffffffffffffffffffffffff1673ffffffffffffffffffffffffffffffffffffffff1681526020019081526020016000205481548110611b4857fe5b906000526020600020906007020160060160009054906101000a900460ff166003811115611b7257fe5b149050919050565b818073ffffffffffffffffffffffffffffffffffffffff163273ffffffffffffffffffffffffffffffffffffffff1614611bff576040517f08c379a00000000000000000000000000000000000000000000000000000000081526004018080602001828103825260288152602001806126056028913960400191505060405180910390fd5b816002600460008673ffffffffffffffffffffffffffffffffffffffff1673ffffffffffffffffffffffffffffffffffffffff1681526020019081526020016000205481548110611c4c57fe5b90600052602060002090600702016005019080519060200190611c7092919061255f565b507ffff65c4e8686162fca4393b6c865746975e56de4a722260a2b7b5967574e82808383604051808373ffffffffffffffffffffffffffffffffffffffff1673ffffffffffffffffffffffffffffffffffffffff16815260200180602001828103825283818151815260200191508051906020019080838360005b83811015611d06578082015181840152602081019050611ceb565b50505050905090810190601f168015611d335780820380516001836020036101000a031916815260200191505b50935050505060405180910390a1505050565b611d4f32611aee565b611da4576040517f08c379a000000000000000000000000000000000000000000000000000000000815260040180806020018281038252602a81526020018061262d602a913960400191505060405180910390fd5b600280600460008473ffffffffffffffffffffffffffffffffffffffff1673ffffffffffffffffffffffffffffffffffffffff1681526020019081526020016000205481548110611df157fe5b906000526020600020906007020160060160006101000a81548160ff02191690836003811115611e1d57fe5b02179055507f5554feec4e87bc4eba14bd62f71df68156f97d26128616fbc27d28e33b35a6b481604051808273ffffffffffffffffffffffffffffffffffffffff1673ffffffffffffffffffffffffffffffffffffffff16815260200191505060405180910390a150565b818073ffffffffffffffffffffffffffffffffffffffff163273ffffffffffffffffffffffffffffffffffffffff1614611f0d576040517f08c379a00000000000000000000000000000000000000000000000000000000081526004018080602001828103825260288152602001806126056028913960400191505060405180910390fd5b816002600460008673ffffffffffffffffffffffffffffffffffffffff1673ffffffffffffffffffffffffffffffffffffffff1681526020019081526020016000205481548110611f5a57fe5b90600052602060002090600702016003019080519060200190611f7e92919061255f565b507fb1fc245cb7ae5df549375032d23f471d08d8b41860c97607dd26b45e7e4effc58383604051808373ffffffffffffffffffffffffffffffffffffffff1673ffffffffffffffffffffffffffffffffffffffff16815260200180602001828103825283818151815260200191508051906020019080838360005b83811015612014578082015181840152602081019050611ff9565b50505050905090810190601f1680156120415780820380516001836020036101000a031916815260200191505b50935050505060405180910390a1505050565b61205d32611aee565b6120b2576040517f08c379a000000000000000000000000000000000000000000000000000000000815260040180806020018281038252602a81526020018061262d602a913960400191505060405180910390fd5b60016002600460008473ffffffffffffffffffffffffffffffffffffffff1673ffffffffffffffffffffffffffffffffffffffff168152602001908152602001600020548154811061210057fe5b906000526020600020906007020160060160006101000a81548160ff0219169083600381111561212c57fe5b02179055507fd4719dd6c50c53a868b4c8eb187c166965be87e084f350aab18e6b0f141c773481604051808273ffffffffffffffffffffffffffffffffffffffff1673ffffffffffffffffffffffffffffffffffffffff16815260200191505060405180910390a150565b60008060038111156121a557fe5b6002600460008573ffffffffffffffffffffffffffffffffffffffff1673ffffffffffffffffffffffffffffffffffffffff16815260200190815260200160002054815481106121f157fe5b906000526020600020906007020160060160009054906101000a900460ff16600381111561221b57fe5b149050919050565b6000600154905090565b818073ffffffffffffffffffffffffffffffffffffffff163273ffffffffffffffffffffffffffffffffffffffff16146122b2576040517f08c379a00000000000000000000000000000000000000000000000000000000081526004018080602001828103825260288152602001806126056028913960400191505060405180910390fd5b816002600460008673ffffffffffffffffffffffffffffffffffffffff1673ffffffffffffffffffffffffffffffffffffffff16815260200190815260200160002054815481106122ff57fe5b9060005260206000209060070201600201908051906020019061232392919061255f565b507f84e94ce532256d3f2b9d3adb9ec7e92f459d027185aefdbe7ad5d5bd79e4131f8383604051808373ffffffffffffffffffffffffffffffffffffffff1673ffffffffffffffffffffffffffffffffffffffff16815260200180602001828103825283818151815260200191508051906020019080838360005b838110156123b957808201518184015260208101905061239e565b50505050905090810190601f1680156123e65780820380516001836020036101000a031916815260200191505b50935050505060405180910390a1505050565b600080828401905083811015612477576040517f08c379a000000000000000000000000000000000000000000000000000000000815260040180806020018281038252601b8152602001807f536166654d6174683a206164646974696f6e206f766572666c6f77000000000081525060200191505060405180910390fd5b8091505092915050565b6040518060e0016040528060008152602001600073ffffffffffffffffffffffffffffffffffffffff16815260200160608152602001606081526020016060815260200160608152602001600060038111156124d957fe5b81525090565b828054600181600116156101000203166002900490600052602060002090601f016020900481019282601f1061252057805160ff191683800117855561254e565b8280016001018555821561254e579182015b8281111561254d578251825591602001919060010190612532565b5b50905061255b91906125df565b5090565b828054600181600116156101000203166002900490600052602060002090601f016020900481019282601f106125a057805160ff19168380011785556125ce565b828001600101855582156125ce579182015b828111156125cd5782518255916020019190600101906125b2565b5b5090506125db91906125df565b5090565b61260191905b808211156125fd5760008160009055506001016125e5565b5090565b9056fe596f75206d757374206265207468652055736572206f6620796f7572206f776e2070726f66696c65596f75206d75737420626520616e2061646d696e20746f2063616c6c20746869732066756e6374696f6ea265627a7a723158208338b33fdb8c18932f212f149e0b4e34db32233c1633942911e126b1b072d34964736f6c63430005100032516d50314b645072465639774b62447935577643444b6433596379544262467671667642437a6a47724469564c5a596f75206d757374206265207468652055736572206f6620796f7572206f776e2070726f66696c65",
  "source": "pragma solidity ^0.5.0;\r\nimport \"../node_modules/@openzeppelin/contracts/math/SafeMath.sol\";\r\n\r\n\r\ncontract User {\r\n    using SafeMath for uint256;\r\n    address contractOwner = msg.sender;\r\n\r\n    enum userStates {pending, active, deactivated, admin}\r\n\r\n    uint256 public numberOfUsers = 0;\r\n\r\n    struct user {\r\n        uint256 userId;\r\n        address userWallet;\r\n        string about;\r\n        string displayPictureHash;\r\n        string displayName;\r\n        string website;\r\n        userStates state;\r\n    }\r\n\r\n    user[] public users;\r\n    mapping(address => bool) public userExists;\r\n    mapping(address => uint256) public userIds;\r\n\r\n    event UserCreated(\r\n        uint256 userId,\r\n        address userWallet,\r\n        string about,\r\n        string displayPictureHash,\r\n        string displayName,\r\n        string website\r\n    );\r\n    event UserAboutChanged(address userWallet, string about);\r\n    event UserDisplayPictureChanged(\r\n        address userWallet,\r\n        string displayPictureHash\r\n    );\r\n    event UserDisplayNameChanged(address userWallet, string displayName);\r\n    event UserWebsiteChanged(address userWallet, string website);\r\n    event UserActivated(address userWallet);\r\n    event UserDeactivated(address userWallet);\r\n    event UserNewAdmin(address userWallet);\r\n\r\n    /**\r\n     * Ensures a unique user address is supplied\r\n     */\r\n    modifier uniqueUser(address _userWallet) {\r\n        require(!userExists[_userWallet], \"User already exists!\");\r\n        _;\r\n    }\r\n\r\n    /**\r\n     * Ensures that meme owner is the one modifying meme contents\r\n     */\r\n    modifier isUser(address _userWallet) {\r\n        require(\r\n            tx.origin == _userWallet,\r\n            \"You must be the User of your own profile\"\r\n        );\r\n        _;\r\n    }\r\n\r\n    /**\r\n     * Ensures that function caller is an admin\r\n     */\r\n    modifier isAdmin() {\r\n        require(\r\n            checkUserIsAdmin(tx.origin),\r\n            \"You must be an admin to call this function\"\r\n        );\r\n        _;\r\n    }\r\n\r\n    /**\r\n     * Creates a default admin account\r\n     */\r\n    constructor() public {\r\n        //Create admin user\r\n        createUser(\r\n            msg.sender,\r\n            \"I am the boss\",\r\n            \"QmP1KdPrFV9wKbDy5WvCDKd3YcyTBbFvqfvBCzjGrDiVLZ\",\r\n            \"BigPepeBoss\",\r\n            \"www.4chan.org\"\r\n        );\r\n        users[userIds[msg.sender]].state = userStates.admin;\r\n    }\r\n\r\n    function getContractOwner() public returns (address) {\r\n        return contractOwner;\r\n    }\r\n\r\n    /**\r\n     * Creates a new user with supplied variables\r\n     * Requirements:\r\n     * - `_userwallet` supplied must be user's own address\r\n     */\r\n    function createUser(\r\n        address _userWallet,\r\n        string memory _about,\r\n        string memory _displayPictureHash,\r\n        string memory _displayName,\r\n        string memory _website\r\n    ) public isUser(_userWallet) uniqueUser(_userWallet) {\r\n        user memory newUser = user(\r\n            numberOfUsers,\r\n            _userWallet,\r\n            _about,\r\n            _displayPictureHash,\r\n            _displayName,\r\n            _website,\r\n            userStates.pending\r\n        );\r\n        users.push(newUser);\r\n        emit UserCreated(\r\n            numberOfUsers,\r\n            _userWallet,\r\n            _about,\r\n            _displayPictureHash,\r\n            _displayName,\r\n            _website\r\n        );\r\n        userExists[_userWallet] = true;\r\n        userIds[_userWallet] = numberOfUsers;\r\n        numberOfUsers = numberOfUsers.add(1);\r\n    }\r\n\r\n    /**\r\n     * Update User's about description\r\n     * Requirements:\r\n     * - User calling this function has to be owner of user profile\r\n     */\r\n    function setUserAbout(address _userWallet, string memory _about)\r\n        public\r\n        isUser(_userWallet)\r\n    {\r\n        users[userIds[_userWallet]].about = _about;\r\n        emit UserAboutChanged(_userWallet, _about);\r\n    }\r\n\r\n    /**\r\n     * Update User's Display Picture\r\n     * Requirements:\r\n     * - User calling this function has to be owner of user profile\r\n     */\r\n    function setUserDisplayPicture(\r\n        address _userWallet,\r\n        string memory _displayPictureHash\r\n    ) public isUser(_userWallet) {\r\n        users[userIds[_userWallet]].displayPictureHash = _displayPictureHash;\r\n        emit UserDisplayPictureChanged(_userWallet, _displayPictureHash);\r\n    }\r\n\r\n    /**\r\n     * Update User's display name\r\n     * Requirements:\r\n     * - User calling this function has to be owner of user profile\r\n     */\r\n    function setUserDisplayName(address _userWallet, string memory _displayName)\r\n        public\r\n        isUser(_userWallet)\r\n    {\r\n        users[userIds[_userWallet]].displayName = _displayName;\r\n        emit UserDisplayNameChanged(_userWallet, _displayName);\r\n    }\r\n\r\n    /**\r\n     * Update User's website\r\n     * Requirements:\r\n     * - User calling this function has to be owner of user profile\r\n     */\r\n    function setUserWebsite(address _userWallet, string memory _website)\r\n        public\r\n        isUser(_userWallet)\r\n    {\r\n        users[userIds[_userWallet]].website = _website;\r\n        emit UserWebsiteChanged(_userWallet, _website);\r\n    }\r\n\r\n    /**\r\n     * Deactivate User\r\n     * Requirements:\r\n     * - User calling this function has to be an admin\r\n     */\r\n    function setUserAsDeactivated(address _userWallet) public isAdmin() {\r\n        users[userIds[_userWallet]].state = userStates.deactivated;\r\n        emit UserDeactivated(_userWallet);\r\n    }\r\n\r\n    /**\r\n     * Activate User\r\n     * Requirements:\r\n     * - User calling this function has to be an admin\r\n     */\r\n    function setUserAsActive(address _userWallet) public isAdmin() {\r\n        users[userIds[_userWallet]].state = userStates.active;\r\n        emit UserActivated(_userWallet);\r\n    }\r\n\r\n    /**\r\n     * Set user as admin\r\n     * Requirements:\r\n     * - User calling this function has to be an admin\r\n     */\r\n    function setUserAsAdmin(address _userWallet) public isAdmin() {\r\n        users[userIds[_userWallet]].state = userStates.admin;\r\n        emit UserNewAdmin(_userWallet);\r\n    }\r\n\r\n    /**\r\n     * developers: Checks if a supplied `_userWallet` exists\r\n     */\r\n    function checkUserExists(address _userWallet) public view returns (bool) {\r\n        return userExists[_userWallet];\r\n    }\r\n\r\n    /**\r\n     * developers: Checks if a supplied `_userWallet` is an admin\r\n     */\r\n    function checkUserIsAdmin(address _userWallet) public view returns (bool) {\r\n        return users[userIds[_userWallet]].state == userStates.admin;\r\n    }\r\n\r\n    /**\r\n     * Checks if a supplied `_userWallet` is active\r\n     */\r\n    function checkUserIsActive(address _userWallet) public view returns (bool) {\r\n        return users[userIds[_userWallet]].state == userStates.active;\r\n    }\r\n\r\n    /**\r\n     * Checks if a supplied `_userWallet` is pending\r\n     */\r\n    function checkUserIsPending(address _userWallet)\r\n        public\r\n        view\r\n        returns (bool)\r\n    {\r\n        return users[userIds[_userWallet]].state == userStates.pending;\r\n    }\r\n\r\n    /**\r\n     * Returns total number of registered users\r\n     */\r\n    function getNumberUsers() public view returns (uint256) {\r\n        return numberOfUsers;\r\n    }\r\n\r\n    /**\r\n     * Returns a User Address given a supplied index `i`\r\n     * Requirements:\r\n     * - Supplied index `i` must be a valid index\r\n     */\r\n    function getUserAddress(uint256 i) public view returns (address) {\r\n        require(i < numberOfUsers, \"Not a valid User ID\");\r\n        return users[i].userWallet;\r\n    }\r\n}\r\n",
  "sourcePath": "C:\\Users\\quentinkhoo\\Documents\\Year 4\\Sem 2\\IS4302\\cryptomeme\\contracts\\User.sol",
  "compiler": {
    "name": "solc",
    "version": "0.5.16+commit.9c3226ce.Emscripten.clang"
  },
  "schemaVersion": "3.0.23",
  "updatedAt": "2020-04-12T19:10:38.317Z",
  "networkType": "ethereum",
  "devdoc": {
    "methods": {}
  },
  "userdoc": {
    "methods": {
      "checkUserExists(address)": {
        "notice": "developers: Checks if a supplied `_userWallet` exists"
      },
      "checkUserIsActive(address)": {
        "notice": "Checks if a supplied `_userWallet` is active"
      },
      "checkUserIsAdmin(address)": {
        "notice": "developers: Checks if a supplied `_userWallet` is an admin"
      },
      "checkUserIsPending(address)": {
        "notice": "Checks if a supplied `_userWallet` is pending"
      },
      "constructor": "Creates a default admin account",
      "createUser(address,string,string,string,string)": {
        "notice": "Creates a new user with supplied variables Requirements: - `_userwallet` supplied must be user's own address"
      },
      "getNumberUsers()": {
        "notice": "Returns total number of registered users"
      },
      "getUserAddress(uint256)": {
        "notice": "Returns a User Address given a supplied index `i` Requirements: - Supplied index `i` must be a valid index"
      },
      "setUserAbout(address,string)": {
        "notice": "Update User's about description Requirements: - User calling this function has to be owner of user profile"
      },
      "setUserAsActive(address)": {
        "notice": "Activate User Requirements: - User calling this function has to be an admin"
      },
      "setUserAsAdmin(address)": {
        "notice": "Set user as admin Requirements: - User calling this function has to be an admin"
      },
      "setUserAsDeactivated(address)": {
        "notice": "Deactivate User Requirements: - User calling this function has to be an admin"
      },
      "setUserDisplayName(address,string)": {
        "notice": "Update User's display name Requirements: - User calling this function has to be owner of user profile"
      },
      "setUserDisplayPicture(address,string)": {
        "notice": "Update User's Display Picture Requirements: - User calling this function has to be owner of user profile"
      },
      "setUserWebsite(address,string)": {
        "notice": "Update User's website Requirements: - User calling this function has to be owner of user profile"
      }
    }
  }
}